{
  "_format": "hh-sol-artifact-1",
  "contractName": "GAIAProtocol",
  "sourceName": "contracts/GAIAProtocol.sol",
  "abi": [
    {
      "inputs": [
        {
          "internalType": "address",
          "name": "_gaiaToken",
          "type": "address"
        },
        {
          "internalType": "address",
          "name": "_convictionVoting",
          "type": "address"
        },
        {
          "internalType": "address",
          "name": "_frozenOracle",
          "type": "address"
        },
        {
          "internalType": "address",
          "name": "_taskRegistry",
          "type": "address"
        },
        {
          "internalType": "address",
          "name": "_validationPool",
          "type": "address"
        },
        {
          "internalType": "address",
          "name": "_rewardDistributor",
          "type": "address"
        },
        {
          "internalType": "address",
          "name": "_timeLock",
          "type": "address"
        }
      ],
      "stateMutability": "nonpayable",
      "type": "constructor"
    },
    {
      "anonymous": false,
      "inputs": [
        {
          "indexed": true,
          "internalType": "address",
          "name": "gaiaToken",
          "type": "address"
        },
        {
          "indexed": true,
          "internalType": "address",
          "name": "taskRegistry",
          "type": "address"
        },
        {
          "indexed": true,
          "internalType": "address",
          "name": "validationPool",
          "type": "address"
        },
        {
          "indexed": false,
          "internalType": "uint256",
          "name": "timestamp",
          "type": "uint256"
        }
      ],
      "name": "GenesisDeployment",
      "type": "event"
    },
    {
      "anonymous": false,
      "inputs": [
        {
          "indexed": false,
          "internalType": "address",
          "name": "triggeredBy",
          "type": "address"
        },
        {
          "indexed": false,
          "internalType": "uint256",
          "name": "timestamp",
          "type": "uint256"
        }
      ],
      "name": "ProtocolPaused",
      "type": "event"
    },
    {
      "anonymous": false,
      "inputs": [
        {
          "indexed": false,
          "internalType": "address",
          "name": "triggeredBy",
          "type": "address"
        },
        {
          "indexed": false,
          "internalType": "uint256",
          "name": "timestamp",
          "type": "uint256"
        }
      ],
      "name": "ProtocolUnpaused",
      "type": "event"
    },
    {
      "inputs": [],
      "name": "MISSION",
      "outputs": [
        {
          "internalType": "string",
          "name": "",
          "type": "string"
        }
      ],
      "stateMutability": "view",
      "type": "function"
    },
    {
      "inputs": [],
      "name": "PROTOCOL_NAME",
      "outputs": [
        {
          "internalType": "string",
          "name": "",
          "type": "string"
        }
      ],
      "stateMutability": "view",
      "type": "function"
    },
    {
      "inputs": [],
      "name": "PROTOCOL_VERSION",
      "outputs": [
        {
          "internalType": "string",
          "name": "",
          "type": "string"
        }
      ],
      "stateMutability": "view",
      "type": "function"
    },
    {
      "inputs": [],
      "name": "convictionVoting",
      "outputs": [
        {
          "internalType": "address",
          "name": "",
          "type": "address"
        }
      ],
      "stateMutability": "view",
      "type": "function"
    },
    {
      "inputs": [],
      "name": "frozenOracle",
      "outputs": [
        {
          "internalType": "address",
          "name": "",
          "type": "address"
        }
      ],
      "stateMutability": "view",
      "type": "function"
    },
    {
      "inputs": [],
      "name": "gaiaToken",
      "outputs": [
        {
          "internalType": "address",
          "name": "",
          "type": "address"
        }
      ],
      "stateMutability": "view",
      "type": "function"
    },
    {
      "inputs": [],
      "name": "genesisTimestamp",
      "outputs": [
        {
          "internalType": "uint256",
          "name": "",
          "type": "uint256"
        }
      ],
      "stateMutability": "view",
      "type": "function"
    },
    {
      "inputs": [],
      "name": "pause",
      "outputs": [],
      "stateMutability": "nonpayable",
      "type": "function"
    },
    {
      "inputs": [],
      "name": "paused",
      "outputs": [
        {
          "internalType": "bool",
          "name": "",
          "type": "bool"
        }
      ],
      "stateMutability": "view",
      "type": "function"
    },
    {
      "inputs": [],
      "name": "protocolInfo",
      "outputs": [
        {
          "components": [
            {
              "internalType": "string",
              "name": "name",
              "type": "string"
            },
            {
              "internalType": "string",
              "name": "version",
              "type": "string"
            },
            {
              "internalType": "string",
              "name": "mission",
              "type": "string"
            },
            {
              "internalType": "address",
              "name": "gaiaToken",
              "type": "address"
            },
            {
              "internalType": "address",
              "name": "convictionVoting",
              "type": "address"
            },
            {
              "internalType": "address",
              "name": "frozenOracle",
              "type": "address"
            },
            {
              "internalType": "address",
              "name": "taskRegistry",
              "type": "address"
            },
            {
              "internalType": "address",
              "name": "validationPool",
              "type": "address"
            },
            {
              "internalType": "address",
              "name": "rewardDistributor",
              "type": "address"
            },
            {
              "internalType": "address",
              "name": "timeLock",
              "type": "address"
            },
            {
              "internalType": "uint256",
              "name": "genesisTimestamp",
              "type": "uint256"
            },
            {
              "internalType": "bool",
              "name": "paused",
              "type": "bool"
            }
          ],
          "internalType": "struct GAIAProtocol.ProtocolInfo",
          "name": "",
          "type": "tuple"
        }
      ],
      "stateMutability": "view",
      "type": "function"
    },
    {
      "inputs": [],
      "name": "rewardDistributor",
      "outputs": [
        {
          "internalType": "address",
          "name": "",
          "type": "address"
        }
      ],
      "stateMutability": "view",
      "type": "function"
    },
    {
      "inputs": [],
      "name": "taskRegistry",
      "outputs": [
        {
          "internalType": "address",
          "name": "",
          "type": "address"
        }
      ],
      "stateMutability": "view",
      "type": "function"
    },
    {
      "inputs": [],
      "name": "timeLock",
      "outputs": [
        {
          "internalType": "address",
          "name": "",
          "type": "address"
        }
      ],
      "stateMutability": "view",
      "type": "function"
    },
    {
      "inputs": [],
      "name": "unpause",
      "outputs": [],
      "stateMutability": "nonpayable",
      "type": "function"
    },
    {
      "inputs": [],
      "name": "validationPool",
      "outputs": [
        {
          "internalType": "address",
          "name": "",
          "type": "address"
        }
      ],
      "stateMutability": "view",
      "type": "function"
    }
  ],
  "bytecode": "0x61018060405234801562000011575f80fd5b5060405162000cda38038062000cda83398101604081905262000034916200032a565b6001600160a01b038716620000855760405162461bcd60e51b815260206004820152601260248201527123a81d103d32b9379033b0b4b0aa37b5b2b760711b60448201526064015b60405180910390fd5b6001600160a01b038616620000dd5760405162461bcd60e51b815260206004820152601960248201527f47503a207a65726f20636f6e76696374696f6e566f74696e670000000000000060448201526064016200007c565b6001600160a01b038516620001355760405162461bcd60e51b815260206004820152601560248201527f47503a207a65726f2066726f7a656e4f7261636c65000000000000000000000060448201526064016200007c565b6001600160a01b0384166200018d5760405162461bcd60e51b815260206004820152601560248201527f47503a207a65726f207461736b5265676973747279000000000000000000000060448201526064016200007c565b6001600160a01b038316620001e55760405162461bcd60e51b815260206004820152601760248201527f47503a207a65726f2076616c69646174696f6e506f6f6c00000000000000000060448201526064016200007c565b6001600160a01b0382166200023d5760405162461bcd60e51b815260206004820152601a60248201527f47503a207a65726f207265776172644469737472696275746f7200000000000060448201526064016200007c565b6001600160a01b038116620002895760405162461bcd60e51b815260206004820152601160248201527047503a207a65726f2074696d654c6f636b60781b60448201526064016200007c565b6001600160a01b03878116608081905287821660a05286821660c05285821660e08190528583166101008190528584166101205292841661014052426101608190526040519081529091907f2149f354c92e773a0e4ba2fe4134bd78ab72ab0ea833c9666f5c76115e66bb249060200160405180910390a450505050505050620003ba565b80516001600160a01b038116811462000325575f80fd5b919050565b5f805f805f805f60e0888a03121562000341575f80fd5b6200034c886200030e565b96506200035c602089016200030e565b95506200036c604089016200030e565b94506200037c606089016200030e565b93506200038c608089016200030e565b92506200039c60a089016200030e565b9150620003ac60c089016200030e565b905092959891949750929550565b60805160a05160c05160e0516101005161012051610140516101605161087f6200045b5f395f818161029f015261065301525f81816102d4015261062c01525f8181610278015261060401525f818161020601526105dc01525f818161022d01526105b401525f8181610177015261058c01525f81816101ba01528181610301015281816103b7015261056401525f818160f9015261053c015261087f5ff3fe608060405234801561000f575f80fd5b50600436106100f0575f3560e01c806386160cf111610093578063aa3aa46011610063578063aa3aa4601461024f578063acc2166a14610273578063cacf66ab1461029a578063d085835a146102cf575f80fd5b806386160cf1146101e457806393420cf4146101ec5780639b7242e0146102015780639e498f1614610228575f80fd5b806359e71f1a116100ce57806359e71f1a146101725780635c975abb146101995780638315fddd146101b55780638456cb59146101dc575f80fd5b806324009b78146100f45780632860ff75146101385780633f4ba83a14610168575b5f80fd5b61011b7f000000000000000000000000000000000000000000000000000000000000000081565b6040516001600160a01b0390911681526020015b60405180910390f35b61015b604051806040016040528060048152602001634741494160e01b81525081565b60405161012f91906106ce565b6101706102f6565b005b61011b7f000000000000000000000000000000000000000000000000000000000000000081565b5f546101a59060ff1681565b604051901515815260200161012f565b61011b7f000000000000000000000000000000000000000000000000000000000000000081565b6101706103ac565b61015b61045a565b6101f4610476565b60405161012f91906106e7565b61011b7f000000000000000000000000000000000000000000000000000000000000000081565b61011b7f000000000000000000000000000000000000000000000000000000000000000081565b61015b604051806040016040528060058152602001640312e302e360dc1b81525081565b61011b7f000000000000000000000000000000000000000000000000000000000000000081565b6102c17f000000000000000000000000000000000000000000000000000000000000000081565b60405190815260200161012f565b61011b7f000000000000000000000000000000000000000000000000000000000000000081565b336001600160a01b037f000000000000000000000000000000000000000000000000000000000000000016146103685760405162461bcd60e51b815260206004820152601260248201527147503a206e6f7420676f7665726e616e636560701b60448201526064015b60405180910390fd5b5f805460ff19169055604080513381524260208201527f50e82b04447e2049154240bb4d02c9c667bb6ae7108dbd70a0216cc4cf693fdd91015b60405180910390a1565b336001600160a01b037f000000000000000000000000000000000000000000000000000000000000000016146104195760405162461bcd60e51b815260206004820152601260248201527147503a206e6f7420676f7665726e616e636560701b604482015260640161035f565b5f805460ff19166001179055604080513381524260208201527f2eb4e5caaa282d0e5b47f84e2fafa6723f1ecc7ed42d9b5d8f63d0962286c7ae91016103a2565b6040518060600160405280603881526020016108126038913981565b604080516101808082018352606080835260208084018290528385018290525f8285018190526080850181905260a0850181905260c0850181905260e0850181905261010085018190526101208501819052610140850181905261016085015284516101c0810186526004938101938452634741494160e01b6101a08201529283528451808601865260058152640312e302e360dc1b81830152838201528451918201855260388083529394929392840192906108129083013981526001600160a01b037f0000000000000000000000000000000000000000000000000000000000000000811660208301527f0000000000000000000000000000000000000000000000000000000000000000811660408301527f0000000000000000000000000000000000000000000000000000000000000000811660608301527f0000000000000000000000000000000000000000000000000000000000000000811660808301527f0000000000000000000000000000000000000000000000000000000000000000811660a08301527f0000000000000000000000000000000000000000000000000000000000000000811660c08301527f00000000000000000000000000000000000000000000000000000000000000001660e08201527f00000000000000000000000000000000000000000000000000000000000000006101008201525f5460ff16151561012090910152919050565b5f81518084525f5b818110156106af57602081850181015186830182015201610693565b505f602082860101526020601f19601f83011685010191505092915050565b602081525f6106e0602083018461068b565b9392505050565b602081525f82516101808060208501526107056101a085018361068b565b91506020850151601f1980868503016040870152610723848361068b565b9350604087015191508086850301606087015250610741838261068b565b925050606085015161075e60808601826001600160a01b03169052565b5060808501516001600160a01b03811660a08601525060a08501516001600160a01b03811660c08601525060c08501516001600160a01b03811660e08601525060e08501516101006107ba818701836001600160a01b03169052565b86015190506101206107d6868201836001600160a01b03169052565b86015190506101406107f2868201836001600160a01b03169052565b860151610160868101919091529095015115159301929092525091905056fe52656d6f76652074686520747275737420726571756972656d656e742066726f6d20656e7669726f6e6d656e74616c20636f6d707574652ea264697066735822122047b83479ebb37ca49043be5177159b07a94441b05ac87316f5e2d64b0867026064736f6c63430008180033",
  "linkReferences": {},
  "deployedLinkReferences": {}
}