{
  "_format": "hh-sol-artifact-1",
  "contractName": "MockRewardDistributor",
  "sourceName": "contracts/mocks/MockRewardDistributor.sol",
  "abi": [
    {
      "inputs": [
        {
          "internalType": "uint256",
          "name": "taskId",
          "type": "uint256"
        },
        {
          "internalType": "address[]",
          "name": "miners",
          "type": "address[]"
        }
      ],
      "name": "distributePublicGoodBonus",
      "outputs": [],
      "stateMutability": "nonpayable",
      "type": "function"
    },
    {
      "inputs": [
        {
          "internalType": "uint256",
          "name": "taskId",
          "type": "uint256"
        },
        {
          "internalType": "uint256",
          "name": "totalReward",
          "type": "uint256"
        },
        {
          "internalType": "address[]",
          "name": "winners",
          "type": "address[]"
        }
      ],
      "name": "distributeRewards",
      "outputs": [],
      "stateMutability": "nonpayable",
      "type": "function"
    }
  ],
  "bytecode": "0x608060405234801561000f575f80fd5b506101768061001d5f395ff3fe608060405234801561000f575f80fd5b5060043610610034575f3560e01c80632a53b2f71461003857806365d9fbc11461004d575b5f80fd5b61004b6100463660046100a9565b505050565b005b61004b61005b3660046100f1565b50505050565b5f8083601f840112610071575f80fd5b50813567ffffffffffffffff811115610088575f80fd5b6020830191508360208260051b85010111156100a2575f80fd5b9250929050565b5f805f604084860312156100bb575f80fd5b83359250602084013567ffffffffffffffff8111156100d8575f80fd5b6100e486828701610061565b9497909650939450505050565b5f805f8060608587031215610104575f80fd5b8435935060208501359250604085013567ffffffffffffffff811115610128575f80fd5b61013487828801610061565b9598949750955050505056fea2646970667358221220e0295b6b429c014242c1df0d8d828d12e8d02987bcf7aa21424429f726f21a7f64736f6c63430008180033",
  "linkReferences": {},
  "deployedLinkReferences": {}
}