{"contracts/mocks/MockRewardDistributor.sol":{"MockRewardDistributor":{"abi":[{"inputs":[{"internalType":"uint256","name":"taskId","type":"uint256"},{"internalType":"address[]","name":"miners","type":"address[]"}],"name":"distributePublicGoodBonus","outputs":[],"stateMutability":"nonpayable","type":"function"},{"inputs":[{"internalType":"uint256","name":"taskId","type":"uint256"},{"internalType":"uint256","name":"totalReward","type":"uint256"},{"internalType":"address[]","name":"winners","type":"address[]"}],"name":"distributeRewards","outputs":[],"stateMutability":"nonpayable","type":"function"}],"evm":{"bytecode":{"linkReferences":{},"object":"608060405234801561000f575f80fd5b506101768061001d5f395ff3fe608060405234801561000f575f80fd5b5060043610610034575f3560e01c80632a53b2f71461003857806365d9fbc11461004d575b5f80fd5b61004b6100463660046100a9565b505050565b005b61004b61005b3660046100f1565b50505050565b5f8083601f840112610071575f80fd5b50813567ffffffffffffffff811115610088575f80fd5b6020830191508360208260051b85010111156100a2575f80fd5b9250929050565b5f805f604084860312156100bb575f80fd5b83359250602084013567ffffffffffffffff8111156100d8575f80fd5b6100e486828701610061565b9497909650939450505050565b5f805f8060608587031215610104575f80fd5b8435935060208501359250604085013567ffffffffffffffff811115610128575f80fd5b61013487828801610061565b9598949750955050505056fea2646970667358221220e0295b6b429c014242c1df0d8d828d12e8d02987bcf7aa21424429f726f21a7f64736f6c63430008180033","opcodes":"PUSH1 0x80 PUSH1 0x40 MSTORE CALLVALUE DUP1 ISZERO PUSH2 0xF JUMPI PUSH0 DUP1 REVERT JUMPDEST POP PUSH2 0x176 DUP1 PUSH2 0x1D PUSH0 CODECOPY PUSH0 RETURN INVALID PUSH1 0x80 PUSH1 0x40 MSTORE CALLVALUE DUP1 ISZERO PUSH2 0xF JUMPI PUSH0 DUP1 REVERT JUMPDEST POP PUSH1 0x4 CALLDATASIZE LT PUSH2 0x34 JUMPI PUSH0 CALLDATALOAD PUSH1 0xE0 SHR DUP1 PUSH4 0x2A53B2F7 EQ PUSH2 0x38 JUMPI DUP1 PUSH4 0x65D9FBC1 EQ PUSH2 0x4D JUMPI JUMPDEST PUSH0 DUP1 REVERT JUMPDEST PUSH2 0x4B PUSH2 0x46 CALLDATASIZE PUSH1 0x4 PUSH2 0xA9 JUMP JUMPDEST POP POP POP JUMP JUMPDEST STOP JUMPDEST PUSH2 0x4B PUSH2 0x5B CALLDATASIZE PUSH1 0x4 PUSH2 0xF1 JUMP JUMPDEST POP POP POP POP JUMP JUMPDEST PUSH0 DUP1 DUP4 PUSH1 0x1F DUP5 ADD SLT PUSH2 0x71 JUMPI PUSH0 DUP1 REVERT JUMPDEST POP DUP2 CALLDATALOAD PUSH8 0xFFFFFFFFFFFFFFFF DUP2 GT ISZERO PUSH2 0x88 JUMPI PUSH0 DUP1 REVERT JUMPDEST PUSH1 0x20 DUP4 ADD SWAP2 POP DUP4 PUSH1 0x20 DUP3 PUSH1 0x5 SHL DUP6 ADD ADD GT ISZERO PUSH2 0xA2 JUMPI PUSH0 DUP1 REVERT JUMPDEST SWAP3 POP SWAP3 SWAP1 POP JUMP JUMPDEST PUSH0 DUP1 PUSH0 PUSH1 0x40 DUP5 DUP7 SUB SLT ISZERO PUSH2 0xBB JUMPI PUSH0 DUP1 REVERT JUMPDEST DUP4 CALLDATALOAD SWAP3 POP PUSH1 0x20 DUP5 ADD CALLDATALOAD PUSH8 0xFFFFFFFFFFFFFFFF DUP2 GT ISZERO PUSH2 0xD8 JUMPI PUSH0 DUP1 REVERT JUMPDEST PUSH2 0xE4 DUP7 DUP3 DUP8 ADD PUSH2 0x61 JUMP JUMPDEST SWAP5 SWAP8 SWAP1 SWAP7 POP SWAP4 SWAP5 POP POP POP POP JUMP JUMPDEST PUSH0 DUP1 PUSH0 DUP1 PUSH1 0x60 DUP6 DUP8 SUB SLT ISZERO PUSH2 0x104 JUMPI PUSH0 DUP1 REVERT JUMPDEST DUP5 CALLDATALOAD SWAP4 POP PUSH1 0x20 DUP6 ADD CALLDATALOAD SWAP3 POP PUSH1 0x40 DUP6 ADD CALLDATALOAD PUSH8 0xFFFFFFFFFFFFFFFF DUP2 GT ISZERO PUSH2 0x128 JUMPI PUSH0 DUP1 REVERT JUMPDEST PUSH2 0x134 DUP8 DUP3 DUP9 ADD PUSH2 0x61 JUMP JUMPDEST SWAP6 SWAP9 SWAP5 SWAP8 POP SWAP6 POP POP POP POP JUMP INVALID LOG2 PUSH5 0x6970667358 0x22 SLT KECCAK256 0xE0 0x29 JUMPDEST PUSH12 0x429C014242C1DF0D8D828D12 0xE8 0xD0 0x29 DUP8 0xBC 0xF7 0xAA 0x21 TIMESTAMP PREVRANDAO 0x29 0xF7 0x26 CALLCODE BYTE PUSH32 0x64736F6C63430008180033000000000000000000000000000000000000000000 "},"methodIdentifiers":{"distributePublicGoodBonus(uint256,address[])":"2a53b2f7","distributeRewards(uint256,uint256,address[])":"65d9fbc1"}}}}}