{"contracts/ConvictionVoting.sol":{"ConvictionVoting":{"abi":[{"inputs":[{"internalType":"address","name":"_gaiaToken","type":"address"}],"stateMutability":"nonpayable","type":"constructor"},{"inputs":[{"internalType":"uint256","name":"currentProposal","type":"uint256"}],"name":"AlreadyVotingOnDifferentProposal","type":"error"},{"inputs":[{"internalType":"uint256","name":"proposalId","type":"uint256"},{"internalType":"uint256","name":"blocksRemaining","type":"uint256"}],"name":"ConvictionNotMature","type":"error"},{"inputs":[{"internalType":"uint256","name":"proposalId","type":"uint256"}],"name":"ExecutionFailed","type":"error"},{"inputs":[],"name":"NotEnoughTokensLocked","type":"error"},{"inputs":[{"internalType":"uint256","name":"proposalId","type":"uint256"}],"name":"ProposalNotActive","type":"error"},{"inputs":[{"internalType":"uint256","name":"proposalId","type":"uint256"}],"name":"ProposalNotPassed","type":"error"},{"inputs":[],"name":"ReentrancyGuardReentrantCall","type":"error"},{"anonymous":false,"inputs":[{"indexed":true,"internalType":"uint256","name":"proposalId","type":"uint256"},{"indexed":true,"internalType":"address","name":"voter","type":"address"},{"indexed":false,"internalType":"uint256","name":"newConviction","type":"uint256"},{"indexed":false,"internalType":"uint256","name":"totalProposalConviction","type":"uint256"}],"name":"ConvictionUpdated","type":"event"},{"anonymous":false,"inputs":[{"indexed":true,"internalType":"uint256","name":"proposalId","type":"uint256"},{"indexed":true,"internalType":"address","name":"proposer","type":"address"},{"indexed":false,"internalType":"enum ConvictionVoting.ProposalType","name":"proposalType","type":"uint8"},{"indexed":false,"internalType":"string","name":"title","type":"string"},{"indexed":false,"internalType":"uint256","name":"requiredConviction","type":"uint256"}],"name":"ProposalCreated","type":"event"},{"anonymous":false,"inputs":[{"indexed":true,"internalType":"uint256","name":"proposalId","type":"uint256"}],"name":"ProposalExecuted","type":"event"},{"anonymous":false,"inputs":[{"indexed":true,"internalType":"uint256","name":"proposalId","type":"uint256"},{"indexed":false,"internalType":"uint256","name":"conviction","type":"uint256"}],"name":"ProposalPassed","type":"event"},{"anonymous":false,"inputs":[{"indexed":true,"internalType":"uint256","name":"proposalId","type":"uint256"}],"name":"ProposalRejected","type":"event"},{"anonymous":false,"inputs":[{"indexed":true,"internalType":"address","name":"voter","type":"address"},{"indexed":false,"internalType":"uint256","name":"amount","type":"uint256"}],"name":"TokensLocked","type":"event"},{"anonymous":false,"inputs":[{"indexed":true,"internalType":"address","name":"voter","type":"address"},{"indexed":false,"internalType":"uint256","name":"amount","type":"uint256"}],"name":"TokensUnlocked","type":"event"},{"inputs":[],"name":"BPS_DENOMINATOR","outputs":[{"internalType":"uint256","name":"","type":"uint256"}],"stateMutability":"view","type":"function"},{"inputs":[],"name":"DECAY_DENOMINATOR","outputs":[{"internalType":"uint256","name":"","type":"uint256"}],"stateMutability":"view","type":"function"},{"inputs":[],"name":"DECAY_NUMERATOR","outputs":[{"internalType":"uint256","name":"","type":"uint256"}],"stateMutability":"view","type":"function"},{"inputs":[],"name":"EMERGENCY_QUORUM_BPS","outputs":[{"internalType":"uint256","name":"","type":"uint256"}],"stateMutability":"view","type":"function"},{"inputs":[],"name":"MAX_CONVICTION_PER_TOKEN","outputs":[{"internalType":"uint256","name":"","type":"uint256"}],"stateMutability":"view","type":"function"},{"inputs":[],"name":"MIN_CONVICTION_BLOCKS","outputs":[{"internalType":"uint256","name":"","type":"uint256"}],"stateMutability":"view","type":"function"},{"inputs":[],"name":"ORACLE_QUORUM_BPS","outputs":[{"internalType":"uint256","name":"","type":"uint256"}],"stateMutability":"view","type":"function"},{"inputs":[],"name":"STANDARD_QUORUM_BPS","outputs":[{"internalType":"uint256","name":"","type":"uint256"}],"stateMutability":"view","type":"function"},{"inputs":[{"internalType":"uint256","name":"proposalId","type":"uint256"}],"name":"allocateConviction","outputs":[],"stateMutability":"nonpayable","type":"function"},{"inputs":[{"internalType":"enum ConvictionVoting.ProposalType","name":"proposalType_","type":"uint8"},{"internalType":"string","name":"title","type":"string"},{"internalType":"string","name":"description","type":"string"},{"internalType":"address","name":"targetContract","type":"address"},{"internalType":"bytes","name":"callData_","type":"bytes"}],"name":"createProposal","outputs":[{"internalType":"uint256","name":"proposalId","type":"uint256"}],"stateMutability":"nonpayable","type":"function"},{"inputs":[{"internalType":"uint256","name":"proposalId","type":"uint256"}],"name":"executeProposal","outputs":[],"stateMutability":"nonpayable","type":"function"},{"inputs":[],"name":"gaiaToken","outputs":[{"internalType":"contract IERC20","name":"","type":"address"}],"stateMutability":"view","type":"function"},{"inputs":[{"internalType":"uint256","name":"proposalId","type":"uint256"}],"name":"getProposal","outputs":[{"components":[{"internalType":"uint256","name":"proposalId","type":"uint256"},{"internalType":"address","name":"proposer","type":"address"},{"internalType":"enum ConvictionVoting.ProposalType","name":"proposalType","type":"uint8"},{"internalType":"enum ConvictionVoting.ProposalStatus","name":"status","type":"uint8"},{"internalType":"string","name":"title","type":"string"},{"internalType":"string","name":"description","type":"string"},{"internalType":"bytes","name":"callData","type":"bytes"},{"internalType":"address","name":"targetContract","type":"address"},{"internalType":"uint256","name":"totalConviction","type":"uint256"},{"internalType":"uint256","name":"createdAt","type":"uint256"},{"internalType":"uint256","name":"lastUpdated","type":"uint256"},{"internalType":"uint256","name":"requiredConviction","type":"uint256"},{"internalType":"bool","name":"executed","type":"bool"}],"internalType":"struct ConvictionVoting.Proposal","name":"","type":"tuple"}],"stateMutability":"view","type":"function"},{"inputs":[{"internalType":"uint256","name":"proposalId","type":"uint256"}],"name":"getProposalProgress","outputs":[{"internalType":"uint256","name":"current","type":"uint256"},{"internalType":"uint256","name":"required","type":"uint256"},{"internalType":"uint256","name":"percentBps","type":"uint256"}],"stateMutability":"view","type":"function"},{"inputs":[{"internalType":"address","name":"voter","type":"address"}],"name":"getVoterConviction","outputs":[{"internalType":"uint256","name":"","type":"uint256"}],"stateMutability":"view","type":"function"},{"inputs":[{"internalType":"uint256","name":"amount","type":"uint256"}],"name":"lockTokens","outputs":[],"stateMutability":"nonpayable","type":"function"},{"inputs":[],"name":"proposalCounter","outputs":[{"internalType":"uint256","name":"","type":"uint256"}],"stateMutability":"view","type":"function"},{"inputs":[{"internalType":"uint256","name":"","type":"uint256"},{"internalType":"uint256","name":"","type":"uint256"}],"name":"proposalVoters","outputs":[{"internalType":"address","name":"","type":"address"}],"stateMutability":"view","type":"function"},{"inputs":[{"internalType":"uint256","name":"","type":"uint256"}],"name":"proposals","outputs":[{"internalType":"uint256","name":"proposalId","type":"uint256"},{"internalType":"address","name":"proposer","type":"address"},{"internalType":"enum ConvictionVoting.ProposalType","name":"proposalType","type":"uint8"},{"internalType":"enum ConvictionVoting.ProposalStatus","name":"status","type":"uint8"},{"internalType":"string","name":"title","type":"string"},{"internalType":"string","name":"description","type":"string"},{"internalType":"bytes","name":"callData","type":"bytes"},{"internalType":"address","name":"targetContract","type":"address"},{"internalType":"uint256","name":"totalConviction","type":"uint256"},{"internalType":"uint256","name":"createdAt","type":"uint256"},{"internalType":"uint256","name":"lastUpdated","type":"uint256"},{"internalType":"uint256","name":"requiredConviction","type":"uint256"},{"internalType":"bool","name":"executed","type":"bool"}],"stateMutability":"view","type":"function"},{"inputs":[],"name":"totalGlobalConviction","outputs":[{"internalType":"uint256","name":"","type":"uint256"}],"stateMutability":"view","type":"function"},{"inputs":[],"name":"totalLockedTokens","outputs":[{"internalType":"uint256","name":"","type":"uint256"}],"stateMutability":"view","type":"function"},{"inputs":[{"internalType":"uint256","name":"amount","type":"uint256"}],"name":"unlockTokens","outputs":[],"stateMutability":"nonpayable","type":"function"},{"inputs":[{"internalType":"address","name":"","type":"address"}],"name":"voterStates","outputs":[{"internalType":"uint256","name":"lockedTokens","type":"uint256"},{"internalType":"uint256","name":"conviction","type":"uint256"},{"internalType":"uint256","name":"lastBlock","type":"uint256"},{"internalType":"uint256","name":"votedProposal","type":"uint256"}],"stateMutability":"view","type":"function"},{"inputs":[{"internalType":"uint256","name":"proposalId","type":"uint256"}],"name":"withdrawConviction","outputs":[],"stateMutability":"nonpayable","type":"function"}],"evm":{"bytecode":{"linkReferences":{},"object":"60a060405234801561000f575f80fd5b5060405162001e7038038062001e70833981016040819052610030916100b4565b60017f9b779b17422d0df92223018b32b4d1fa46e071723d6817e2486d003becc55f00556001600160a01b0381166100a35760405162461bcd60e51b815260206004820152601260248201527121ab1d103d32b9379033b0b4b0aa37b5b2b760711b604482015260640160405180910390fd5b6001600160a01b03166080526100e1565b5f602082840312156100c4575f80fd5b81516001600160a01b03811681146100da575f80fd5b9392505050565b608051611d68620001085f395f818161021201528181610c1c0152610f2f0152611d685ff3fe608060405234801561000f575f80fd5b5060043610610153575f3560e01c80637a5a5786116100bf578063ab89437c11610079578063ab89437c14610319578063ad14a23c1461032c578063c7f758a81461033f578063e1a4521814610268578063f5c476f91461035f578063fd24f83414610368575f80fd5b80637a5a5786146102a95780637c405325146102bc57806381b2619e146102cf578063914897f4146102d9578063995c37d6146103075780639bfc350014610310575f80fd5b80633b904c51116101105780633b904c51146102555780633f25575f146102685780634150e034146102715780635bb3e1d51461027a5780636e27d8891461028d57806370349cba146102a0575f80fd5b8063013cf08b146101575780630b5e450f1461018c5780630c0512e9146101e25780630d61b519146101f857806324009b781461020d578063298901671461024c575b5f80fd5b61016a6101653660046116a6565b610371565b6040516101839d9c9b9a99989796959493929190611738565b60405180910390f35b6101c261019a366004611812565b600260208190525f918252604090912080546001820154928201546003909201549092919084565b604080519485526020850193909352918301526060820152608001610183565b6101ea5f5481565b604051908152602001610183565b61020b6102063660046116a6565b610585565b005b6102347f000000000000000000000000000000000000000000000000000000000000000081565b6040516001600160a01b039091168152602001610183565b6101ea619d8081565b61020b6102633660046116a6565b610720565b6101ea61271081565b6101ea60055481565b6101ea610288366004611877565b6107da565b61020b61029b3660046116a6565b610bb1565b6101ea61232881565b6101ea6102b7366004611812565b610d69565b61020b6102ca3660046116a6565b610dbd565b6101ea620f424081565b6102ec6102e73660046116a6565b610fd4565b60408051938452602084019290925290820152606001610183565b6101ea610ce481565b6101ea611d4c81565b610234610327366004611932565b61101a565b61020b61033a3660046116a6565b61104e565b61035261034d3660046116a6565b611256565b6040516101839190611952565b6101ea60045481565b6101ea61270f81565b600160208190525f91825260409091208054918101546002820180546001600160a01b0383169360ff600160a01b8504811694600160a81b9004169290916103b890611a5c565b80601f01602080910402602001604051908101604052809291908181526020018280546103e490611a5c565b801561042f5780601f106104065761010080835404028352916020019161042f565b820191905f5260205f20905b81548152906001019060200180831161041257829003601f168201915b50505050509080600301805461044490611a5c565b80601f016020809104026020016040519081016040528092919081815260200182805461047090611a5c565b80156104bb5780601f10610492576101008083540402835291602001916104bb565b820191905f5260205f20905b81548152906001019060200180831161049e57829003601f168201915b5050505050908060040180546104d090611a5c565b80601f01602080910402602001604051908101604052809291908181526020018280546104fc90611a5c565b80156105475780601f1061051e57610100808354040283529160200191610547565b820191905f5260205f20905b81548152906001019060200180831161052a57829003601f168201915b50505060058401546006850154600786015460088701546009880154600a9098015496976001600160a01b0390941696929550909350919060ff168d565b61058d611566565b5f818152600160208190526040909120906001820154600160a81b900460ff1660048111156105be576105be6116bd565b146105e457604051632890d12160e21b8152600481018390526024015b60405180910390fd5b5f8160070154436105f59190611aa8565b9050619d80811015610630578261060e82619d80611aa8565b604051634244064f60e01b8152600481019290925260248201526044016105db565b6001828101805460ff60a81b1916600360a81b179055600a8301805460ff1916909117905560058201546040515f916001600160a01b031690610677906004860190611abb565b5f604051808303815f865af19150503d805f81146106b0576040519150601f19603f3d011682016040523d82523d5f602084013e6106b5565b606091505b50509050806106da57604051632497eb8760e11b8152600481018590526024016105db565b60405184907f712ae1383f79ac853f8d882153778e0260ef8f03b504e2866e0593e04d2b291f905f90a250505061071d60015f80516020611d1383398151915255565b50565b335f908152600260205260409020600381015482146107815760405162461bcd60e51b815260206004820152601f60248201527f43563a206e6f7420766f74696e67206f6e20746869732070726f706f73616c0060448201526064016105db565b6001808201545f8481526020929092526040909120600601548181116107a7575f6107b1565b6107b18282611aa8565b5f9485526001602081905260408620600601919091558301849055505043600282015560030155565b335f908152600260205260408120546108355760405162461bcd60e51b815260206004820152601a60248201527f43563a206d757374206c6f636b20746f6b656e7320666972737400000000000060448201526064016105db565b866108745760405162461bcd60e51b815260206004820152600f60248201526e43563a20656d707479207469746c6560881b60448201526064016105db565b5f80815461088190611b2d565b918290555090505f60028a600381111561089d5761089d6116bd565b036108ab57506123286108d2565b60038a60038111156108bf576108bf6116bd565b036108cd5750611d4c6108d2565b50610ce45b5f620f42406004546108e49190611b45565b90505f6127106108f48484611b45565b6108fe9190611b5c565b604080516101a08101825286815233602082015291925081018d6003811115610929576109296116bd565b81526020015f81526020018c8c8080601f0160208091040260200160405190810160405280939291908181526020018383808284375f92019190915250505090825250604080516020601f8d018190048102820181019092528b815291810191908c908c90819084018382808284375f92019190915250505090825250604080516020601f8a01819004810282018101909252888152918101919089908990819084018382808284375f9201829052509385525050506001600160a01b03808b1660208085019190915260408085018490524360608601819052608086015260a0850187905260c090940183905288835260018082529284902085518155908501519281018054939092166001600160a01b031984168117835593850151909390926001600160a81b03191617600160a01b836003811115610a6d57610a6d6116bd565b0217905550606082015160018201805460ff60a81b1916600160a81b836004811115610a9b57610a9b6116bd565b021790555060808201516002820190610ab49082611bdb565b5060a08201516003820190610ac99082611bdb565b5060c08201516004820190610ade9082611bdb565b5060e0820151816005015f6101000a8154816001600160a01b0302191690836001600160a01b03160217905550610100820151816006015561012082015181600701556101408201518160080155610160820151816009015561018082015181600a015f6101000a81548160ff021916908315150217905550905050336001600160a01b0316847f2160cbf9d326719dd2cc1be7c9b9c511051b9228f9b3edc8fe58aed7d44fdac38e8e8e86604051610b9a9493929190611c9b565b60405180910390a350505098975050505050505050565b610bb9611566565b5f8111610bfa5760405162461bcd60e51b815260206004820152600f60248201526e10d58e881e995c9bc8185b5bdd5b9d608a1b60448201526064016105db565b6040516323b872dd60e01b8152336004820152306024820152604481018290527f00000000000000000000000000000000000000000000000000000000000000006001600160a01b0316906323b872dd906064016020604051808303815f875af1158015610c6a573d5f803e3d5ffd5b505050506040513d601f19601f82011682018060405250810190610c8e9190611ce0565b50335f9081526002602081905260409091209081015415610ce65760408051608081018252825481526001830154602082015260028301549181019190915260038201546060820152610ce090611581565b60018201555b81815f015f828254610cf89190611cff565b9091555050436002820155600480548391905f90610d17908490611cff565b909155505060405182815233907fac87f20a77d28ee8bbb58ec87ea8fa968b3393efae1a368fd50b767c2847391c906020015b60405180910390a25061071d60015f80516020611d1383398151915255565b6001600160a01b0381165f90815260026020818152604080842081516080810183528154815260018201549381019390935292830154908201526003909101546060820152610db790611581565b92915050565b610dc5611566565b335f9081526002602052604090208054821115610e245760405162461bcd60e51b815260206004820152601760248201527f43563a20696e73756666696369656e74206c6f636b656400000000000000000060448201526064016105db565b600381015415610e765760405162461bcd60e51b815260206004820152601e60248201527f43563a2063616e6e6f7420756e6c6f636b207768696c6520766f74696e67000060448201526064016105db565b60408051608081018252825481526001830154602082015260028301549181019190915260038201546060820152610ead90611581565b60018201558054610ebe8382611aa8565b8260010154610ecd9190611b45565b610ed79190611b5c565b60018201558054829082905f90610eef908490611aa8565b9091555050436002820155600480548391905f90610f0e908490611aa8565b909155505060405163a9059cbb60e01b8152336004820152602481018390527f00000000000000000000000000000000000000000000000000000000000000006001600160a01b03169063a9059cbb906044016020604051808303815f875af1158015610f7d573d5f803e3d5ffd5b505050506040513d601f19601f82011682018060405250810190610fa19190611ce0565b5060405182815233907fe7b379c6c1fa169e9079c25e9143b127637eef8ec8c9d5c06ddb4ab3e119588890602001610d4a565b5f818152600160205260408120600681015460098201549092909182610ffa575f611011565b8261100761271086611b45565b6110119190611b5c565b93959294505050565b6003602052815f5260405f208181548110611033575f80fd5b5f918252602090912001546001600160a01b03169150829050565b5f8111801561105e57505f548111155b6110aa5760405162461bcd60e51b815260206004820152601b60248201527f43563a2070726f706f73616c20646f6573206e6f74206578697374000000000060448201526064016105db565b5f818152600160205260408120906001820154600160a81b900460ff1660048111156110d8576110d86116bd565b146110f9576040516344980d8f60e01b8152600481018390526024016105db565b335f908152600260205260408120805490910361112957604051630381177960e01b815260040160405180910390fd5b600381015415801590611140575082816003015414155b156111665780600301546040516348e1703f60e01b81526004016105db91815260200190565b604080516080810182528254815260018301546020820152600283015491810191909152600382015460608201525f9061119f90611581565b600183018190554360028401556003830185905560068401805491925082915f906111cb908490611cff565b90915550504360088401555f84815260036020908152604080832080546001810182559084529282902090920180546001600160a01b0319163390811790915560068601548351858152928301529186917f01c1428ce38ed044320c623421a5e5d4d149e81c8dd4e7d8b1919c270bf7bba8910160405180910390a361125084611605565b50505050565b6112c4604080516101a0810182525f80825260208201819052909182019081526020015f81526020016060815260200160608152602001606081526020015f6001600160a01b031681526020015f81526020015f81526020015f81526020015f81526020015f151581525090565b5f8281526001602081815260409283902083516101a08101855281548152928101546001600160a01b038116928401929092529192830190600160a01b900460ff166003811115611317576113176116bd565b6003811115611328576113286116bd565b81526020016001820160159054906101000a900460ff166004811115611350576113506116bd565b6004811115611361576113616116bd565b815260200160028201805461137590611a5c565b80601f01602080910402602001604051908101604052809291908181526020018280546113a190611a5c565b80156113ec5780601f106113c3576101008083540402835291602001916113ec565b820191905f5260205f20905b8154815290600101906020018083116113cf57829003601f168201915b5050505050815260200160038201805461140590611a5c565b80601f016020809104026020016040519081016040528092919081815260200182805461143190611a5c565b801561147c5780601f106114535761010080835404028352916020019161147c565b820191905f5260205f20905b81548152906001019060200180831161145f57829003601f168201915b5050505050815260200160048201805461149590611a5c565b80601f01602080910402602001604051908101604052809291908181526020018280546114c190611a5c565b801561150c5780601f106114e35761010080835404028352916020019161150c565b820191905f5260205f20905b8154815290600101906020018083116114ef57829003601f168201915b505050918352505060058201546001600160a01b03166020820152600682015460408201526007820154606082015260088201546080820152600982015460a0820152600a9091015460ff16151560c09091015292915050565b61156e611675565b60025f80516020611d1383398151915255565b80515f90810361159257505f919050565b81604001515f036115a457505f919050565b5f8260400151436115b59190611aa8565b90505f620f4240845f01516115ca9190611b45565b90505f82855f01516115dc9190611b45565b85602001516115eb9190611cff565b90508181116115fa57806115fc565b815b95945050505050565b5f81815260016020526040902060098101546006820154106116715760018101805460ff60a81b1916600160a81b179055600681015460405190815282907f646e6c03c7af143a9a24603e3ed75695bb683446c464bfd940be5832660f7bd09060200160405180910390a25b5050565b5f80516020611d13833981519152546002036116a457604051633ee5aeb560e01b815260040160405180910390fd5b565b5f602082840312156116b6575f80fd5b5035919050565b634e487b7160e01b5f52602160045260245ffd5b600481106116e1576116e16116bd565b9052565b600581106116e1576116e16116bd565b5f81518084525f5b81811015611719576020818501810151868301820152016116fd565b505f602082860101526020601f19601f83011685010191505092915050565b8d81526001600160a01b038d1660208201525f6101a061175b604084018f6116d1565b611768606084018e6116e5565b80608084015261177a8184018d6116f5565b905082810360a084015261178e818c6116f5565b905082810360c08401526117a2818b6116f5565b9150506117ba60e08301896001600160a01b03169052565b866101008301528561012083015284610140830152836101608301526117e561018083018415159052565b9e9d5050505050505050505050505050565b80356001600160a01b038116811461180d575f80fd5b919050565b5f60208284031215611822575f80fd5b61182b826117f7565b9392505050565b5f8083601f840112611842575f80fd5b50813567ffffffffffffffff811115611859575f80fd5b602083019150836020828501011115611870575f80fd5b9250929050565b5f805f805f805f8060a0898b03121561188e575f80fd5b88356004811061189c575f80fd5b9750602089013567ffffffffffffffff808211156118b8575f80fd5b6118c48c838d01611832565b909950975060408b01359150808211156118dc575f80fd5b6118e88c838d01611832565b90975095508591506118fc60608c016117f7565b945060808b0135915080821115611911575f80fd5b5061191e8b828c01611832565b999c989b5096995094979396929594505050565b5f8060408385031215611943575f80fd5b50508035926020909101359150565b60208152815160208201525f602083015161197860408401826001600160a01b03169052565b50604083015161198b60608401826116d1565b50606083015161199e60808401826116e5565b5060808301516101a08060a08501526119bb6101c08501836116f5565b915060a0850151601f19808685030160c08701526119d984836116f5565b935060c08701519150808685030160e0870152506119f783826116f5565b92505060e0850151610100611a16818701836001600160a01b03169052565b8601516101208681019190915286015161014080870191909152860151610160808701919091528601516101808087019190915290950151151593019290925250919050565b600181811c90821680611a7057607f821691505b602082108103611a8e57634e487b7160e01b5f52602260045260245ffd5b50919050565b634e487b7160e01b5f52601160045260245ffd5b81810381811115610db757610db7611a94565b5f808354611ac881611a5c565b60018281168015611ae05760018114611af557611b21565b60ff1984168752821515830287019450611b21565b875f526020805f205f5b85811015611b185781548a820152908401908201611aff565b50505082870194505b50929695505050505050565b5f60018201611b3e57611b3e611a94565b5060010190565b8082028115828204841417610db757610db7611a94565b5f82611b7657634e487b7160e01b5f52601260045260245ffd5b500490565b634e487b7160e01b5f52604160045260245ffd5b601f821115611bd657805f5260205f20601f840160051c81016020851015611bb45750805b601f840160051c820191505b81811015611bd3575f8155600101611bc0565b50505b505050565b815167ffffffffffffffff811115611bf557611bf5611b7b565b611c0981611c038454611a5c565b84611b8f565b602080601f831160018114611c3c575f8415611c255750858301515b5f19600386901b1c1916600185901b178555611c93565b5f85815260208120601f198616915b82811015611c6a57888601518255948401946001909101908401611c4b565b5085821015611c8757878501515f19600388901b60f8161c191681555b505060018460011b0185555b505050505050565b611ca581866116d1565b60606020820152826060820152828460808301375f608084830101525f6080601f19601f860116830101905082604083015295945050505050565b5f60208284031215611cf0575f80fd5b8151801515811461182b575f80fd5b80820180821115610db757610db7611a9456fe9b779b17422d0df92223018b32b4d1fa46e071723d6817e2486d003becc55f00a26469706673582212206bc13a61cbaa62c3b84e50222e887bfb88a5638a9fe00c8357271cdfdd20d32264736f6c63430008180033","opcodes":"PUSH1 0xA0 PUSH1 0x40 MSTORE CALLVALUE DUP1 ISZERO PUSH2 0xF JUMPI PUSH0 DUP1 REVERT JUMPDEST POP PUSH1 0x40 MLOAD PUSH3 0x1E70 CODESIZE SUB DUP1 PUSH3 0x1E70 DUP4 CODECOPY DUP2 ADD PUSH1 0x40 DUP2 SWAP1 MSTORE PUSH2 0x30 SWAP2 PUSH2 0xB4 JUMP JUMPDEST PUSH1 0x1 PUSH32 0x9B779B17422D0DF92223018B32B4D1FA46E071723D6817E2486D003BECC55F00 SSTORE PUSH1 0x1 PUSH1 0x1 PUSH1 0xA0 SHL SUB DUP2 AND PUSH2 0xA3 JUMPI PUSH1 0x40 MLOAD PUSH3 0x461BCD PUSH1 0xE5 SHL DUP2 MSTORE PUSH1 0x20 PUSH1 0x4 DUP3 ADD MSTORE PUSH1 0x12 PUSH1 0x24 DUP3 ADD MSTORE PUSH18 0x21AB1D103D32B9379033B0B4B0AA37B5B2B7 PUSH1 0x71 SHL PUSH1 0x44 DUP3 ADD MSTORE PUSH1 0x64 ADD PUSH1 0x40 MLOAD DUP1 SWAP2 SUB SWAP1 REVERT JUMPDEST PUSH1 0x1 PUSH1 0x1 PUSH1 0xA0 SHL SUB AND PUSH1 0x80 MSTORE PUSH2 0xE1 JUMP JUMPDEST PUSH0 PUSH1 0x20 DUP3 DUP5 SUB SLT ISZERO PUSH2 0xC4 JUMPI PUSH0 DUP1 REVERT JUMPDEST DUP2 MLOAD PUSH1 0x1 PUSH1 0x1 PUSH1 0xA0 SHL SUB DUP2 AND DUP2 EQ PUSH2 0xDA JUMPI PUSH0 DUP1 REVERT JUMPDEST SWAP4 SWAP3 POP POP POP JUMP JUMPDEST PUSH1 0x80 MLOAD PUSH2 0x1D68 PUSH3 0x108 PUSH0 CODECOPY PUSH0 DUP2 DUP2 PUSH2 0x212 ADD MSTORE DUP2 DUP2 PUSH2 0xC1C ADD MSTORE PUSH2 0xF2F ADD MSTORE PUSH2 0x1D68 PUSH0 RETURN INVALID PUSH1 0x80 PUSH1 0x40 MSTORE CALLVALUE DUP1 ISZERO PUSH2 0xF JUMPI PUSH0 DUP1 REVERT JUMPDEST POP PUSH1 0x4 CALLDATASIZE LT PUSH2 0x153 JUMPI PUSH0 CALLDATALOAD PUSH1 0xE0 SHR DUP1 PUSH4 0x7A5A5786 GT PUSH2 0xBF JUMPI DUP1 PUSH4 0xAB89437C GT PUSH2 0x79 JUMPI DUP1 PUSH4 0xAB89437C EQ PUSH2 0x319 JUMPI DUP1 PUSH4 0xAD14A23C EQ PUSH2 0x32C JUMPI DUP1 PUSH4 0xC7F758A8 EQ PUSH2 0x33F JUMPI DUP1 PUSH4 0xE1A45218 EQ PUSH2 0x268 JUMPI DUP1 PUSH4 0xF5C476F9 EQ PUSH2 0x35F JUMPI DUP1 PUSH4 0xFD24F834 EQ PUSH2 0x368 JUMPI PUSH0 DUP1 REVERT JUMPDEST DUP1 PUSH4 0x7A5A5786 EQ PUSH2 0x2A9 JUMPI DUP1 PUSH4 0x7C405325 EQ PUSH2 0x2BC JUMPI DUP1 PUSH4 0x81B2619E EQ PUSH2 0x2CF JUMPI DUP1 PUSH4 0x914897F4 EQ PUSH2 0x2D9 JUMPI DUP1 PUSH4 0x995C37D6 EQ PUSH2 0x307 JUMPI DUP1 PUSH4 0x9BFC3500 EQ PUSH2 0x310 JUMPI PUSH0 DUP1 REVERT JUMPDEST DUP1 PUSH4 0x3B904C51 GT PUSH2 0x110 JUMPI DUP1 PUSH4 0x3B904C51 EQ PUSH2 0x255 JUMPI DUP1 PUSH4 0x3F25575F EQ PUSH2 0x268 JUMPI DUP1 PUSH4 0x4150E034 EQ PUSH2 0x271 JUMPI DUP1 PUSH4 0x5BB3E1D5 EQ PUSH2 0x27A JUMPI DUP1 PUSH4 0x6E27D889 EQ PUSH2 0x28D JUMPI DUP1 PUSH4 0x70349CBA EQ PUSH2 0x2A0 JUMPI PUSH0 DUP1 REVERT JUMPDEST DUP1 PUSH4 0x13CF08B EQ PUSH2 0x157 JUMPI DUP1 PUSH4 0xB5E450F EQ PUSH2 0x18C JUMPI DUP1 PUSH4 0xC0512E9 EQ PUSH2 0x1E2 JUMPI DUP1 PUSH4 0xD61B519 EQ PUSH2 0x1F8 JUMPI DUP1 PUSH4 0x24009B78 EQ PUSH2 0x20D JUMPI DUP1 PUSH4 0x29890167 EQ PUSH2 0x24C JUMPI JUMPDEST PUSH0 DUP1 REVERT JUMPDEST PUSH2 0x16A PUSH2 0x165 CALLDATASIZE PUSH1 0x4 PUSH2 0x16A6 JUMP JUMPDEST PUSH2 0x371 JUMP JUMPDEST PUSH1 0x40 MLOAD PUSH2 0x183 SWAP14 SWAP13 SWAP12 SWAP11 SWAP10 SWAP9 SWAP8 SWAP7 SWAP6 SWAP5 SWAP4 SWAP3 SWAP2 SWAP1 PUSH2 0x1738 JUMP JUMPDEST PUSH1 0x40 MLOAD DUP1 SWAP2 SUB SWAP1 RETURN JUMPDEST PUSH2 0x1C2 PUSH2 0x19A CALLDATASIZE PUSH1 0x4 PUSH2 0x1812 JUMP JUMPDEST PUSH1 0x2 PUSH1 0x20 DUP2 SWAP1 MSTORE PUSH0 SWAP2 DUP3 MSTORE PUSH1 0x40 SWAP1 SWAP2 KECCAK256 DUP1 SLOAD PUSH1 0x1 DUP3 ADD SLOAD SWAP3 DUP3 ADD SLOAD PUSH1 0x3 SWAP1 SWAP3 ADD SLOAD SWAP1 SWAP3 SWAP2 SWAP1 DUP5 JUMP JUMPDEST PUSH1 0x40 DUP1 MLOAD SWAP5 DUP6 MSTORE PUSH1 0x20 DUP6 ADD SWAP4 SWAP1 SWAP4 MSTORE SWAP2 DUP4 ADD MSTORE PUSH1 0x60 DUP3 ADD MSTORE PUSH1 0x80 ADD PUSH2 0x183 JUMP JUMPDEST PUSH2 0x1EA PUSH0 SLOAD DUP2 JUMP JUMPDEST PUSH1 0x40 MLOAD SWAP1 DUP2 MSTORE PUSH1 0x20 ADD PUSH2 0x183 JUMP JUMPDEST PUSH2 0x20B PUSH2 0x206 CALLDATASIZE PUSH1 0x4 PUSH2 0x16A6 JUMP JUMPDEST PUSH2 0x585 JUMP JUMPDEST STOP JUMPDEST PUSH2 0x234 PUSH32 0x0 DUP2 JUMP JUMPDEST PUSH1 0x40 MLOAD PUSH1 0x1 PUSH1 0x1 PUSH1 0xA0 SHL SUB SWAP1 SWAP2 AND DUP2 MSTORE PUSH1 0x20 ADD PUSH2 0x183 JUMP JUMPDEST PUSH2 0x1EA PUSH2 0x9D80 DUP2 JUMP JUMPDEST PUSH2 0x20B PUSH2 0x263 CALLDATASIZE PUSH1 0x4 PUSH2 0x16A6 JUMP JUMPDEST PUSH2 0x720 JUMP JUMPDEST PUSH2 0x1EA PUSH2 0x2710 DUP2 JUMP JUMPDEST PUSH2 0x1EA PUSH1 0x5 SLOAD DUP2 JUMP JUMPDEST PUSH2 0x1EA PUSH2 0x288 CALLDATASIZE PUSH1 0x4 PUSH2 0x1877 JUMP JUMPDEST PUSH2 0x7DA JUMP JUMPDEST PUSH2 0x20B PUSH2 0x29B CALLDATASIZE PUSH1 0x4 PUSH2 0x16A6 JUMP JUMPDEST PUSH2 0xBB1 JUMP JUMPDEST PUSH2 0x1EA PUSH2 0x2328 DUP2 JUMP JUMPDEST PUSH2 0x1EA PUSH2 0x2B7 CALLDATASIZE PUSH1 0x4 PUSH2 0x1812 JUMP JUMPDEST PUSH2 0xD69 JUMP JUMPDEST PUSH2 0x20B PUSH2 0x2CA CALLDATASIZE PUSH1 0x4 PUSH2 0x16A6 JUMP JUMPDEST PUSH2 0xDBD JUMP JUMPDEST PUSH2 0x1EA PUSH3 0xF4240 DUP2 JUMP JUMPDEST PUSH2 0x2EC PUSH2 0x2E7 CALLDATASIZE PUSH1 0x4 PUSH2 0x16A6 JUMP JUMPDEST PUSH2 0xFD4 JUMP JUMPDEST PUSH1 0x40 DUP1 MLOAD SWAP4 DUP5 MSTORE PUSH1 0x20 DUP5 ADD SWAP3 SWAP1 SWAP3 MSTORE SWAP1 DUP3 ADD MSTORE PUSH1 0x60 ADD PUSH2 0x183 JUMP JUMPDEST PUSH2 0x1EA PUSH2 0xCE4 DUP2 JUMP JUMPDEST PUSH2 0x1EA PUSH2 0x1D4C DUP2 JUMP JUMPDEST PUSH2 0x234 PUSH2 0x327 CALLDATASIZE PUSH1 0x4 PUSH2 0x1932 JUMP JUMPDEST PUSH2 0x101A JUMP JUMPDEST PUSH2 0x20B PUSH2 0x33A CALLDATASIZE PUSH1 0x4 PUSH2 0x16A6 JUMP JUMPDEST PUSH2 0x104E JUMP JUMPDEST PUSH2 0x352 PUSH2 0x34D CALLDATASIZE PUSH1 0x4 PUSH2 0x16A6 JUMP JUMPDEST PUSH2 0x1256 JUMP JUMPDEST PUSH1 0x40 MLOAD PUSH2 0x183 SWAP2 SWAP1 PUSH2 0x1952 JUMP JUMPDEST PUSH2 0x1EA PUSH1 0x4 SLOAD DUP2 JUMP JUMPDEST PUSH2 0x1EA PUSH2 0x270F DUP2 JUMP JUMPDEST PUSH1 0x1 PUSH1 0x20 DUP2 SWAP1 MSTORE PUSH0 SWAP2 DUP3 MSTORE PUSH1 0x40 SWAP1 SWAP2 KECCAK256 DUP1 SLOAD SWAP2 DUP2 ADD SLOAD PUSH1 0x2 DUP3 ADD DUP1 SLOAD PUSH1 0x1 PUSH1 0x1 PUSH1 0xA0 SHL SUB DUP4 AND SWAP4 PUSH1 0xFF PUSH1 0x1 PUSH1 0xA0 SHL DUP6 DIV DUP2 AND SWAP5 PUSH1 0x1 PUSH1 0xA8 SHL SWAP1 DIV AND SWAP3 SWAP1 SWAP2 PUSH2 0x3B8 SWAP1 PUSH2 0x1A5C JUMP JUMPDEST DUP1 PUSH1 0x1F ADD PUSH1 0x20 DUP1 SWAP2 DIV MUL PUSH1 0x20 ADD PUSH1 0x40 MLOAD SWAP1 DUP2 ADD PUSH1 0x40 MSTORE DUP1 SWAP3 SWAP2 SWAP1 DUP2 DUP2 MSTORE PUSH1 0x20 ADD DUP3 DUP1 SLOAD PUSH2 0x3E4 SWAP1 PUSH2 0x1A5C JUMP JUMPDEST DUP1 ISZERO PUSH2 0x42F JUMPI DUP1 PUSH1 0x1F LT PUSH2 0x406 JUMPI PUSH2 0x100 DUP1 DUP4 SLOAD DIV MUL DUP4 MSTORE SWAP2 PUSH1 0x20 ADD SWAP2 PUSH2 0x42F JUMP JUMPDEST DUP3 ADD SWAP2 SWAP1 PUSH0 MSTORE PUSH1 0x20 PUSH0 KECCAK256 SWAP1 JUMPDEST DUP2 SLOAD DUP2 MSTORE SWAP1 PUSH1 0x1 ADD SWAP1 PUSH1 0x20 ADD DUP1 DUP4 GT PUSH2 0x412 JUMPI DUP3 SWAP1 SUB PUSH1 0x1F AND DUP3 ADD SWAP2 JUMPDEST POP POP POP POP POP SWAP1 DUP1 PUSH1 0x3 ADD DUP1 SLOAD PUSH2 0x444 SWAP1 PUSH2 0x1A5C JUMP JUMPDEST DUP1 PUSH1 0x1F ADD PUSH1 0x20 DUP1 SWAP2 DIV MUL PUSH1 0x20 ADD PUSH1 0x40 MLOAD SWAP1 DUP2 ADD PUSH1 0x40 MSTORE DUP1 SWAP3 SWAP2 SWAP1 DUP2 DUP2 MSTORE PUSH1 0x20 ADD DUP3 DUP1 SLOAD PUSH2 0x470 SWAP1 PUSH2 0x1A5C JUMP JUMPDEST DUP1 ISZERO PUSH2 0x4BB JUMPI DUP1 PUSH1 0x1F LT PUSH2 0x492 JUMPI PUSH2 0x100 DUP1 DUP4 SLOAD DIV MUL DUP4 MSTORE SWAP2 PUSH1 0x20 ADD SWAP2 PUSH2 0x4BB JUMP JUMPDEST DUP3 ADD SWAP2 SWAP1 PUSH0 MSTORE PUSH1 0x20 PUSH0 KECCAK256 SWAP1 JUMPDEST DUP2 SLOAD DUP2 MSTORE SWAP1 PUSH1 0x1 ADD SWAP1 PUSH1 0x20 ADD DUP1 DUP4 GT PUSH2 0x49E JUMPI DUP3 SWAP1 SUB PUSH1 0x1F AND DUP3 ADD SWAP2 JUMPDEST POP POP POP POP POP SWAP1 DUP1 PUSH1 0x4 ADD DUP1 SLOAD PUSH2 0x4D0 SWAP1 PUSH2 0x1A5C JUMP JUMPDEST DUP1 PUSH1 0x1F ADD PUSH1 0x20 DUP1 SWAP2 DIV MUL PUSH1 0x20 ADD PUSH1 0x40 MLOAD SWAP1 DUP2 ADD PUSH1 0x40 MSTORE DUP1 SWAP3 SWAP2 SWAP1 DUP2 DUP2 MSTORE PUSH1 0x20 ADD DUP3 DUP1 SLOAD PUSH2 0x4FC SWAP1 PUSH2 0x1A5C JUMP JUMPDEST DUP1 ISZERO PUSH2 0x547 JUMPI DUP1 PUSH1 0x1F LT PUSH2 0x51E JUMPI PUSH2 0x100 DUP1 DUP4 SLOAD DIV MUL DUP4 MSTORE SWAP2 PUSH1 0x20 ADD SWAP2 PUSH2 0x547 JUMP JUMPDEST DUP3 ADD SWAP2 SWAP1 PUSH0 MSTORE PUSH1 0x20 PUSH0 KECCAK256 SWAP1 JUMPDEST DUP2 SLOAD DUP2 MSTORE SWAP1 PUSH1 0x1 ADD SWAP1 PUSH1 0x20 ADD DUP1 DUP4 GT PUSH2 0x52A JUMPI DUP3 SWAP1 SUB PUSH1 0x1F AND DUP3 ADD SWAP2 JUMPDEST POP POP POP PUSH1 0x5 DUP5 ADD SLOAD PUSH1 0x6 DUP6 ADD SLOAD PUSH1 0x7 DUP7 ADD SLOAD PUSH1 0x8 DUP8 ADD SLOAD PUSH1 0x9 DUP9 ADD SLOAD PUSH1 0xA SWAP1 SWAP9 ADD SLOAD SWAP7 SWAP8 PUSH1 0x1 PUSH1 0x1 PUSH1 0xA0 SHL SUB SWAP1 SWAP5 AND SWAP7 SWAP3 SWAP6 POP SWAP1 SWAP4 POP SWAP2 SWAP1 PUSH1 0xFF AND DUP14 JUMP JUMPDEST PUSH2 0x58D PUSH2 0x1566 JUMP JUMPDEST PUSH0 DUP2 DUP2 MSTORE PUSH1 0x1 PUSH1 0x20 DUP2 SWAP1 MSTORE PUSH1 0x40 SWAP1 SWAP2 KECCAK256 SWAP1 PUSH1 0x1 DUP3 ADD SLOAD PUSH1 0x1 PUSH1 0xA8 SHL SWAP1 DIV PUSH1 0xFF AND PUSH1 0x4 DUP2 GT ISZERO PUSH2 0x5BE JUMPI PUSH2 0x5BE PUSH2 0x16BD JUMP JUMPDEST EQ PUSH2 0x5E4 JUMPI PUSH1 0x40 MLOAD PUSH4 0x2890D121 PUSH1 0xE2 SHL DUP2 MSTORE PUSH1 0x4 DUP2 ADD DUP4 SWAP1 MSTORE PUSH1 0x24 ADD JUMPDEST PUSH1 0x40 MLOAD DUP1 SWAP2 SUB SWAP1 REVERT JUMPDEST PUSH0 DUP2 PUSH1 0x7 ADD SLOAD NUMBER PUSH2 0x5F5 SWAP2 SWAP1 PUSH2 0x1AA8 JUMP JUMPDEST SWAP1 POP PUSH2 0x9D80 DUP2 LT ISZERO PUSH2 0x630 JUMPI DUP3 PUSH2 0x60E DUP3 PUSH2 0x9D80 PUSH2 0x1AA8 JUMP JUMPDEST PUSH1 0x40 MLOAD PUSH4 0x4244064F PUSH1 0xE0 SHL DUP2 MSTORE PUSH1 0x4 DUP2 ADD SWAP3 SWAP1 SWAP3 MSTORE PUSH1 0x24 DUP3 ADD MSTORE PUSH1 0x44 ADD PUSH2 0x5DB JUMP JUMPDEST PUSH1 0x1 DUP3 DUP2 ADD DUP1 SLOAD PUSH1 0xFF PUSH1 0xA8 SHL NOT AND PUSH1 0x3 PUSH1 0xA8 SHL OR SWAP1 SSTORE PUSH1 0xA DUP4 ADD DUP1 SLOAD PUSH1 0xFF NOT AND SWAP1 SWAP2 OR SWAP1 SSTORE PUSH1 0x5 DUP3 ADD SLOAD PUSH1 0x40 MLOAD PUSH0 SWAP2 PUSH1 0x1 PUSH1 0x1 PUSH1 0xA0 SHL SUB AND SWAP1 PUSH2 0x677 SWAP1 PUSH1 0x4 DUP7 ADD SWAP1 PUSH2 0x1ABB JUMP JUMPDEST PUSH0 PUSH1 0x40 MLOAD DUP1 DUP4 SUB DUP2 PUSH0 DUP7 GAS CALL SWAP2 POP POP RETURNDATASIZE DUP1 PUSH0 DUP2 EQ PUSH2 0x6B0 JUMPI PUSH1 0x40 MLOAD SWAP2 POP PUSH1 0x1F NOT PUSH1 0x3F RETURNDATASIZE ADD AND DUP3 ADD PUSH1 0x40 MSTORE RETURNDATASIZE DUP3 MSTORE RETURNDATASIZE PUSH0 PUSH1 0x20 DUP5 ADD RETURNDATACOPY PUSH2 0x6B5 JUMP JUMPDEST PUSH1 0x60 SWAP2 POP JUMPDEST POP POP SWAP1 POP DUP1 PUSH2 0x6DA JUMPI PUSH1 0x40 MLOAD PUSH4 0x2497EB87 PUSH1 0xE1 SHL DUP2 MSTORE PUSH1 0x4 DUP2 ADD DUP6 SWAP1 MSTORE PUSH1 0x24 ADD PUSH2 0x5DB JUMP JUMPDEST PUSH1 0x40 MLOAD DUP5 SWAP1 PUSH32 0x712AE1383F79AC853F8D882153778E0260EF8F03B504E2866E0593E04D2B291F SWAP1 PUSH0 SWAP1 LOG2 POP POP POP PUSH2 0x71D PUSH1 0x1 PUSH0 DUP1 MLOAD PUSH1 0x20 PUSH2 0x1D13 DUP4 CODECOPY DUP2 MLOAD SWAP2 MSTORE SSTORE JUMP JUMPDEST POP JUMP JUMPDEST CALLER PUSH0 SWAP1 DUP2 MSTORE PUSH1 0x2 PUSH1 0x20 MSTORE PUSH1 0x40 SWAP1 KECCAK256 PUSH1 0x3 DUP2 ADD SLOAD DUP3 EQ PUSH2 0x781 JUMPI PUSH1 0x40 MLOAD PUSH3 0x461BCD PUSH1 0xE5 SHL DUP2 MSTORE PUSH1 0x20 PUSH1 0x4 DUP3 ADD MSTORE PUSH1 0x1F PUSH1 0x24 DUP3 ADD MSTORE PUSH32 0x43563A206E6F7420766F74696E67206F6E20746869732070726F706F73616C00 PUSH1 0x44 DUP3 ADD MSTORE PUSH1 0x64 ADD PUSH2 0x5DB JUMP JUMPDEST PUSH1 0x1 DUP1 DUP3 ADD SLOAD PUSH0 DUP5 DUP2 MSTORE PUSH1 0x20 SWAP3 SWAP1 SWAP3 MSTORE PUSH1 0x40 SWAP1 SWAP2 KECCAK256 PUSH1 0x6 ADD SLOAD DUP2 DUP2 GT PUSH2 0x7A7 JUMPI PUSH0 PUSH2 0x7B1 JUMP JUMPDEST PUSH2 0x7B1 DUP3 DUP3 PUSH2 0x1AA8 JUMP JUMPDEST PUSH0 SWAP5 DUP6 MSTORE PUSH1 0x1 PUSH1 0x20 DUP2 SWAP1 MSTORE PUSH1 0x40 DUP7 KECCAK256 PUSH1 0x6 ADD SWAP2 SWAP1 SWAP2 SSTORE DUP4 ADD DUP5 SWAP1 SSTORE POP POP NUMBER PUSH1 0x2 DUP3 ADD SSTORE PUSH1 0x3 ADD SSTORE JUMP JUMPDEST CALLER PUSH0 SWAP1 DUP2 MSTORE PUSH1 0x2 PUSH1 0x20 MSTORE PUSH1 0x40 DUP2 KECCAK256 SLOAD PUSH2 0x835 JUMPI PUSH1 0x40 MLOAD PUSH3 0x461BCD PUSH1 0xE5 SHL DUP2 MSTORE PUSH1 0x20 PUSH1 0x4 DUP3 ADD MSTORE PUSH1 0x1A PUSH1 0x24 DUP3 ADD MSTORE PUSH32 0x43563A206D757374206C6F636B20746F6B656E73206669727374000000000000 PUSH1 0x44 DUP3 ADD MSTORE PUSH1 0x64 ADD PUSH2 0x5DB JUMP JUMPDEST DUP7 PUSH2 0x874 JUMPI PUSH1 0x40 MLOAD PUSH3 0x461BCD PUSH1 0xE5 SHL DUP2 MSTORE PUSH1 0x20 PUSH1 0x4 DUP3 ADD MSTORE PUSH1 0xF PUSH1 0x24 DUP3 ADD MSTORE PUSH15 0x43563A20656D707479207469746C65 PUSH1 0x88 SHL PUSH1 0x44 DUP3 ADD MSTORE PUSH1 0x64 ADD PUSH2 0x5DB JUMP JUMPDEST PUSH0 DUP1 DUP2 SLOAD PUSH2 0x881 SWAP1 PUSH2 0x1B2D JUMP JUMPDEST SWAP2 DUP3 SWAP1 SSTORE POP SWAP1 POP PUSH0 PUSH1 0x2 DUP11 PUSH1 0x3 DUP2 GT ISZERO PUSH2 0x89D JUMPI PUSH2 0x89D PUSH2 0x16BD JUMP JUMPDEST SUB PUSH2 0x8AB JUMPI POP PUSH2 0x2328 PUSH2 0x8D2 JUMP JUMPDEST PUSH1 0x3 DUP11 PUSH1 0x3 DUP2 GT ISZERO PUSH2 0x8BF JUMPI PUSH2 0x8BF PUSH2 0x16BD JUMP JUMPDEST SUB PUSH2 0x8CD JUMPI POP PUSH2 0x1D4C PUSH2 0x8D2 JUMP JUMPDEST POP PUSH2 0xCE4 JUMPDEST PUSH0 PUSH3 0xF4240 PUSH1 0x4 SLOAD PUSH2 0x8E4 SWAP2 SWAP1 PUSH2 0x1B45 JUMP JUMPDEST SWAP1 POP PUSH0 PUSH2 0x2710 PUSH2 0x8F4 DUP5 DUP5 PUSH2 0x1B45 JUMP JUMPDEST PUSH2 0x8FE SWAP2 SWAP1 PUSH2 0x1B5C JUMP JUMPDEST PUSH1 0x40 DUP1 MLOAD PUSH2 0x1A0 DUP2 ADD DUP3 MSTORE DUP7 DUP2 MSTORE CALLER PUSH1 0x20 DUP3 ADD MSTORE SWAP2 SWAP3 POP DUP2 ADD DUP14 PUSH1 0x3 DUP2 GT ISZERO PUSH2 0x929 JUMPI PUSH2 0x929 PUSH2 0x16BD JUMP JUMPDEST DUP2 MSTORE PUSH1 0x20 ADD PUSH0 DUP2 MSTORE PUSH1 0x20 ADD DUP13 DUP13 DUP1 DUP1 PUSH1 0x1F ADD PUSH1 0x20 DUP1 SWAP2 DIV MUL PUSH1 0x20 ADD PUSH1 0x40 MLOAD SWAP1 DUP2 ADD PUSH1 0x40 MSTORE DUP1 SWAP4 SWAP3 SWAP2 SWAP1 DUP2 DUP2 MSTORE PUSH1 0x20 ADD DUP4 DUP4 DUP1 DUP3 DUP5 CALLDATACOPY PUSH0 SWAP3 ADD SWAP2 SWAP1 SWAP2 MSTORE POP POP POP SWAP1 DUP3 MSTORE POP PUSH1 0x40 DUP1 MLOAD PUSH1 0x20 PUSH1 0x1F DUP14 ADD DUP2 SWAP1 DIV DUP2 MUL DUP3 ADD DUP2 ADD SWAP1 SWAP3 MSTORE DUP12 DUP2 MSTORE SWAP2 DUP2 ADD SWAP2 SWAP1 DUP13 SWAP1 DUP13 SWAP1 DUP2 SWAP1 DUP5 ADD DUP4 DUP3 DUP1 DUP3 DUP5 CALLDATACOPY PUSH0 SWAP3 ADD SWAP2 SWAP1 SWAP2 MSTORE POP POP POP SWAP1 DUP3 MSTORE POP PUSH1 0x40 DUP1 MLOAD PUSH1 0x20 PUSH1 0x1F DUP11 ADD DUP2 SWAP1 DIV DUP2 MUL DUP3 ADD DUP2 ADD SWAP1 SWAP3 MSTORE DUP9 DUP2 MSTORE SWAP2 DUP2 ADD SWAP2 SWAP1 DUP10 SWAP1 DUP10 SWAP1 DUP2 SWAP1 DUP5 ADD DUP4 DUP3 DUP1 DUP3 DUP5 CALLDATACOPY PUSH0 SWAP3 ADD DUP3 SWAP1 MSTORE POP SWAP4 DUP6 MSTORE POP POP POP PUSH1 0x1 PUSH1 0x1 PUSH1 0xA0 SHL SUB DUP1 DUP12 AND PUSH1 0x20 DUP1 DUP6 ADD SWAP2 SWAP1 SWAP2 MSTORE PUSH1 0x40 DUP1 DUP6 ADD DUP5 SWAP1 MSTORE NUMBER PUSH1 0x60 DUP7 ADD DUP2 SWAP1 MSTORE PUSH1 0x80 DUP7 ADD MSTORE PUSH1 0xA0 DUP6 ADD DUP8 SWAP1 MSTORE PUSH1 0xC0 SWAP1 SWAP5 ADD DUP4 SWAP1 MSTORE DUP9 DUP4 MSTORE PUSH1 0x1 DUP1 DUP3 MSTORE SWAP3 DUP5 SWAP1 KECCAK256 DUP6 MLOAD DUP2 SSTORE SWAP1 DUP6 ADD MLOAD SWAP3 DUP2 ADD DUP1 SLOAD SWAP4 SWAP1 SWAP3 AND PUSH1 0x1 PUSH1 0x1 PUSH1 0xA0 SHL SUB NOT DUP5 AND DUP2 OR DUP4 SSTORE SWAP4 DUP6 ADD MLOAD SWAP1 SWAP4 SWAP1 SWAP3 PUSH1 0x1 PUSH1 0x1 PUSH1 0xA8 SHL SUB NOT AND OR PUSH1 0x1 PUSH1 0xA0 SHL DUP4 PUSH1 0x3 DUP2 GT ISZERO PUSH2 0xA6D JUMPI PUSH2 0xA6D PUSH2 0x16BD JUMP JUMPDEST MUL OR SWAP1 SSTORE POP PUSH1 0x60 DUP3 ADD MLOAD PUSH1 0x1 DUP3 ADD DUP1 SLOAD PUSH1 0xFF PUSH1 0xA8 SHL NOT AND PUSH1 0x1 PUSH1 0xA8 SHL DUP4 PUSH1 0x4 DUP2 GT ISZERO PUSH2 0xA9B JUMPI PUSH2 0xA9B PUSH2 0x16BD JUMP JUMPDEST MUL OR SWAP1 SSTORE POP PUSH1 0x80 DUP3 ADD MLOAD PUSH1 0x2 DUP3 ADD SWAP1 PUSH2 0xAB4 SWAP1 DUP3 PUSH2 0x1BDB JUMP JUMPDEST POP PUSH1 0xA0 DUP3 ADD MLOAD PUSH1 0x3 DUP3 ADD SWAP1 PUSH2 0xAC9 SWAP1 DUP3 PUSH2 0x1BDB JUMP JUMPDEST POP PUSH1 0xC0 DUP3 ADD MLOAD PUSH1 0x4 DUP3 ADD SWAP1 PUSH2 0xADE SWAP1 DUP3 PUSH2 0x1BDB JUMP JUMPDEST POP PUSH1 0xE0 DUP3 ADD MLOAD DUP2 PUSH1 0x5 ADD PUSH0 PUSH2 0x100 EXP DUP2 SLOAD DUP2 PUSH1 0x1 PUSH1 0x1 PUSH1 0xA0 SHL SUB MUL NOT AND SWAP1 DUP4 PUSH1 0x1 PUSH1 0x1 PUSH1 0xA0 SHL SUB AND MUL OR SWAP1 SSTORE POP PUSH2 0x100 DUP3 ADD MLOAD DUP2 PUSH1 0x6 ADD SSTORE PUSH2 0x120 DUP3 ADD MLOAD DUP2 PUSH1 0x7 ADD SSTORE PUSH2 0x140 DUP3 ADD MLOAD DUP2 PUSH1 0x8 ADD SSTORE PUSH2 0x160 DUP3 ADD MLOAD DUP2 PUSH1 0x9 ADD SSTORE PUSH2 0x180 DUP3 ADD MLOAD DUP2 PUSH1 0xA ADD PUSH0 PUSH2 0x100 EXP DUP2 SLOAD DUP2 PUSH1 0xFF MUL NOT AND SWAP1 DUP4 ISZERO ISZERO MUL OR SWAP1 SSTORE POP SWAP1 POP POP CALLER PUSH1 0x1 PUSH1 0x1 PUSH1 0xA0 SHL SUB AND DUP5 PUSH32 0x2160CBF9D326719DD2CC1BE7C9B9C511051B9228F9B3EDC8FE58AED7D44FDAC3 DUP15 DUP15 DUP15 DUP7 PUSH1 0x40 MLOAD PUSH2 0xB9A SWAP5 SWAP4 SWAP3 SWAP2 SWAP1 PUSH2 0x1C9B JUMP JUMPDEST PUSH1 0x40 MLOAD DUP1 SWAP2 SUB SWAP1 LOG3 POP POP POP SWAP9 SWAP8 POP POP POP POP POP POP POP POP JUMP JUMPDEST PUSH2 0xBB9 PUSH2 0x1566 JUMP JUMPDEST PUSH0 DUP2 GT PUSH2 0xBFA JUMPI PUSH1 0x40 MLOAD PUSH3 0x461BCD PUSH1 0xE5 SHL DUP2 MSTORE PUSH1 0x20 PUSH1 0x4 DUP3 ADD MSTORE PUSH1 0xF PUSH1 0x24 DUP3 ADD MSTORE PUSH15 0x10D58E881E995C9BC8185B5BDD5B9D PUSH1 0x8A SHL PUSH1 0x44 DUP3 ADD MSTORE PUSH1 0x64 ADD PUSH2 0x5DB JUMP JUMPDEST PUSH1 0x40 MLOAD PUSH4 0x23B872DD PUSH1 0xE0 SHL DUP2 MSTORE CALLER PUSH1 0x4 DUP3 ADD MSTORE ADDRESS PUSH1 0x24 DUP3 ADD MSTORE PUSH1 0x44 DUP2 ADD DUP3 SWAP1 MSTORE PUSH32 0x0 PUSH1 0x1 PUSH1 0x1 PUSH1 0xA0 SHL SUB AND SWAP1 PUSH4 0x23B872DD SWAP1 PUSH1 0x64 ADD PUSH1 0x20 PUSH1 0x40 MLOAD DUP1 DUP4 SUB DUP2 PUSH0 DUP8 GAS CALL ISZERO DUP1 ISZERO PUSH2 0xC6A JUMPI RETURNDATASIZE PUSH0 DUP1 RETURNDATACOPY RETURNDATASIZE PUSH0 REVERT JUMPDEST POP POP POP POP PUSH1 0x40 MLOAD RETURNDATASIZE PUSH1 0x1F NOT PUSH1 0x1F DUP3 ADD AND DUP3 ADD DUP1 PUSH1 0x40 MSTORE POP DUP2 ADD SWAP1 PUSH2 0xC8E SWAP2 SWAP1 PUSH2 0x1CE0 JUMP JUMPDEST POP CALLER PUSH0 SWAP1 DUP2 MSTORE PUSH1 0x2 PUSH1 0x20 DUP2 SWAP1 MSTORE PUSH1 0x40 SWAP1 SWAP2 KECCAK256 SWAP1 DUP2 ADD SLOAD ISZERO PUSH2 0xCE6 JUMPI PUSH1 0x40 DUP1 MLOAD PUSH1 0x80 DUP2 ADD DUP3 MSTORE DUP3 SLOAD DUP2 MSTORE PUSH1 0x1 DUP4 ADD SLOAD PUSH1 0x20 DUP3 ADD MSTORE PUSH1 0x2 DUP4 ADD SLOAD SWAP2 DUP2 ADD SWAP2 SWAP1 SWAP2 MSTORE PUSH1 0x3 DUP3 ADD SLOAD PUSH1 0x60 DUP3 ADD MSTORE PUSH2 0xCE0 SWAP1 PUSH2 0x1581 JUMP JUMPDEST PUSH1 0x1 DUP3 ADD SSTORE JUMPDEST DUP2 DUP2 PUSH0 ADD PUSH0 DUP3 DUP3 SLOAD PUSH2 0xCF8 SWAP2 SWAP1 PUSH2 0x1CFF JUMP JUMPDEST SWAP1 SWAP2 SSTORE POP POP NUMBER PUSH1 0x2 DUP3 ADD SSTORE PUSH1 0x4 DUP1 SLOAD DUP4 SWAP2 SWAP1 PUSH0 SWAP1 PUSH2 0xD17 SWAP1 DUP5 SWAP1 PUSH2 0x1CFF JUMP JUMPDEST SWAP1 SWAP2 SSTORE POP POP PUSH1 0x40 MLOAD DUP3 DUP2 MSTORE CALLER SWAP1 PUSH32 0xAC87F20A77D28EE8BBB58EC87EA8FA968B3393EFAE1A368FD50B767C2847391C SWAP1 PUSH1 0x20 ADD JUMPDEST PUSH1 0x40 MLOAD DUP1 SWAP2 SUB SWAP1 LOG2 POP PUSH2 0x71D PUSH1 0x1 PUSH0 DUP1 MLOAD PUSH1 0x20 PUSH2 0x1D13 DUP4 CODECOPY DUP2 MLOAD SWAP2 MSTORE SSTORE JUMP JUMPDEST PUSH1 0x1 PUSH1 0x1 PUSH1 0xA0 SHL SUB DUP2 AND PUSH0 SWAP1 DUP2 MSTORE PUSH1 0x2 PUSH1 0x20 DUP2 DUP2 MSTORE PUSH1 0x40 DUP1 DUP5 KECCAK256 DUP2 MLOAD PUSH1 0x80 DUP2 ADD DUP4 MSTORE DUP2 SLOAD DUP2 MSTORE PUSH1 0x1 DUP3 ADD SLOAD SWAP4 DUP2 ADD SWAP4 SWAP1 SWAP4 MSTORE SWAP3 DUP4 ADD SLOAD SWAP1 DUP3 ADD MSTORE PUSH1 0x3 SWAP1 SWAP2 ADD SLOAD PUSH1 0x60 DUP3 ADD MSTORE PUSH2 0xDB7 SWAP1 PUSH2 0x1581 JUMP JUMPDEST SWAP3 SWAP2 POP POP JUMP JUMPDEST PUSH2 0xDC5 PUSH2 0x1566 JUMP JUMPDEST CALLER PUSH0 SWAP1 DUP2 MSTORE PUSH1 0x2 PUSH1 0x20 MSTORE PUSH1 0x40 SWAP1 KECCAK256 DUP1 SLOAD DUP3 GT ISZERO PUSH2 0xE24 JUMPI PUSH1 0x40 MLOAD PUSH3 0x461BCD PUSH1 0xE5 SHL DUP2 MSTORE PUSH1 0x20 PUSH1 0x4 DUP3 ADD MSTORE PUSH1 0x17 PUSH1 0x24 DUP3 ADD MSTORE PUSH32 0x43563A20696E73756666696369656E74206C6F636B6564000000000000000000 PUSH1 0x44 DUP3 ADD MSTORE PUSH1 0x64 ADD PUSH2 0x5DB JUMP JUMPDEST PUSH1 0x3 DUP2 ADD SLOAD ISZERO PUSH2 0xE76 JUMPI PUSH1 0x40 MLOAD PUSH3 0x461BCD PUSH1 0xE5 SHL DUP2 MSTORE PUSH1 0x20 PUSH1 0x4 DUP3 ADD MSTORE PUSH1 0x1E PUSH1 0x24 DUP3 ADD MSTORE PUSH32 0x43563A2063616E6E6F7420756E6C6F636B207768696C6520766F74696E670000 PUSH1 0x44 DUP3 ADD MSTORE PUSH1 0x64 ADD PUSH2 0x5DB JUMP JUMPDEST PUSH1 0x40 DUP1 MLOAD PUSH1 0x80 DUP2 ADD DUP3 MSTORE DUP3 SLOAD DUP2 MSTORE PUSH1 0x1 DUP4 ADD SLOAD PUSH1 0x20 DUP3 ADD MSTORE PUSH1 0x2 DUP4 ADD SLOAD SWAP2 DUP2 ADD SWAP2 SWAP1 SWAP2 MSTORE PUSH1 0x3 DUP3 ADD SLOAD PUSH1 0x60 DUP3 ADD MSTORE PUSH2 0xEAD SWAP1 PUSH2 0x1581 JUMP JUMPDEST PUSH1 0x1 DUP3 ADD SSTORE DUP1 SLOAD PUSH2 0xEBE DUP4 DUP3 PUSH2 0x1AA8 JUMP JUMPDEST DUP3 PUSH1 0x1 ADD SLOAD PUSH2 0xECD SWAP2 SWAP1 PUSH2 0x1B45 JUMP JUMPDEST PUSH2 0xED7 SWAP2 SWAP1 PUSH2 0x1B5C JUMP JUMPDEST PUSH1 0x1 DUP3 ADD SSTORE DUP1 SLOAD DUP3 SWAP1 DUP3 SWAP1 PUSH0 SWAP1 PUSH2 0xEEF SWAP1 DUP5 SWAP1 PUSH2 0x1AA8 JUMP JUMPDEST SWAP1 SWAP2 SSTORE POP POP NUMBER PUSH1 0x2 DUP3 ADD SSTORE PUSH1 0x4 DUP1 SLOAD DUP4 SWAP2 SWAP1 PUSH0 SWAP1 PUSH2 0xF0E SWAP1 DUP5 SWAP1 PUSH2 0x1AA8 JUMP JUMPDEST SWAP1 SWAP2 SSTORE POP POP PUSH1 0x40 MLOAD PUSH4 0xA9059CBB PUSH1 0xE0 SHL DUP2 MSTORE CALLER PUSH1 0x4 DUP3 ADD MSTORE PUSH1 0x24 DUP2 ADD DUP4 SWAP1 MSTORE PUSH32 0x0 PUSH1 0x1 PUSH1 0x1 PUSH1 0xA0 SHL SUB AND SWAP1 PUSH4 0xA9059CBB SWAP1 PUSH1 0x44 ADD PUSH1 0x20 PUSH1 0x40 MLOAD DUP1 DUP4 SUB DUP2 PUSH0 DUP8 GAS CALL ISZERO DUP1 ISZERO PUSH2 0xF7D JUMPI RETURNDATASIZE PUSH0 DUP1 RETURNDATACOPY RETURNDATASIZE PUSH0 REVERT JUMPDEST POP POP POP POP PUSH1 0x40 MLOAD RETURNDATASIZE PUSH1 0x1F NOT PUSH1 0x1F DUP3 ADD AND DUP3 ADD DUP1 PUSH1 0x40 MSTORE POP DUP2 ADD SWAP1 PUSH2 0xFA1 SWAP2 SWAP1 PUSH2 0x1CE0 JUMP JUMPDEST POP PUSH1 0x40 MLOAD DUP3 DUP2 MSTORE CALLER SWAP1 PUSH32 0xE7B379C6C1FA169E9079C25E9143B127637EEF8EC8C9D5C06DDB4AB3E1195888 SWAP1 PUSH1 0x20 ADD PUSH2 0xD4A JUMP JUMPDEST PUSH0 DUP2 DUP2 MSTORE PUSH1 0x1 PUSH1 0x20 MSTORE PUSH1 0x40 DUP2 KECCAK256 PUSH1 0x6 DUP2 ADD SLOAD PUSH1 0x9 DUP3 ADD SLOAD SWAP1 SWAP3 SWAP1 SWAP2 DUP3 PUSH2 0xFFA JUMPI PUSH0 PUSH2 0x1011 JUMP JUMPDEST DUP3 PUSH2 0x1007 PUSH2 0x2710 DUP7 PUSH2 0x1B45 JUMP JUMPDEST PUSH2 0x1011 SWAP2 SWAP1 PUSH2 0x1B5C JUMP JUMPDEST SWAP4 SWAP6 SWAP3 SWAP5 POP POP POP JUMP JUMPDEST PUSH1 0x3 PUSH1 0x20 MSTORE DUP2 PUSH0 MSTORE PUSH1 0x40 PUSH0 KECCAK256 DUP2 DUP2 SLOAD DUP2 LT PUSH2 0x1033 JUMPI PUSH0 DUP1 REVERT JUMPDEST PUSH0 SWAP2 DUP3 MSTORE PUSH1 0x20 SWAP1 SWAP2 KECCAK256 ADD SLOAD PUSH1 0x1 PUSH1 0x1 PUSH1 0xA0 SHL SUB AND SWAP2 POP DUP3 SWAP1 POP JUMP JUMPDEST PUSH0 DUP2 GT DUP1 ISZERO PUSH2 0x105E JUMPI POP PUSH0 SLOAD DUP2 GT ISZERO JUMPDEST PUSH2 0x10AA JUMPI PUSH1 0x40 MLOAD PUSH3 0x461BCD PUSH1 0xE5 SHL DUP2 MSTORE PUSH1 0x20 PUSH1 0x4 DUP3 ADD MSTORE PUSH1 0x1B PUSH1 0x24 DUP3 ADD MSTORE PUSH32 0x43563A2070726F706F73616C20646F6573206E6F742065786973740000000000 PUSH1 0x44 DUP3 ADD MSTORE PUSH1 0x64 ADD PUSH2 0x5DB JUMP JUMPDEST PUSH0 DUP2 DUP2 MSTORE PUSH1 0x1 PUSH1 0x20 MSTORE PUSH1 0x40 DUP2 KECCAK256 SWAP1 PUSH1 0x1 DUP3 ADD SLOAD PUSH1 0x1 PUSH1 0xA8 SHL SWAP1 DIV PUSH1 0xFF AND PUSH1 0x4 DUP2 GT ISZERO PUSH2 0x10D8 JUMPI PUSH2 0x10D8 PUSH2 0x16BD JUMP JUMPDEST EQ PUSH2 0x10F9 JUMPI PUSH1 0x40 MLOAD PUSH4 0x44980D8F PUSH1 0xE0 SHL DUP2 MSTORE PUSH1 0x4 DUP2 ADD DUP4 SWAP1 MSTORE PUSH1 0x24 ADD PUSH2 0x5DB JUMP JUMPDEST CALLER PUSH0 SWAP1 DUP2 MSTORE PUSH1 0x2 PUSH1 0x20 MSTORE PUSH1 0x40 DUP2 KECCAK256 DUP1 SLOAD SWAP1 SWAP2 SUB PUSH2 0x1129 JUMPI PUSH1 0x40 MLOAD PUSH4 0x3811779 PUSH1 0xE0 SHL DUP2 MSTORE PUSH1 0x4 ADD PUSH1 0x40 MLOAD DUP1 SWAP2 SUB SWAP1 REVERT JUMPDEST PUSH1 0x3 DUP2 ADD SLOAD ISZERO DUP1 ISZERO SWAP1 PUSH2 0x1140 JUMPI POP DUP3 DUP2 PUSH1 0x3 ADD SLOAD EQ ISZERO JUMPDEST ISZERO PUSH2 0x1166 JUMPI DUP1 PUSH1 0x3 ADD SLOAD PUSH1 0x40 MLOAD PUSH4 0x48E1703F PUSH1 0xE0 SHL DUP2 MSTORE PUSH1 0x4 ADD PUSH2 0x5DB SWAP2 DUP2 MSTORE PUSH1 0x20 ADD SWAP1 JUMP JUMPDEST PUSH1 0x40 DUP1 MLOAD PUSH1 0x80 DUP2 ADD DUP3 MSTORE DUP3 SLOAD DUP2 MSTORE PUSH1 0x1 DUP4 ADD SLOAD PUSH1 0x20 DUP3 ADD MSTORE PUSH1 0x2 DUP4 ADD SLOAD SWAP2 DUP2 ADD SWAP2 SWAP1 SWAP2 MSTORE PUSH1 0x3 DUP3 ADD SLOAD PUSH1 0x60 DUP3 ADD MSTORE PUSH0 SWAP1 PUSH2 0x119F SWAP1 PUSH2 0x1581 JUMP JUMPDEST PUSH1 0x1 DUP4 ADD DUP2 SWAP1 SSTORE NUMBER PUSH1 0x2 DUP5 ADD SSTORE PUSH1 0x3 DUP4 ADD DUP6 SWAP1 SSTORE PUSH1 0x6 DUP5 ADD DUP1 SLOAD SWAP2 SWAP3 POP DUP3 SWAP2 PUSH0 SWAP1 PUSH2 0x11CB SWAP1 DUP5 SWAP1 PUSH2 0x1CFF JUMP JUMPDEST SWAP1 SWAP2 SSTORE POP POP NUMBER PUSH1 0x8 DUP5 ADD SSTORE PUSH0 DUP5 DUP2 MSTORE PUSH1 0x3 PUSH1 0x20 SWAP1 DUP2 MSTORE PUSH1 0x40 DUP1 DUP4 KECCAK256 DUP1 SLOAD PUSH1 0x1 DUP2 ADD DUP3 SSTORE SWAP1 DUP5 MSTORE SWAP3 DUP3 SWAP1 KECCAK256 SWAP1 SWAP3 ADD DUP1 SLOAD PUSH1 0x1 PUSH1 0x1 PUSH1 0xA0 SHL SUB NOT AND CALLER SWAP1 DUP2 OR SWAP1 SWAP2 SSTORE PUSH1 0x6 DUP7 ADD SLOAD DUP4 MLOAD DUP6 DUP2 MSTORE SWAP3 DUP4 ADD MSTORE SWAP2 DUP7 SWAP2 PUSH32 0x1C1428CE38ED044320C623421A5E5D4D149E81C8DD4E7D8B1919C270BF7BBA8 SWAP2 ADD PUSH1 0x40 MLOAD DUP1 SWAP2 SUB SWAP1 LOG3 PUSH2 0x1250 DUP5 PUSH2 0x1605 JUMP JUMPDEST POP POP POP POP JUMP JUMPDEST PUSH2 0x12C4 PUSH1 0x40 DUP1 MLOAD PUSH2 0x1A0 DUP2 ADD DUP3 MSTORE PUSH0 DUP1 DUP3 MSTORE PUSH1 0x20 DUP3 ADD DUP2 SWAP1 MSTORE SWAP1 SWAP2 DUP3 ADD SWAP1 DUP2 MSTORE PUSH1 0x20 ADD PUSH0 DUP2 MSTORE PUSH1 0x20 ADD PUSH1 0x60 DUP2 MSTORE PUSH1 0x20 ADD PUSH1 0x60 DUP2 MSTORE PUSH1 0x20 ADD PUSH1 0x60 DUP2 MSTORE PUSH1 0x20 ADD PUSH0 PUSH1 0x1 PUSH1 0x1 PUSH1 0xA0 SHL SUB AND DUP2 MSTORE PUSH1 0x20 ADD PUSH0 DUP2 MSTORE PUSH1 0x20 ADD PUSH0 DUP2 MSTORE PUSH1 0x20 ADD PUSH0 DUP2 MSTORE PUSH1 0x20 ADD PUSH0 DUP2 MSTORE PUSH1 0x20 ADD PUSH0 ISZERO ISZERO DUP2 MSTORE POP SWAP1 JUMP JUMPDEST PUSH0 DUP3 DUP2 MSTORE PUSH1 0x1 PUSH1 0x20 DUP2 DUP2 MSTORE PUSH1 0x40 SWAP3 DUP4 SWAP1 KECCAK256 DUP4 MLOAD PUSH2 0x1A0 DUP2 ADD DUP6 MSTORE DUP2 SLOAD DUP2 MSTORE SWAP3 DUP2 ADD SLOAD PUSH1 0x1 PUSH1 0x1 PUSH1 0xA0 SHL SUB DUP2 AND SWAP3 DUP5 ADD SWAP3 SWAP1 SWAP3 MSTORE SWAP2 SWAP3 DUP4 ADD SWAP1 PUSH1 0x1 PUSH1 0xA0 SHL SWAP1 DIV PUSH1 0xFF AND PUSH1 0x3 DUP2 GT ISZERO PUSH2 0x1317 JUMPI PUSH2 0x1317 PUSH2 0x16BD JUMP JUMPDEST PUSH1 0x3 DUP2 GT ISZERO PUSH2 0x1328 JUMPI PUSH2 0x1328 PUSH2 0x16BD JUMP JUMPDEST DUP2 MSTORE PUSH1 0x20 ADD PUSH1 0x1 DUP3 ADD PUSH1 0x15 SWAP1 SLOAD SWAP1 PUSH2 0x100 EXP SWAP1 DIV PUSH1 0xFF AND PUSH1 0x4 DUP2 GT ISZERO PUSH2 0x1350 JUMPI PUSH2 0x1350 PUSH2 0x16BD JUMP JUMPDEST PUSH1 0x4 DUP2 GT ISZERO PUSH2 0x1361 JUMPI PUSH2 0x1361 PUSH2 0x16BD JUMP JUMPDEST DUP2 MSTORE PUSH1 0x20 ADD PUSH1 0x2 DUP3 ADD DUP1 SLOAD PUSH2 0x1375 SWAP1 PUSH2 0x1A5C JUMP JUMPDEST DUP1 PUSH1 0x1F ADD PUSH1 0x20 DUP1 SWAP2 DIV MUL PUSH1 0x20 ADD PUSH1 0x40 MLOAD SWAP1 DUP2 ADD PUSH1 0x40 MSTORE DUP1 SWAP3 SWAP2 SWAP1 DUP2 DUP2 MSTORE PUSH1 0x20 ADD DUP3 DUP1 SLOAD PUSH2 0x13A1 SWAP1 PUSH2 0x1A5C JUMP JUMPDEST DUP1 ISZERO PUSH2 0x13EC JUMPI DUP1 PUSH1 0x1F LT PUSH2 0x13C3 JUMPI PUSH2 0x100 DUP1 DUP4 SLOAD DIV MUL DUP4 MSTORE SWAP2 PUSH1 0x20 ADD SWAP2 PUSH2 0x13EC JUMP JUMPDEST DUP3 ADD SWAP2 SWAP1 PUSH0 MSTORE PUSH1 0x20 PUSH0 KECCAK256 SWAP1 JUMPDEST DUP2 SLOAD DUP2 MSTORE SWAP1 PUSH1 0x1 ADD SWAP1 PUSH1 0x20 ADD DUP1 DUP4 GT PUSH2 0x13CF JUMPI DUP3 SWAP1 SUB PUSH1 0x1F AND DUP3 ADD SWAP2 JUMPDEST POP POP POP POP POP DUP2 MSTORE PUSH1 0x20 ADD PUSH1 0x3 DUP3 ADD DUP1 SLOAD PUSH2 0x1405 SWAP1 PUSH2 0x1A5C JUMP JUMPDEST DUP1 PUSH1 0x1F ADD PUSH1 0x20 DUP1 SWAP2 DIV MUL PUSH1 0x20 ADD PUSH1 0x40 MLOAD SWAP1 DUP2 ADD PUSH1 0x40 MSTORE DUP1 SWAP3 SWAP2 SWAP1 DUP2 DUP2 MSTORE PUSH1 0x20 ADD DUP3 DUP1 SLOAD PUSH2 0x1431 SWAP1 PUSH2 0x1A5C JUMP JUMPDEST DUP1 ISZERO PUSH2 0x147C JUMPI DUP1 PUSH1 0x1F LT PUSH2 0x1453 JUMPI PUSH2 0x100 DUP1 DUP4 SLOAD DIV MUL DUP4 MSTORE SWAP2 PUSH1 0x20 ADD SWAP2 PUSH2 0x147C JUMP JUMPDEST DUP3 ADD SWAP2 SWAP1 PUSH0 MSTORE PUSH1 0x20 PUSH0 KECCAK256 SWAP1 JUMPDEST DUP2 SLOAD DUP2 MSTORE SWAP1 PUSH1 0x1 ADD SWAP1 PUSH1 0x20 ADD DUP1 DUP4 GT PUSH2 0x145F JUMPI DUP3 SWAP1 SUB PUSH1 0x1F AND DUP3 ADD SWAP2 JUMPDEST POP POP POP POP POP DUP2 MSTORE PUSH1 0x20 ADD PUSH1 0x4 DUP3 ADD DUP1 SLOAD PUSH2 0x1495 SWAP1 PUSH2 0x1A5C JUMP JUMPDEST DUP1 PUSH1 0x1F ADD PUSH1 0x20 DUP1 SWAP2 DIV MUL PUSH1 0x20 ADD PUSH1 0x40 MLOAD SWAP1 DUP2 ADD PUSH1 0x40 MSTORE DUP1 SWAP3 SWAP2 SWAP1 DUP2 DUP2 MSTORE PUSH1 0x20 ADD DUP3 DUP1 SLOAD PUSH2 0x14C1 SWAP1 PUSH2 0x1A5C JUMP JUMPDEST DUP1 ISZERO PUSH2 0x150C JUMPI DUP1 PUSH1 0x1F LT PUSH2 0x14E3 JUMPI PUSH2 0x100 DUP1 DUP4 SLOAD DIV MUL DUP4 MSTORE SWAP2 PUSH1 0x20 ADD SWAP2 PUSH2 0x150C JUMP JUMPDEST DUP3 ADD SWAP2 SWAP1 PUSH0 MSTORE PUSH1 0x20 PUSH0 KECCAK256 SWAP1 JUMPDEST DUP2 SLOAD DUP2 MSTORE SWAP1 PUSH1 0x1 ADD SWAP1 PUSH1 0x20 ADD DUP1 DUP4 GT PUSH2 0x14EF JUMPI DUP3 SWAP1 SUB PUSH1 0x1F AND DUP3 ADD SWAP2 JUMPDEST POP POP POP SWAP2 DUP4 MSTORE POP POP PUSH1 0x5 DUP3 ADD SLOAD PUSH1 0x1 PUSH1 0x1 PUSH1 0xA0 SHL SUB AND PUSH1 0x20 DUP3 ADD MSTORE PUSH1 0x6 DUP3 ADD SLOAD PUSH1 0x40 DUP3 ADD MSTORE PUSH1 0x7 DUP3 ADD SLOAD PUSH1 0x60 DUP3 ADD MSTORE PUSH1 0x8 DUP3 ADD SLOAD PUSH1 0x80 DUP3 ADD MSTORE PUSH1 0x9 DUP3 ADD SLOAD PUSH1 0xA0 DUP3 ADD MSTORE PUSH1 0xA SWAP1 SWAP2 ADD SLOAD PUSH1 0xFF AND ISZERO ISZERO PUSH1 0xC0 SWAP1 SWAP2 ADD MSTORE SWAP3 SWAP2 POP POP JUMP JUMPDEST PUSH2 0x156E PUSH2 0x1675 JUMP JUMPDEST PUSH1 0x2 PUSH0 DUP1 MLOAD PUSH1 0x20 PUSH2 0x1D13 DUP4 CODECOPY DUP2 MLOAD SWAP2 MSTORE SSTORE JUMP JUMPDEST DUP1 MLOAD PUSH0 SWAP1 DUP2 SUB PUSH2 0x1592 JUMPI POP PUSH0 SWAP2 SWAP1 POP JUMP JUMPDEST DUP2 PUSH1 0x40 ADD MLOAD PUSH0 SUB PUSH2 0x15A4 JUMPI POP PUSH0 SWAP2 SWAP1 POP JUMP JUMPDEST PUSH0 DUP3 PUSH1 0x40 ADD MLOAD NUMBER PUSH2 0x15B5 SWAP2 SWAP1 PUSH2 0x1AA8 JUMP JUMPDEST SWAP1 POP PUSH0 PUSH3 0xF4240 DUP5 PUSH0 ADD MLOAD PUSH2 0x15CA SWAP2 SWAP1 PUSH2 0x1B45 JUMP JUMPDEST SWAP1 POP PUSH0 DUP3 DUP6 PUSH0 ADD MLOAD PUSH2 0x15DC SWAP2 SWAP1 PUSH2 0x1B45 JUMP JUMPDEST DUP6 PUSH1 0x20 ADD MLOAD PUSH2 0x15EB SWAP2 SWAP1 PUSH2 0x1CFF JUMP JUMPDEST SWAP1 POP DUP2 DUP2 GT PUSH2 0x15FA JUMPI DUP1 PUSH2 0x15FC JUMP JUMPDEST DUP2 JUMPDEST SWAP6 SWAP5 POP POP POP POP POP JUMP JUMPDEST PUSH0 DUP2 DUP2 MSTORE PUSH1 0x1 PUSH1 0x20 MSTORE PUSH1 0x40 SWAP1 KECCAK256 PUSH1 0x9 DUP2 ADD SLOAD PUSH1 0x6 DUP3 ADD SLOAD LT PUSH2 0x1671 JUMPI PUSH1 0x1 DUP2 ADD DUP1 SLOAD PUSH1 0xFF PUSH1 0xA8 SHL NOT AND PUSH1 0x1 PUSH1 0xA8 SHL OR SWAP1 SSTORE PUSH1 0x6 DUP2 ADD SLOAD PUSH1 0x40 MLOAD SWAP1 DUP2 MSTORE DUP3 SWAP1 PUSH32 0x646E6C03C7AF143A9A24603E3ED75695BB683446C464BFD940BE5832660F7BD0 SWAP1 PUSH1 0x20 ADD PUSH1 0x40 MLOAD DUP1 SWAP2 SUB SWAP1 LOG2 JUMPDEST POP POP JUMP JUMPDEST PUSH0 DUP1 MLOAD PUSH1 0x20 PUSH2 0x1D13 DUP4 CODECOPY DUP2 MLOAD SWAP2 MSTORE SLOAD PUSH1 0x2 SUB PUSH2 0x16A4 JUMPI PUSH1 0x40 MLOAD PUSH4 0x3EE5AEB5 PUSH1 0xE0 SHL DUP2 MSTORE PUSH1 0x4 ADD PUSH1 0x40 MLOAD DUP1 SWAP2 SUB SWAP1 REVERT JUMPDEST JUMP JUMPDEST PUSH0 PUSH1 0x20 DUP3 DUP5 SUB SLT ISZERO PUSH2 0x16B6 JUMPI PUSH0 DUP1 REVERT JUMPDEST POP CALLDATALOAD SWAP2 SWAP1 POP JUMP JUMPDEST PUSH4 0x4E487B71 PUSH1 0xE0 SHL PUSH0 MSTORE PUSH1 0x21 PUSH1 0x4 MSTORE PUSH1 0x24 PUSH0 REVERT JUMPDEST PUSH1 0x4 DUP2 LT PUSH2 0x16E1 JUMPI PUSH2 0x16E1 PUSH2 0x16BD JUMP JUMPDEST SWAP1 MSTORE JUMP JUMPDEST PUSH1 0x5 DUP2 LT PUSH2 0x16E1 JUMPI PUSH2 0x16E1 PUSH2 0x16BD JUMP JUMPDEST PUSH0 DUP2 MLOAD DUP1 DUP5 MSTORE PUSH0 JUMPDEST DUP2 DUP2 LT ISZERO PUSH2 0x1719 JUMPI PUSH1 0x20 DUP2 DUP6 ADD DUP2 ADD MLOAD DUP7 DUP4 ADD DUP3 ADD MSTORE ADD PUSH2 0x16FD JUMP JUMPDEST POP PUSH0 PUSH1 0x20 DUP3 DUP7 ADD ADD MSTORE PUSH1 0x20 PUSH1 0x1F NOT PUSH1 0x1F DUP4 ADD AND DUP6 ADD ADD SWAP2 POP POP SWAP3 SWAP2 POP POP JUMP JUMPDEST DUP14 DUP2 MSTORE PUSH1 0x1 PUSH1 0x1 PUSH1 0xA0 SHL SUB DUP14 AND PUSH1 0x20 DUP3 ADD MSTORE PUSH0 PUSH2 0x1A0 PUSH2 0x175B PUSH1 0x40 DUP5 ADD DUP16 PUSH2 0x16D1 JUMP JUMPDEST PUSH2 0x1768 PUSH1 0x60 DUP5 ADD DUP15 PUSH2 0x16E5 JUMP JUMPDEST DUP1 PUSH1 0x80 DUP5 ADD MSTORE PUSH2 0x177A DUP2 DUP5 ADD DUP14 PUSH2 0x16F5 JUMP JUMPDEST SWAP1 POP DUP3 DUP2 SUB PUSH1 0xA0 DUP5 ADD MSTORE PUSH2 0x178E DUP2 DUP13 PUSH2 0x16F5 JUMP JUMPDEST SWAP1 POP DUP3 DUP2 SUB PUSH1 0xC0 DUP5 ADD MSTORE PUSH2 0x17A2 DUP2 DUP12 PUSH2 0x16F5 JUMP JUMPDEST SWAP2 POP POP PUSH2 0x17BA PUSH1 0xE0 DUP4 ADD DUP10 PUSH1 0x1 PUSH1 0x1 PUSH1 0xA0 SHL SUB AND SWAP1 MSTORE JUMP JUMPDEST DUP7 PUSH2 0x100 DUP4 ADD MSTORE DUP6 PUSH2 0x120 DUP4 ADD MSTORE DUP5 PUSH2 0x140 DUP4 ADD MSTORE DUP4 PUSH2 0x160 DUP4 ADD MSTORE PUSH2 0x17E5 PUSH2 0x180 DUP4 ADD DUP5 ISZERO ISZERO SWAP1 MSTORE JUMP JUMPDEST SWAP15 SWAP14 POP POP POP POP POP POP POP POP POP POP POP POP POP POP JUMP JUMPDEST DUP1 CALLDATALOAD PUSH1 0x1 PUSH1 0x1 PUSH1 0xA0 SHL SUB DUP2 AND DUP2 EQ PUSH2 0x180D JUMPI PUSH0 DUP1 REVERT JUMPDEST SWAP2 SWAP1 POP JUMP JUMPDEST PUSH0 PUSH1 0x20 DUP3 DUP5 SUB SLT ISZERO PUSH2 0x1822 JUMPI PUSH0 DUP1 REVERT JUMPDEST PUSH2 0x182B DUP3 PUSH2 0x17F7 JUMP JUMPDEST SWAP4 SWAP3 POP POP POP JUMP JUMPDEST PUSH0 DUP1 DUP4 PUSH1 0x1F DUP5 ADD SLT PUSH2 0x1842 JUMPI PUSH0 DUP1 REVERT JUMPDEST POP DUP2 CALLDATALOAD PUSH8 0xFFFFFFFFFFFFFFFF DUP2 GT ISZERO PUSH2 0x1859 JUMPI PUSH0 DUP1 REVERT JUMPDEST PUSH1 0x20 DUP4 ADD SWAP2 POP DUP4 PUSH1 0x20 DUP3 DUP6 ADD ADD GT ISZERO PUSH2 0x1870 JUMPI PUSH0 DUP1 REVERT JUMPDEST SWAP3 POP SWAP3 SWAP1 POP JUMP JUMPDEST PUSH0 DUP1 PUSH0 DUP1 PUSH0 DUP1 PUSH0 DUP1 PUSH1 0xA0 DUP10 DUP12 SUB SLT ISZERO PUSH2 0x188E JUMPI PUSH0 DUP1 REVERT JUMPDEST DUP9 CALLDATALOAD PUSH1 0x4 DUP2 LT PUSH2 0x189C JUMPI PUSH0 DUP1 REVERT JUMPDEST SWAP8 POP PUSH1 0x20 DUP10 ADD CALLDATALOAD PUSH8 0xFFFFFFFFFFFFFFFF DUP1 DUP3 GT ISZERO PUSH2 0x18B8 JUMPI PUSH0 DUP1 REVERT JUMPDEST PUSH2 0x18C4 DUP13 DUP4 DUP14 ADD PUSH2 0x1832 JUMP JUMPDEST SWAP1 SWAP10 POP SWAP8 POP PUSH1 0x40 DUP12 ADD CALLDATALOAD SWAP2 POP DUP1 DUP3 GT ISZERO PUSH2 0x18DC JUMPI PUSH0 DUP1 REVERT JUMPDEST PUSH2 0x18E8 DUP13 DUP4 DUP14 ADD PUSH2 0x1832 JUMP JUMPDEST SWAP1 SWAP8 POP SWAP6 POP DUP6 SWAP2 POP PUSH2 0x18FC PUSH1 0x60 DUP13 ADD PUSH2 0x17F7 JUMP JUMPDEST SWAP5 POP PUSH1 0x80 DUP12 ADD CALLDATALOAD SWAP2 POP DUP1 DUP3 GT ISZERO PUSH2 0x1911 JUMPI PUSH0 DUP1 REVERT JUMPDEST POP PUSH2 0x191E DUP12 DUP3 DUP13 ADD PUSH2 0x1832 JUMP JUMPDEST SWAP10 SWAP13 SWAP9 SWAP12 POP SWAP7 SWAP10 POP SWAP5 SWAP8 SWAP4 SWAP7 SWAP3 SWAP6 SWAP5 POP POP POP JUMP JUMPDEST PUSH0 DUP1 PUSH1 0x40 DUP4 DUP6 SUB SLT ISZERO PUSH2 0x1943 JUMPI PUSH0 DUP1 REVERT JUMPDEST POP POP DUP1 CALLDATALOAD SWAP3 PUSH1 0x20 SWAP1 SWAP2 ADD CALLDATALOAD SWAP2 POP JUMP JUMPDEST PUSH1 0x20 DUP2 MSTORE DUP2 MLOAD PUSH1 0x20 DUP3 ADD MSTORE PUSH0 PUSH1 0x20 DUP4 ADD MLOAD PUSH2 0x1978 PUSH1 0x40 DUP5 ADD DUP3 PUSH1 0x1 PUSH1 0x1 PUSH1 0xA0 SHL SUB AND SWAP1 MSTORE JUMP JUMPDEST POP PUSH1 0x40 DUP4 ADD MLOAD PUSH2 0x198B PUSH1 0x60 DUP5 ADD DUP3 PUSH2 0x16D1 JUMP JUMPDEST POP PUSH1 0x60 DUP4 ADD MLOAD PUSH2 0x199E PUSH1 0x80 DUP5 ADD DUP3 PUSH2 0x16E5 JUMP JUMPDEST POP PUSH1 0x80 DUP4 ADD MLOAD PUSH2 0x1A0 DUP1 PUSH1 0xA0 DUP6 ADD MSTORE PUSH2 0x19BB PUSH2 0x1C0 DUP6 ADD DUP4 PUSH2 0x16F5 JUMP JUMPDEST SWAP2 POP PUSH1 0xA0 DUP6 ADD MLOAD PUSH1 0x1F NOT DUP1 DUP7 DUP6 SUB ADD PUSH1 0xC0 DUP8 ADD MSTORE PUSH2 0x19D9 DUP5 DUP4 PUSH2 0x16F5 JUMP JUMPDEST SWAP4 POP PUSH1 0xC0 DUP8 ADD MLOAD SWAP2 POP DUP1 DUP7 DUP6 SUB ADD PUSH1 0xE0 DUP8 ADD MSTORE POP PUSH2 0x19F7 DUP4 DUP3 PUSH2 0x16F5 JUMP JUMPDEST SWAP3 POP POP PUSH1 0xE0 DUP6 ADD MLOAD PUSH2 0x100 PUSH2 0x1A16 DUP2 DUP8 ADD DUP4 PUSH1 0x1 PUSH1 0x1 PUSH1 0xA0 SHL SUB AND SWAP1 MSTORE JUMP JUMPDEST DUP7 ADD MLOAD PUSH2 0x120 DUP7 DUP2 ADD SWAP2 SWAP1 SWAP2 MSTORE DUP7 ADD MLOAD PUSH2 0x140 DUP1 DUP8 ADD SWAP2 SWAP1 SWAP2 MSTORE DUP7 ADD MLOAD PUSH2 0x160 DUP1 DUP8 ADD SWAP2 SWAP1 SWAP2 MSTORE DUP7 ADD MLOAD PUSH2 0x180 DUP1 DUP8 ADD SWAP2 SWAP1 SWAP2 MSTORE SWAP1 SWAP6 ADD MLOAD ISZERO ISZERO SWAP4 ADD SWAP3 SWAP1 SWAP3 MSTORE POP SWAP2 SWAP1 POP JUMP JUMPDEST PUSH1 0x1 DUP2 DUP2 SHR SWAP1 DUP3 AND DUP1 PUSH2 0x1A70 JUMPI PUSH1 0x7F DUP3 AND SWAP2 POP JUMPDEST PUSH1 0x20 DUP3 LT DUP2 SUB PUSH2 0x1A8E JUMPI PUSH4 0x4E487B71 PUSH1 0xE0 SHL PUSH0 MSTORE PUSH1 0x22 PUSH1 0x4 MSTORE PUSH1 0x24 PUSH0 REVERT JUMPDEST POP SWAP2 SWAP1 POP JUMP JUMPDEST PUSH4 0x4E487B71 PUSH1 0xE0 SHL PUSH0 MSTORE PUSH1 0x11 PUSH1 0x4 MSTORE PUSH1 0x24 PUSH0 REVERT JUMPDEST DUP2 DUP2 SUB DUP2 DUP2 GT ISZERO PUSH2 0xDB7 JUMPI PUSH2 0xDB7 PUSH2 0x1A94 JUMP JUMPDEST PUSH0 DUP1 DUP4 SLOAD PUSH2 0x1AC8 DUP2 PUSH2 0x1A5C JUMP JUMPDEST PUSH1 0x1 DUP3 DUP2 AND DUP1 ISZERO PUSH2 0x1AE0 JUMPI PUSH1 0x1 DUP2 EQ PUSH2 0x1AF5 JUMPI PUSH2 0x1B21 JUMP JUMPDEST PUSH1 0xFF NOT DUP5 AND DUP8 MSTORE DUP3 ISZERO ISZERO DUP4 MUL DUP8 ADD SWAP5 POP PUSH2 0x1B21 JUMP JUMPDEST DUP8 PUSH0 MSTORE PUSH1 0x20 DUP1 PUSH0 KECCAK256 PUSH0 JUMPDEST DUP6 DUP2 LT ISZERO PUSH2 0x1B18 JUMPI DUP2 SLOAD DUP11 DUP3 ADD MSTORE SWAP1 DUP5 ADD SWAP1 DUP3 ADD PUSH2 0x1AFF JUMP JUMPDEST POP POP POP DUP3 DUP8 ADD SWAP5 POP JUMPDEST POP SWAP3 SWAP7 SWAP6 POP POP POP POP POP POP JUMP JUMPDEST PUSH0 PUSH1 0x1 DUP3 ADD PUSH2 0x1B3E JUMPI PUSH2 0x1B3E PUSH2 0x1A94 JUMP JUMPDEST POP PUSH1 0x1 ADD SWAP1 JUMP JUMPDEST DUP1 DUP3 MUL DUP2 ISZERO DUP3 DUP3 DIV DUP5 EQ OR PUSH2 0xDB7 JUMPI PUSH2 0xDB7 PUSH2 0x1A94 JUMP JUMPDEST PUSH0 DUP3 PUSH2 0x1B76 JUMPI PUSH4 0x4E487B71 PUSH1 0xE0 SHL PUSH0 MSTORE PUSH1 0x12 PUSH1 0x4 MSTORE PUSH1 0x24 PUSH0 REVERT JUMPDEST POP DIV SWAP1 JUMP JUMPDEST PUSH4 0x4E487B71 PUSH1 0xE0 SHL PUSH0 MSTORE PUSH1 0x41 PUSH1 0x4 MSTORE PUSH1 0x24 PUSH0 REVERT JUMPDEST PUSH1 0x1F DUP3 GT ISZERO PUSH2 0x1BD6 JUMPI DUP1 PUSH0 MSTORE PUSH1 0x20 PUSH0 KECCAK256 PUSH1 0x1F DUP5 ADD PUSH1 0x5 SHR DUP2 ADD PUSH1 0x20 DUP6 LT ISZERO PUSH2 0x1BB4 JUMPI POP DUP1 JUMPDEST PUSH1 0x1F DUP5 ADD PUSH1 0x5 SHR DUP3 ADD SWAP2 POP JUMPDEST DUP2 DUP2 LT ISZERO PUSH2 0x1BD3 JUMPI PUSH0 DUP2 SSTORE PUSH1 0x1 ADD PUSH2 0x1BC0 JUMP JUMPDEST POP POP JUMPDEST POP POP POP JUMP JUMPDEST DUP2 MLOAD PUSH8 0xFFFFFFFFFFFFFFFF DUP2 GT ISZERO PUSH2 0x1BF5 JUMPI PUSH2 0x1BF5 PUSH2 0x1B7B JUMP JUMPDEST PUSH2 0x1C09 DUP2 PUSH2 0x1C03 DUP5 SLOAD PUSH2 0x1A5C JUMP JUMPDEST DUP5 PUSH2 0x1B8F JUMP JUMPDEST PUSH1 0x20 DUP1 PUSH1 0x1F DUP4 GT PUSH1 0x1 DUP2 EQ PUSH2 0x1C3C JUMPI PUSH0 DUP5 ISZERO PUSH2 0x1C25 JUMPI POP DUP6 DUP4 ADD MLOAD JUMPDEST PUSH0 NOT PUSH1 0x3 DUP7 SWAP1 SHL SHR NOT AND PUSH1 0x1 DUP6 SWAP1 SHL OR DUP6 SSTORE PUSH2 0x1C93 JUMP JUMPDEST PUSH0 DUP6 DUP2 MSTORE PUSH1 0x20 DUP2 KECCAK256 PUSH1 0x1F NOT DUP7 AND SWAP2 JUMPDEST DUP3 DUP2 LT ISZERO PUSH2 0x1C6A JUMPI DUP9 DUP7 ADD MLOAD DUP3 SSTORE SWAP5 DUP5 ADD SWAP5 PUSH1 0x1 SWAP1 SWAP2 ADD SWAP1 DUP5 ADD PUSH2 0x1C4B JUMP JUMPDEST POP DUP6 DUP3 LT ISZERO PUSH2 0x1C87 JUMPI DUP8 DUP6 ADD MLOAD PUSH0 NOT PUSH1 0x3 DUP9 SWAP1 SHL PUSH1 0xF8 AND SHR NOT AND DUP2 SSTORE JUMPDEST POP POP PUSH1 0x1 DUP5 PUSH1 0x1 SHL ADD DUP6 SSTORE JUMPDEST POP POP POP POP POP POP JUMP JUMPDEST PUSH2 0x1CA5 DUP2 DUP7 PUSH2 0x16D1 JUMP JUMPDEST PUSH1 0x60 PUSH1 0x20 DUP3 ADD MSTORE DUP3 PUSH1 0x60 DUP3 ADD MSTORE DUP3 DUP5 PUSH1 0x80 DUP4 ADD CALLDATACOPY PUSH0 PUSH1 0x80 DUP5 DUP4 ADD ADD MSTORE PUSH0 PUSH1 0x80 PUSH1 0x1F NOT PUSH1 0x1F DUP7 ADD AND DUP4 ADD ADD SWAP1 POP DUP3 PUSH1 0x40 DUP4 ADD MSTORE SWAP6 SWAP5 POP POP POP POP POP JUMP JUMPDEST PUSH0 PUSH1 0x20 DUP3 DUP5 SUB SLT ISZERO PUSH2 0x1CF0 JUMPI PUSH0 DUP1 REVERT JUMPDEST DUP2 MLOAD DUP1 ISZERO ISZERO DUP2 EQ PUSH2 0x182B JUMPI PUSH0 DUP1 REVERT JUMPDEST DUP1 DUP3 ADD DUP1 DUP3 GT ISZERO PUSH2 0xDB7 JUMPI PUSH2 0xDB7 PUSH2 0x1A94 JUMP INVALID SWAP12 PUSH24 0x9B17422D0DF92223018B32B4D1FA46E071723D6817E2486D STOP EXTCODESIZE 0xEC 0xC5 PUSH0 STOP LOG2 PUSH5 0x6970667358 0x22 SLT KECCAK256 PUSH12 0xC13A61CBAA62C3B84E50222E DUP9 PUSH28 0xFB88A5638A9FE00C8357271CDFDD20D32264736F6C63430008180033 "},"methodIdentifiers":{"BPS_DENOMINATOR()":"e1a45218","DECAY_DENOMINATOR()":"3f25575f","DECAY_NUMERATOR()":"fd24f834","EMERGENCY_QUORUM_BPS()":"9bfc3500","MAX_CONVICTION_PER_TOKEN()":"81b2619e","MIN_CONVICTION_BLOCKS()":"29890167","ORACLE_QUORUM_BPS()":"70349cba","STANDARD_QUORUM_BPS()":"995c37d6","allocateConviction(uint256)":"ad14a23c","createProposal(uint8,string,string,address,bytes)":"5bb3e1d5","executeProposal(uint256)":"0d61b519","gaiaToken()":"24009b78","getProposal(uint256)":"c7f758a8","getProposalProgress(uint256)":"914897f4","getVoterConviction(address)":"7a5a5786","lockTokens(uint256)":"6e27d889","proposalCounter()":"0c0512e9","proposalVoters(uint256,uint256)":"ab89437c","proposals(uint256)":"013cf08b","totalGlobalConviction()":"4150e034","totalLockedTokens()":"f5c476f9","unlockTokens(uint256)":"7c405325","voterStates(address)":"0b5e450f","withdrawConviction(uint256)":"3b904c51"}}}}}