{"contracts/mocks/MockValidationPool.sol":{"MockValidationPool":{"abi":[{"inputs":[{"internalType":"address","name":"taskRegistry","type":"address"},{"internalType":"uint256","name":"taskId","type":"uint256"},{"internalType":"address[]","name":"miners","type":"address[]"}],"name":"assignMiners","outputs":[],"stateMutability":"nonpayable","type":"function"},{"inputs":[{"internalType":"address","name":"taskRegistry","type":"address"},{"internalType":"uint256","name":"taskId","type":"uint256"},{"internalType":"string","name":"reason","type":"string"}],"name":"finalizeTaskFailed","outputs":[],"stateMutability":"nonpayable","type":"function"},{"inputs":[{"internalType":"address","name":"taskRegistry","type":"address"},{"internalType":"uint256","name":"taskId","type":"uint256"},{"internalType":"bytes32","name":"agreedFingerprint","type":"bytes32"},{"internalType":"address[]","name":"slashedMiners","type":"address[]"}],"name":"finalizeTaskVerified","outputs":[],"stateMutability":"nonpayable","type":"function"}],"evm":{"bytecode":{"linkReferences":{},"object":"608060405234801561000f575f80fd5b506105f98061001d5f395ff3fe608060405234801561000f575f80fd5b506004361061003f575f3560e01c80632bf8c37314610043578063835b389c14610058578063a2b685161461006b575b5f80fd5b610056610051366004610399565b61007e565b005b6100566100663660046103ef565b610164565b61005661007936600461046f565b610248565b5f846001600160a01b031684848460405160240161009e93929190610517565b60408051601f198184030181529181526020820180516001600160e01b0316634e1e462960e01b179052516100d39190610539565b5f604051808303815f865af19150503d805f811461010c576040519150601f19603f3d011682016040523d82523d5f602084013e610111565b606091505b505090508061015d5760405162461bcd60e51b8152602060048201526013602482015272185cdcda59db935a5b995c9cc819985a5b1959606a1b60448201526064015b60405180910390fd5b5050505050565b5f846001600160a01b031684848460405160240161018493929190610565565b60408051601f198184030181529181526020820180516001600160e01b0316631fcdd3f560e31b179052516101b99190610539565b5f604051808303815f865af19150503d805f81146101f2576040519150601f19603f3d011682016040523d82523d5f602084013e6101f7565b606091505b505090508061015d5760405162461bcd60e51b815260206004820152601960248201527f66696e616c697a655461736b4661696c6564206661696c6564000000000000006044820152606401610154565b5f856001600160a01b03168585858560405160240161026a949392919061059a565b60408051601f198184030181529181526020820180516001600160e01b031663b98e306d60e01b1790525161029f9190610539565b5f604051808303815f865af19150503d805f81146102d8576040519150601f19603f3d011682016040523d82523d5f602084013e6102dd565b606091505b505090508061032e5760405162461bcd60e51b815260206004820152601b60248201527f66696e616c697a655461736b5665726966696564206661696c656400000000006044820152606401610154565b505050505050565b80356001600160a01b038116811461034c575f80fd5b919050565b5f8083601f840112610361575f80fd5b50813567ffffffffffffffff811115610378575f80fd5b6020830191508360208260051b8501011115610392575f80fd5b9250929050565b5f805f80606085870312156103ac575f80fd5b6103b585610336565b935060208501359250604085013567ffffffffffffffff8111156103d7575f80fd5b6103e387828801610351565b95989497509550505050565b5f805f8060608587031215610402575f80fd5b61040b85610336565b935060208501359250604085013567ffffffffffffffff8082111561042e575f80fd5b818701915087601f830112610441575f80fd5b81358181111561044f575f80fd5b886020828501011115610460575f80fd5b95989497505060200194505050565b5f805f805f60808688031215610483575f80fd5b61048c86610336565b94506020860135935060408601359250606086013567ffffffffffffffff8111156104b5575f80fd5b6104c188828901610351565b969995985093965092949392505050565b8183525f60208085019450825f5b8581101561050c576001600160a01b036104f983610336565b16875295820195908201906001016104e0565b509495945050505050565b838152604060208201525f6105306040830184866104d2565b95945050505050565b5f82515f5b81811015610558576020818601810151858301520161053e565b505f920191825250919050565b83815260406020820152816040820152818360608301375f818301606090810191909152601f909201601f1916010192915050565b848152836020820152606060408201525f6105b96060830184866104d2565b969550505050505056fea26469706673582212207e0b912d19d9edd80e2f4e569c28d0fb7b7bd949fbfe40e5d147777c2d8e053464736f6c63430008180033","opcodes":"PUSH1 0x80 PUSH1 0x40 MSTORE CALLVALUE DUP1 ISZERO PUSH2 0xF JUMPI PUSH0 DUP1 REVERT JUMPDEST POP PUSH2 0x5F9 DUP1 PUSH2 0x1D PUSH0 CODECOPY PUSH0 RETURN INVALID PUSH1 0x80 PUSH1 0x40 MSTORE CALLVALUE DUP1 ISZERO PUSH2 0xF JUMPI PUSH0 DUP1 REVERT JUMPDEST POP PUSH1 0x4 CALLDATASIZE LT PUSH2 0x3F JUMPI PUSH0 CALLDATALOAD PUSH1 0xE0 SHR DUP1 PUSH4 0x2BF8C373 EQ PUSH2 0x43 JUMPI DUP1 PUSH4 0x835B389C EQ PUSH2 0x58 JUMPI DUP1 PUSH4 0xA2B68516 EQ PUSH2 0x6B JUMPI JUMPDEST PUSH0 DUP1 REVERT JUMPDEST PUSH2 0x56 PUSH2 0x51 CALLDATASIZE PUSH1 0x4 PUSH2 0x399 JUMP JUMPDEST PUSH2 0x7E JUMP JUMPDEST STOP JUMPDEST PUSH2 0x56 PUSH2 0x66 CALLDATASIZE PUSH1 0x4 PUSH2 0x3EF JUMP JUMPDEST PUSH2 0x164 JUMP JUMPDEST PUSH2 0x56 PUSH2 0x79 CALLDATASIZE PUSH1 0x4 PUSH2 0x46F JUMP JUMPDEST PUSH2 0x248 JUMP JUMPDEST PUSH0 DUP5 PUSH1 0x1 PUSH1 0x1 PUSH1 0xA0 SHL SUB AND DUP5 DUP5 DUP5 PUSH1 0x40 MLOAD PUSH1 0x24 ADD PUSH2 0x9E SWAP4 SWAP3 SWAP2 SWAP1 PUSH2 0x517 JUMP JUMPDEST PUSH1 0x40 DUP1 MLOAD PUSH1 0x1F NOT DUP2 DUP5 SUB ADD DUP2 MSTORE SWAP2 DUP2 MSTORE PUSH1 0x20 DUP3 ADD DUP1 MLOAD PUSH1 0x1 PUSH1 0x1 PUSH1 0xE0 SHL SUB AND PUSH4 0x4E1E4629 PUSH1 0xE0 SHL OR SWAP1 MSTORE MLOAD PUSH2 0xD3 SWAP2 SWAP1 PUSH2 0x539 JUMP JUMPDEST PUSH0 PUSH1 0x40 MLOAD DUP1 DUP4 SUB DUP2 PUSH0 DUP7 GAS CALL SWAP2 POP POP RETURNDATASIZE DUP1 PUSH0 DUP2 EQ PUSH2 0x10C JUMPI PUSH1 0x40 MLOAD SWAP2 POP PUSH1 0x1F NOT PUSH1 0x3F RETURNDATASIZE ADD AND DUP3 ADD PUSH1 0x40 MSTORE RETURNDATASIZE DUP3 MSTORE RETURNDATASIZE PUSH0 PUSH1 0x20 DUP5 ADD RETURNDATACOPY PUSH2 0x111 JUMP JUMPDEST PUSH1 0x60 SWAP2 POP JUMPDEST POP POP SWAP1 POP DUP1 PUSH2 0x15D JUMPI PUSH1 0x40 MLOAD PUSH3 0x461BCD PUSH1 0xE5 SHL DUP2 MSTORE PUSH1 0x20 PUSH1 0x4 DUP3 ADD MSTORE PUSH1 0x13 PUSH1 0x24 DUP3 ADD MSTORE PUSH19 0x185CDCDA59DB935A5B995C9CC819985A5B1959 PUSH1 0x6A SHL PUSH1 0x44 DUP3 ADD MSTORE PUSH1 0x64 ADD JUMPDEST PUSH1 0x40 MLOAD DUP1 SWAP2 SUB SWAP1 REVERT JUMPDEST POP POP POP POP POP JUMP JUMPDEST PUSH0 DUP5 PUSH1 0x1 PUSH1 0x1 PUSH1 0xA0 SHL SUB AND DUP5 DUP5 DUP5 PUSH1 0x40 MLOAD PUSH1 0x24 ADD PUSH2 0x184 SWAP4 SWAP3 SWAP2 SWAP1 PUSH2 0x565 JUMP JUMPDEST PUSH1 0x40 DUP1 MLOAD PUSH1 0x1F NOT DUP2 DUP5 SUB ADD DUP2 MSTORE SWAP2 DUP2 MSTORE PUSH1 0x20 DUP3 ADD DUP1 MLOAD PUSH1 0x1 PUSH1 0x1 PUSH1 0xE0 SHL SUB AND PUSH4 0x1FCDD3F5 PUSH1 0xE3 SHL OR SWAP1 MSTORE MLOAD PUSH2 0x1B9 SWAP2 SWAP1 PUSH2 0x539 JUMP JUMPDEST PUSH0 PUSH1 0x40 MLOAD DUP1 DUP4 SUB DUP2 PUSH0 DUP7 GAS CALL SWAP2 POP POP RETURNDATASIZE DUP1 PUSH0 DUP2 EQ PUSH2 0x1F2 JUMPI PUSH1 0x40 MLOAD SWAP2 POP PUSH1 0x1F NOT PUSH1 0x3F RETURNDATASIZE ADD AND DUP3 ADD PUSH1 0x40 MSTORE RETURNDATASIZE DUP3 MSTORE RETURNDATASIZE PUSH0 PUSH1 0x20 DUP5 ADD RETURNDATACOPY PUSH2 0x1F7 JUMP JUMPDEST PUSH1 0x60 SWAP2 POP JUMPDEST POP POP SWAP1 POP DUP1 PUSH2 0x15D JUMPI PUSH1 0x40 MLOAD PUSH3 0x461BCD PUSH1 0xE5 SHL DUP2 MSTORE PUSH1 0x20 PUSH1 0x4 DUP3 ADD MSTORE PUSH1 0x19 PUSH1 0x24 DUP3 ADD MSTORE PUSH32 0x66696E616C697A655461736B4661696C6564206661696C656400000000000000 PUSH1 0x44 DUP3 ADD MSTORE PUSH1 0x64 ADD PUSH2 0x154 JUMP JUMPDEST PUSH0 DUP6 PUSH1 0x1 PUSH1 0x1 PUSH1 0xA0 SHL SUB AND DUP6 DUP6 DUP6 DUP6 PUSH1 0x40 MLOAD PUSH1 0x24 ADD PUSH2 0x26A SWAP5 SWAP4 SWAP3 SWAP2 SWAP1 PUSH2 0x59A JUMP JUMPDEST PUSH1 0x40 DUP1 MLOAD PUSH1 0x1F NOT DUP2 DUP5 SUB ADD DUP2 MSTORE SWAP2 DUP2 MSTORE PUSH1 0x20 DUP3 ADD DUP1 MLOAD PUSH1 0x1 PUSH1 0x1 PUSH1 0xE0 SHL SUB AND PUSH4 0xB98E306D PUSH1 0xE0 SHL OR SWAP1 MSTORE MLOAD PUSH2 0x29F SWAP2 SWAP1 PUSH2 0x539 JUMP JUMPDEST PUSH0 PUSH1 0x40 MLOAD DUP1 DUP4 SUB DUP2 PUSH0 DUP7 GAS CALL SWAP2 POP POP RETURNDATASIZE DUP1 PUSH0 DUP2 EQ PUSH2 0x2D8 JUMPI PUSH1 0x40 MLOAD SWAP2 POP PUSH1 0x1F NOT PUSH1 0x3F RETURNDATASIZE ADD AND DUP3 ADD PUSH1 0x40 MSTORE RETURNDATASIZE DUP3 MSTORE RETURNDATASIZE PUSH0 PUSH1 0x20 DUP5 ADD RETURNDATACOPY PUSH2 0x2DD JUMP JUMPDEST PUSH1 0x60 SWAP2 POP JUMPDEST POP POP SWAP1 POP DUP1 PUSH2 0x32E JUMPI PUSH1 0x40 MLOAD PUSH3 0x461BCD PUSH1 0xE5 SHL DUP2 MSTORE PUSH1 0x20 PUSH1 0x4 DUP3 ADD MSTORE PUSH1 0x1B PUSH1 0x24 DUP3 ADD MSTORE PUSH32 0x66696E616C697A655461736B5665726966696564206661696C65640000000000 PUSH1 0x44 DUP3 ADD MSTORE PUSH1 0x64 ADD PUSH2 0x154 JUMP JUMPDEST POP POP POP POP POP POP JUMP JUMPDEST DUP1 CALLDATALOAD PUSH1 0x1 PUSH1 0x1 PUSH1 0xA0 SHL SUB DUP2 AND DUP2 EQ PUSH2 0x34C JUMPI PUSH0 DUP1 REVERT JUMPDEST SWAP2 SWAP1 POP JUMP JUMPDEST PUSH0 DUP1 DUP4 PUSH1 0x1F DUP5 ADD SLT PUSH2 0x361 JUMPI PUSH0 DUP1 REVERT JUMPDEST POP DUP2 CALLDATALOAD PUSH8 0xFFFFFFFFFFFFFFFF DUP2 GT ISZERO PUSH2 0x378 JUMPI PUSH0 DUP1 REVERT JUMPDEST PUSH1 0x20 DUP4 ADD SWAP2 POP DUP4 PUSH1 0x20 DUP3 PUSH1 0x5 SHL DUP6 ADD ADD GT ISZERO PUSH2 0x392 JUMPI PUSH0 DUP1 REVERT JUMPDEST SWAP3 POP SWAP3 SWAP1 POP JUMP JUMPDEST PUSH0 DUP1 PUSH0 DUP1 PUSH1 0x60 DUP6 DUP8 SUB SLT ISZERO PUSH2 0x3AC JUMPI PUSH0 DUP1 REVERT JUMPDEST PUSH2 0x3B5 DUP6 PUSH2 0x336 JUMP JUMPDEST SWAP4 POP PUSH1 0x20 DUP6 ADD CALLDATALOAD SWAP3 POP PUSH1 0x40 DUP6 ADD CALLDATALOAD PUSH8 0xFFFFFFFFFFFFFFFF DUP2 GT ISZERO PUSH2 0x3D7 JUMPI PUSH0 DUP1 REVERT JUMPDEST PUSH2 0x3E3 DUP8 DUP3 DUP9 ADD PUSH2 0x351 JUMP JUMPDEST SWAP6 SWAP9 SWAP5 SWAP8 POP SWAP6 POP POP POP POP JUMP JUMPDEST PUSH0 DUP1 PUSH0 DUP1 PUSH1 0x60 DUP6 DUP8 SUB SLT ISZERO PUSH2 0x402 JUMPI PUSH0 DUP1 REVERT JUMPDEST PUSH2 0x40B DUP6 PUSH2 0x336 JUMP JUMPDEST SWAP4 POP PUSH1 0x20 DUP6 ADD CALLDATALOAD SWAP3 POP PUSH1 0x40 DUP6 ADD CALLDATALOAD PUSH8 0xFFFFFFFFFFFFFFFF DUP1 DUP3 GT ISZERO PUSH2 0x42E JUMPI PUSH0 DUP1 REVERT JUMPDEST DUP2 DUP8 ADD SWAP2 POP DUP8 PUSH1 0x1F DUP4 ADD SLT PUSH2 0x441 JUMPI PUSH0 DUP1 REVERT JUMPDEST DUP2 CALLDATALOAD DUP2 DUP2 GT ISZERO PUSH2 0x44F JUMPI PUSH0 DUP1 REVERT JUMPDEST DUP9 PUSH1 0x20 DUP3 DUP6 ADD ADD GT ISZERO PUSH2 0x460 JUMPI PUSH0 DUP1 REVERT JUMPDEST SWAP6 SWAP9 SWAP5 SWAP8 POP POP PUSH1 0x20 ADD SWAP5 POP POP POP JUMP JUMPDEST PUSH0 DUP1 PUSH0 DUP1 PUSH0 PUSH1 0x80 DUP7 DUP9 SUB SLT ISZERO PUSH2 0x483 JUMPI PUSH0 DUP1 REVERT JUMPDEST PUSH2 0x48C DUP7 PUSH2 0x336 JUMP JUMPDEST SWAP5 POP PUSH1 0x20 DUP7 ADD CALLDATALOAD SWAP4 POP PUSH1 0x40 DUP7 ADD CALLDATALOAD SWAP3 POP PUSH1 0x60 DUP7 ADD CALLDATALOAD PUSH8 0xFFFFFFFFFFFFFFFF DUP2 GT ISZERO PUSH2 0x4B5 JUMPI PUSH0 DUP1 REVERT JUMPDEST PUSH2 0x4C1 DUP9 DUP3 DUP10 ADD PUSH2 0x351 JUMP JUMPDEST SWAP7 SWAP10 SWAP6 SWAP9 POP SWAP4 SWAP7 POP SWAP3 SWAP5 SWAP4 SWAP3 POP POP POP JUMP JUMPDEST DUP2 DUP4 MSTORE PUSH0 PUSH1 0x20 DUP1 DUP6 ADD SWAP5 POP DUP3 PUSH0 JUMPDEST DUP6 DUP2 LT ISZERO PUSH2 0x50C JUMPI PUSH1 0x1 PUSH1 0x1 PUSH1 0xA0 SHL SUB PUSH2 0x4F9 DUP4 PUSH2 0x336 JUMP JUMPDEST AND DUP8 MSTORE SWAP6 DUP3 ADD SWAP6 SWAP1 DUP3 ADD SWAP1 PUSH1 0x1 ADD PUSH2 0x4E0 JUMP JUMPDEST POP SWAP5 SWAP6 SWAP5 POP POP POP POP POP JUMP JUMPDEST DUP4 DUP2 MSTORE PUSH1 0x40 PUSH1 0x20 DUP3 ADD MSTORE PUSH0 PUSH2 0x530 PUSH1 0x40 DUP4 ADD DUP5 DUP7 PUSH2 0x4D2 JUMP JUMPDEST SWAP6 SWAP5 POP POP POP POP POP JUMP JUMPDEST PUSH0 DUP3 MLOAD PUSH0 JUMPDEST DUP2 DUP2 LT ISZERO PUSH2 0x558 JUMPI PUSH1 0x20 DUP2 DUP7 ADD DUP2 ADD MLOAD DUP6 DUP4 ADD MSTORE ADD PUSH2 0x53E JUMP JUMPDEST POP PUSH0 SWAP3 ADD SWAP2 DUP3 MSTORE POP SWAP2 SWAP1 POP JUMP JUMPDEST DUP4 DUP2 MSTORE PUSH1 0x40 PUSH1 0x20 DUP3 ADD MSTORE DUP2 PUSH1 0x40 DUP3 ADD MSTORE DUP2 DUP4 PUSH1 0x60 DUP4 ADD CALLDATACOPY PUSH0 DUP2 DUP4 ADD PUSH1 0x60 SWAP1 DUP2 ADD SWAP2 SWAP1 SWAP2 MSTORE PUSH1 0x1F SWAP1 SWAP3 ADD PUSH1 0x1F NOT AND ADD ADD SWAP3 SWAP2 POP POP JUMP JUMPDEST DUP5 DUP2 MSTORE DUP4 PUSH1 0x20 DUP3 ADD MSTORE PUSH1 0x60 PUSH1 0x40 DUP3 ADD MSTORE PUSH0 PUSH2 0x5B9 PUSH1 0x60 DUP4 ADD DUP5 DUP7 PUSH2 0x4D2 JUMP JUMPDEST SWAP7 SWAP6 POP POP POP POP POP POP JUMP INVALID LOG2 PUSH5 0x6970667358 0x22 SLT KECCAK256 PUSH31 0xB912D19D9EDD80E2F4E569C28D0FB7B7BD949FBFE40E5D147777C2D8E0534 PUSH5 0x736F6C6343 STOP ADDMOD XOR STOP CALLER "},"methodIdentifiers":{"assignMiners(address,uint256,address[])":"2bf8c373","finalizeTaskFailed(address,uint256,string)":"835b389c","finalizeTaskVerified(address,uint256,bytes32,address[])":"a2b68516"}}}}}