{"contracts/mocks/MockTaskRegistry.sol":{"MockTaskRegistry":{"abi":[{"inputs":[{"internalType":"uint256","name":"taskId","type":"uint256"},{"internalType":"address[]","name":"miners","type":"address[]"}],"name":"assignMiners","outputs":[],"stateMutability":"nonpayable","type":"function"},{"inputs":[{"internalType":"uint256","name":"taskId","type":"uint256"},{"internalType":"string","name":"reason","type":"string"}],"name":"finalizeTaskFailed","outputs":[],"stateMutability":"nonpayable","type":"function"},{"inputs":[{"internalType":"uint256","name":"taskId","type":"uint256"},{"internalType":"bytes32","name":"agreedFingerprint","type":"bytes32"},{"internalType":"address[]","name":"slashedMiners","type":"address[]"}],"name":"finalizeTaskVerified","outputs":[],"stateMutability":"nonpayable","type":"function"},{"inputs":[{"internalType":"uint256","name":"taskId","type":"uint256"}],"name":"getSubmissions","outputs":[{"components":[{"internalType":"address","name":"miner","type":"address"},{"internalType":"bytes32","name":"resultFingerprint","type":"bytes32"}],"internalType":"struct MockTaskRegistry.MinerSubmission[]","name":"","type":"tuple[]"}],"stateMutability":"view","type":"function"},{"inputs":[{"internalType":"uint256","name":"","type":"uint256"}],"name":"isReadyForValidation","outputs":[{"internalType":"bool","name":"","type":"bool"}],"stateMutability":"view","type":"function"},{"inputs":[{"internalType":"uint256","name":"taskId","type":"uint256"},{"internalType":"bool","name":"ready","type":"bool"}],"name":"setReadyForValidation","outputs":[],"stateMutability":"nonpayable","type":"function"},{"inputs":[{"internalType":"uint256","name":"taskId","type":"uint256"},{"components":[{"internalType":"address","name":"miner","type":"address"},{"internalType":"bytes32","name":"resultFingerprint","type":"bytes32"}],"internalType":"struct MockTaskRegistry.MinerSubmission[]","name":"subs","type":"tuple[]"}],"name":"setSubmissions","outputs":[],"stateMutability":"nonpayable","type":"function"},{"inputs":[{"internalType":"uint256","name":"","type":"uint256"},{"internalType":"uint256","name":"","type":"uint256"}],"name":"submissions","outputs":[{"internalType":"address","name":"miner","type":"address"},{"internalType":"bytes32","name":"resultFingerprint","type":"bytes32"}],"stateMutability":"view","type":"function"}],"evm":{"bytecode":{"linkReferences":{},"object":"608060405234801561000f575f80fd5b506106088061001d5f395ff3fe608060405234801561000f575f80fd5b5060043610610085575f3560e01c806369c1fc251161005857806369c1fc2514610108578063899ef9ff1461013a578063b98e306d14610167578063fe6e9fa81461017b575f80fd5b80630bce88b61461008957806316c53ced146100c0578063288b1d64146100e05780634e1e4629146100f5575b5f80fd5b6100ab61009736600461030f565b5f6020819052908152604090205460ff1681565b60405190151581526020015b60405180910390f35b6100d36100ce36600461030f565b610189565b6040516100b79190610326565b6100f36100ee36600461037d565b61020d565b005b6100f361010336600461043d565b505050565b61011b610116366004610485565b610283565b604080516001600160a01b0390931683526020830191909152016100b7565b6100f36101483660046104a5565b5f91825260208290526040909120805460ff1916911515919091179055565b6100f36101753660046104d7565b50505050565b6100f3610103366004610526565b606060015f8381526020019081526020015f20805480602002602001604051908101604052809291908181526020015f905b82821015610202575f848152602090819020604080518082019091526002850290910180546001600160a01b031682526001908101548284015290835290920191016101bb565b505050509050919050565b5f838152600160205260408120610223916102c5565b5f5b81811015610175575f84815260016020526040902083838381811061024c5761024c610588565b83546001810185555f9485526020909420604090910292909201926002029091019050610279828261059c565b5050600101610225565b6001602052815f5260405f20818154811061029c575f80fd5b5f918252602090912060029091020180546001909101546001600160a01b039091169250905082565b5080545f8255600202905f5260205f20908101906102e391906102e6565b50565b5b8082111561030b5780546001600160a01b03191681555f60018201556002016102e7565b5090565b5f6020828403121561031f575f80fd5b5035919050565b602080825282518282018190525f919060409081850190868401855b8281101561037057815180516001600160a01b03168552860151868501529284019290850190600101610342565b5091979650505050505050565b5f805f6040848603121561038f575f80fd5b83359250602084013567ffffffffffffffff808211156103ad575f80fd5b818601915086601f8301126103c0575f80fd5b8135818111156103ce575f80fd5b8760208260061b85010111156103e2575f80fd5b6020830194508093505050509250925092565b5f8083601f840112610405575f80fd5b50813567ffffffffffffffff81111561041c575f80fd5b6020830191508360208260051b8501011115610436575f80fd5b9250929050565b5f805f6040848603121561044f575f80fd5b83359250602084013567ffffffffffffffff81111561046c575f80fd5b610478868287016103f5565b9497909650939450505050565b5f8060408385031215610496575f80fd5b50508035926020909101359150565b5f80604083850312156104b6575f80fd5b82359150602083013580151581146104cc575f80fd5b809150509250929050565b5f805f80606085870312156104ea575f80fd5b8435935060208501359250604085013567ffffffffffffffff81111561050e575f80fd5b61051a878288016103f5565b95989497509550505050565b5f805f60408486031215610538575f80fd5b83359250602084013567ffffffffffffffff80821115610556575f80fd5b818601915086601f830112610569575f80fd5b813581811115610577575f80fd5b8760208285010111156103e2575f80fd5b634e487b7160e01b5f52603260045260245ffd5b81356001600160a01b0381168082146105b3575f80fd5b82546001600160a01b031916178255506020919091013560019091015556fea26469706673582212203c3a16752109b9c22de69fdec2590317f063d427decf7a51fd68c58869c35c5564736f6c63430008180033","opcodes":"PUSH1 0x80 PUSH1 0x40 MSTORE CALLVALUE DUP1 ISZERO PUSH2 0xF JUMPI PUSH0 DUP1 REVERT JUMPDEST POP PUSH2 0x608 DUP1 PUSH2 0x1D PUSH0 CODECOPY PUSH0 RETURN INVALID PUSH1 0x80 PUSH1 0x40 MSTORE CALLVALUE DUP1 ISZERO PUSH2 0xF JUMPI PUSH0 DUP1 REVERT JUMPDEST POP PUSH1 0x4 CALLDATASIZE LT PUSH2 0x85 JUMPI PUSH0 CALLDATALOAD PUSH1 0xE0 SHR DUP1 PUSH4 0x69C1FC25 GT PUSH2 0x58 JUMPI DUP1 PUSH4 0x69C1FC25 EQ PUSH2 0x108 JUMPI DUP1 PUSH4 0x899EF9FF EQ PUSH2 0x13A JUMPI DUP1 PUSH4 0xB98E306D EQ PUSH2 0x167 JUMPI DUP1 PUSH4 0xFE6E9FA8 EQ PUSH2 0x17B JUMPI PUSH0 DUP1 REVERT JUMPDEST DUP1 PUSH4 0xBCE88B6 EQ PUSH2 0x89 JUMPI DUP1 PUSH4 0x16C53CED EQ PUSH2 0xC0 JUMPI DUP1 PUSH4 0x288B1D64 EQ PUSH2 0xE0 JUMPI DUP1 PUSH4 0x4E1E4629 EQ PUSH2 0xF5 JUMPI JUMPDEST PUSH0 DUP1 REVERT JUMPDEST PUSH2 0xAB PUSH2 0x97 CALLDATASIZE PUSH1 0x4 PUSH2 0x30F JUMP JUMPDEST PUSH0 PUSH1 0x20 DUP2 SWAP1 MSTORE SWAP1 DUP2 MSTORE PUSH1 0x40 SWAP1 KECCAK256 SLOAD PUSH1 0xFF AND DUP2 JUMP JUMPDEST PUSH1 0x40 MLOAD SWAP1 ISZERO ISZERO DUP2 MSTORE PUSH1 0x20 ADD JUMPDEST PUSH1 0x40 MLOAD DUP1 SWAP2 SUB SWAP1 RETURN JUMPDEST PUSH2 0xD3 PUSH2 0xCE CALLDATASIZE PUSH1 0x4 PUSH2 0x30F JUMP JUMPDEST PUSH2 0x189 JUMP JUMPDEST PUSH1 0x40 MLOAD PUSH2 0xB7 SWAP2 SWAP1 PUSH2 0x326 JUMP JUMPDEST PUSH2 0xF3 PUSH2 0xEE CALLDATASIZE PUSH1 0x4 PUSH2 0x37D JUMP JUMPDEST PUSH2 0x20D JUMP JUMPDEST STOP JUMPDEST PUSH2 0xF3 PUSH2 0x103 CALLDATASIZE PUSH1 0x4 PUSH2 0x43D JUMP JUMPDEST POP POP POP JUMP JUMPDEST PUSH2 0x11B PUSH2 0x116 CALLDATASIZE PUSH1 0x4 PUSH2 0x485 JUMP JUMPDEST PUSH2 0x283 JUMP JUMPDEST PUSH1 0x40 DUP1 MLOAD PUSH1 0x1 PUSH1 0x1 PUSH1 0xA0 SHL SUB SWAP1 SWAP4 AND DUP4 MSTORE PUSH1 0x20 DUP4 ADD SWAP2 SWAP1 SWAP2 MSTORE ADD PUSH2 0xB7 JUMP JUMPDEST PUSH2 0xF3 PUSH2 0x148 CALLDATASIZE PUSH1 0x4 PUSH2 0x4A5 JUMP JUMPDEST PUSH0 SWAP2 DUP3 MSTORE PUSH1 0x20 DUP3 SWAP1 MSTORE PUSH1 0x40 SWAP1 SWAP2 KECCAK256 DUP1 SLOAD PUSH1 0xFF NOT AND SWAP2 ISZERO ISZERO SWAP2 SWAP1 SWAP2 OR SWAP1 SSTORE JUMP JUMPDEST PUSH2 0xF3 PUSH2 0x175 CALLDATASIZE PUSH1 0x4 PUSH2 0x4D7 JUMP JUMPDEST POP POP POP POP JUMP JUMPDEST PUSH2 0xF3 PUSH2 0x103 CALLDATASIZE PUSH1 0x4 PUSH2 0x526 JUMP JUMPDEST PUSH1 0x60 PUSH1 0x1 PUSH0 DUP4 DUP2 MSTORE PUSH1 0x20 ADD SWAP1 DUP2 MSTORE PUSH1 0x20 ADD PUSH0 KECCAK256 DUP1 SLOAD DUP1 PUSH1 0x20 MUL PUSH1 0x20 ADD PUSH1 0x40 MLOAD SWAP1 DUP2 ADD PUSH1 0x40 MSTORE DUP1 SWAP3 SWAP2 SWAP1 DUP2 DUP2 MSTORE PUSH1 0x20 ADD PUSH0 SWAP1 JUMPDEST DUP3 DUP3 LT ISZERO PUSH2 0x202 JUMPI PUSH0 DUP5 DUP2 MSTORE PUSH1 0x20 SWAP1 DUP2 SWAP1 KECCAK256 PUSH1 0x40 DUP1 MLOAD DUP1 DUP3 ADD SWAP1 SWAP2 MSTORE PUSH1 0x2 DUP6 MUL SWAP1 SWAP2 ADD DUP1 SLOAD PUSH1 0x1 PUSH1 0x1 PUSH1 0xA0 SHL SUB AND DUP3 MSTORE PUSH1 0x1 SWAP1 DUP2 ADD SLOAD DUP3 DUP5 ADD MSTORE SWAP1 DUP4 MSTORE SWAP1 SWAP3 ADD SWAP2 ADD PUSH2 0x1BB JUMP JUMPDEST POP POP POP POP SWAP1 POP SWAP2 SWAP1 POP JUMP JUMPDEST PUSH0 DUP4 DUP2 MSTORE PUSH1 0x1 PUSH1 0x20 MSTORE PUSH1 0x40 DUP2 KECCAK256 PUSH2 0x223 SWAP2 PUSH2 0x2C5 JUMP JUMPDEST PUSH0 JUMPDEST DUP2 DUP2 LT ISZERO PUSH2 0x175 JUMPI PUSH0 DUP5 DUP2 MSTORE PUSH1 0x1 PUSH1 0x20 MSTORE PUSH1 0x40 SWAP1 KECCAK256 DUP4 DUP4 DUP4 DUP2 DUP2 LT PUSH2 0x24C JUMPI PUSH2 0x24C PUSH2 0x588 JUMP JUMPDEST DUP4 SLOAD PUSH1 0x1 DUP2 ADD DUP6 SSTORE PUSH0 SWAP5 DUP6 MSTORE PUSH1 0x20 SWAP1 SWAP5 KECCAK256 PUSH1 0x40 SWAP1 SWAP2 MUL SWAP3 SWAP1 SWAP3 ADD SWAP3 PUSH1 0x2 MUL SWAP1 SWAP2 ADD SWAP1 POP PUSH2 0x279 DUP3 DUP3 PUSH2 0x59C JUMP JUMPDEST POP POP PUSH1 0x1 ADD PUSH2 0x225 JUMP JUMPDEST PUSH1 0x1 PUSH1 0x20 MSTORE DUP2 PUSH0 MSTORE PUSH1 0x40 PUSH0 KECCAK256 DUP2 DUP2 SLOAD DUP2 LT PUSH2 0x29C JUMPI PUSH0 DUP1 REVERT JUMPDEST PUSH0 SWAP2 DUP3 MSTORE PUSH1 0x20 SWAP1 SWAP2 KECCAK256 PUSH1 0x2 SWAP1 SWAP2 MUL ADD DUP1 SLOAD PUSH1 0x1 SWAP1 SWAP2 ADD SLOAD PUSH1 0x1 PUSH1 0x1 PUSH1 0xA0 SHL SUB SWAP1 SWAP2 AND SWAP3 POP SWAP1 POP DUP3 JUMP JUMPDEST POP DUP1 SLOAD PUSH0 DUP3 SSTORE PUSH1 0x2 MUL SWAP1 PUSH0 MSTORE PUSH1 0x20 PUSH0 KECCAK256 SWAP1 DUP2 ADD SWAP1 PUSH2 0x2E3 SWAP2 SWAP1 PUSH2 0x2E6 JUMP JUMPDEST POP JUMP JUMPDEST JUMPDEST DUP1 DUP3 GT ISZERO PUSH2 0x30B JUMPI DUP1 SLOAD PUSH1 0x1 PUSH1 0x1 PUSH1 0xA0 SHL SUB NOT AND DUP2 SSTORE PUSH0 PUSH1 0x1 DUP3 ADD SSTORE PUSH1 0x2 ADD PUSH2 0x2E7 JUMP JUMPDEST POP SWAP1 JUMP JUMPDEST PUSH0 PUSH1 0x20 DUP3 DUP5 SUB SLT ISZERO PUSH2 0x31F JUMPI PUSH0 DUP1 REVERT JUMPDEST POP CALLDATALOAD SWAP2 SWAP1 POP JUMP JUMPDEST PUSH1 0x20 DUP1 DUP3 MSTORE DUP3 MLOAD DUP3 DUP3 ADD DUP2 SWAP1 MSTORE PUSH0 SWAP2 SWAP1 PUSH1 0x40 SWAP1 DUP2 DUP6 ADD SWAP1 DUP7 DUP5 ADD DUP6 JUMPDEST DUP3 DUP2 LT ISZERO PUSH2 0x370 JUMPI DUP2 MLOAD DUP1 MLOAD PUSH1 0x1 PUSH1 0x1 PUSH1 0xA0 SHL SUB AND DUP6 MSTORE DUP7 ADD MLOAD DUP7 DUP6 ADD MSTORE SWAP3 DUP5 ADD SWAP3 SWAP1 DUP6 ADD SWAP1 PUSH1 0x1 ADD PUSH2 0x342 JUMP JUMPDEST POP SWAP2 SWAP8 SWAP7 POP POP POP POP POP POP POP JUMP JUMPDEST PUSH0 DUP1 PUSH0 PUSH1 0x40 DUP5 DUP7 SUB SLT ISZERO PUSH2 0x38F JUMPI PUSH0 DUP1 REVERT JUMPDEST DUP4 CALLDATALOAD SWAP3 POP PUSH1 0x20 DUP5 ADD CALLDATALOAD PUSH8 0xFFFFFFFFFFFFFFFF DUP1 DUP3 GT ISZERO PUSH2 0x3AD JUMPI PUSH0 DUP1 REVERT JUMPDEST DUP2 DUP7 ADD SWAP2 POP DUP7 PUSH1 0x1F DUP4 ADD SLT PUSH2 0x3C0 JUMPI PUSH0 DUP1 REVERT JUMPDEST DUP2 CALLDATALOAD DUP2 DUP2 GT ISZERO PUSH2 0x3CE JUMPI PUSH0 DUP1 REVERT JUMPDEST DUP8 PUSH1 0x20 DUP3 PUSH1 0x6 SHL DUP6 ADD ADD GT ISZERO PUSH2 0x3E2 JUMPI PUSH0 DUP1 REVERT JUMPDEST PUSH1 0x20 DUP4 ADD SWAP5 POP DUP1 SWAP4 POP POP POP POP SWAP3 POP SWAP3 POP SWAP3 JUMP JUMPDEST PUSH0 DUP1 DUP4 PUSH1 0x1F DUP5 ADD SLT PUSH2 0x405 JUMPI PUSH0 DUP1 REVERT JUMPDEST POP DUP2 CALLDATALOAD PUSH8 0xFFFFFFFFFFFFFFFF DUP2 GT ISZERO PUSH2 0x41C JUMPI PUSH0 DUP1 REVERT JUMPDEST PUSH1 0x20 DUP4 ADD SWAP2 POP DUP4 PUSH1 0x20 DUP3 PUSH1 0x5 SHL DUP6 ADD ADD GT ISZERO PUSH2 0x436 JUMPI PUSH0 DUP1 REVERT JUMPDEST SWAP3 POP SWAP3 SWAP1 POP JUMP JUMPDEST PUSH0 DUP1 PUSH0 PUSH1 0x40 DUP5 DUP7 SUB SLT ISZERO PUSH2 0x44F JUMPI PUSH0 DUP1 REVERT JUMPDEST DUP4 CALLDATALOAD SWAP3 POP PUSH1 0x20 DUP5 ADD CALLDATALOAD PUSH8 0xFFFFFFFFFFFFFFFF DUP2 GT ISZERO PUSH2 0x46C JUMPI PUSH0 DUP1 REVERT JUMPDEST PUSH2 0x478 DUP7 DUP3 DUP8 ADD PUSH2 0x3F5 JUMP JUMPDEST SWAP5 SWAP8 SWAP1 SWAP7 POP SWAP4 SWAP5 POP POP POP POP JUMP JUMPDEST PUSH0 DUP1 PUSH1 0x40 DUP4 DUP6 SUB SLT ISZERO PUSH2 0x496 JUMPI PUSH0 DUP1 REVERT JUMPDEST POP POP DUP1 CALLDATALOAD SWAP3 PUSH1 0x20 SWAP1 SWAP2 ADD CALLDATALOAD SWAP2 POP JUMP JUMPDEST PUSH0 DUP1 PUSH1 0x40 DUP4 DUP6 SUB SLT ISZERO PUSH2 0x4B6 JUMPI PUSH0 DUP1 REVERT JUMPDEST DUP3 CALLDATALOAD SWAP2 POP PUSH1 0x20 DUP4 ADD CALLDATALOAD DUP1 ISZERO ISZERO DUP2 EQ PUSH2 0x4CC JUMPI PUSH0 DUP1 REVERT JUMPDEST DUP1 SWAP2 POP POP SWAP3 POP SWAP3 SWAP1 POP JUMP JUMPDEST PUSH0 DUP1 PUSH0 DUP1 PUSH1 0x60 DUP6 DUP8 SUB SLT ISZERO PUSH2 0x4EA JUMPI PUSH0 DUP1 REVERT JUMPDEST DUP5 CALLDATALOAD SWAP4 POP PUSH1 0x20 DUP6 ADD CALLDATALOAD SWAP3 POP PUSH1 0x40 DUP6 ADD CALLDATALOAD PUSH8 0xFFFFFFFFFFFFFFFF DUP2 GT ISZERO PUSH2 0x50E JUMPI PUSH0 DUP1 REVERT JUMPDEST PUSH2 0x51A DUP8 DUP3 DUP9 ADD PUSH2 0x3F5 JUMP JUMPDEST SWAP6 SWAP9 SWAP5 SWAP8 POP SWAP6 POP POP POP POP JUMP JUMPDEST PUSH0 DUP1 PUSH0 PUSH1 0x40 DUP5 DUP7 SUB SLT ISZERO PUSH2 0x538 JUMPI PUSH0 DUP1 REVERT JUMPDEST DUP4 CALLDATALOAD SWAP3 POP PUSH1 0x20 DUP5 ADD CALLDATALOAD PUSH8 0xFFFFFFFFFFFFFFFF DUP1 DUP3 GT ISZERO PUSH2 0x556 JUMPI PUSH0 DUP1 REVERT JUMPDEST DUP2 DUP7 ADD SWAP2 POP DUP7 PUSH1 0x1F DUP4 ADD SLT PUSH2 0x569 JUMPI PUSH0 DUP1 REVERT JUMPDEST DUP2 CALLDATALOAD DUP2 DUP2 GT ISZERO PUSH2 0x577 JUMPI PUSH0 DUP1 REVERT JUMPDEST DUP8 PUSH1 0x20 DUP3 DUP6 ADD ADD GT ISZERO PUSH2 0x3E2 JUMPI PUSH0 DUP1 REVERT JUMPDEST PUSH4 0x4E487B71 PUSH1 0xE0 SHL PUSH0 MSTORE PUSH1 0x32 PUSH1 0x4 MSTORE PUSH1 0x24 PUSH0 REVERT JUMPDEST DUP2 CALLDATALOAD PUSH1 0x1 PUSH1 0x1 PUSH1 0xA0 SHL SUB DUP2 AND DUP1 DUP3 EQ PUSH2 0x5B3 JUMPI PUSH0 DUP1 REVERT JUMPDEST DUP3 SLOAD PUSH1 0x1 PUSH1 0x1 PUSH1 0xA0 SHL SUB NOT AND OR DUP3 SSTORE POP PUSH1 0x20 SWAP2 SWAP1 SWAP2 ADD CALLDATALOAD PUSH1 0x1 SWAP1 SWAP2 ADD SSTORE JUMP INVALID LOG2 PUSH5 0x6970667358 0x22 SLT KECCAK256 EXTCODECOPY GASPRICE AND PUSH22 0x2109B9C22DE69FDEC2590317F063D427DECF7A51FD68 0xC5 DUP9 PUSH10 0xC35C5564736F6C634300 ADDMOD XOR STOP CALLER "},"methodIdentifiers":{"assignMiners(uint256,address[])":"4e1e4629","finalizeTaskFailed(uint256,string)":"fe6e9fa8","finalizeTaskVerified(uint256,bytes32,address[])":"b98e306d","getSubmissions(uint256)":"16c53ced","isReadyForValidation(uint256)":"0bce88b6","setReadyForValidation(uint256,bool)":"899ef9ff","setSubmissions(uint256,(address,bytes32)[])":"288b1d64","submissions(uint256,uint256)":"69c1fc25"}}}}}