{"contracts/mocks/MockTaskRegistry.sol":{"MockTaskRegistry":{"abi":[{"inputs":[{"internalType":"uint256","name":"taskId","type":"uint256"},{"internalType":"address[]","name":"miners","type":"address[]"}],"name":"assignMiners","outputs":[],"stateMutability":"nonpayable","type":"function"},{"inputs":[{"internalType":"uint256","name":"taskId","type":"uint256"},{"internalType":"string","name":"reason","type":"string"}],"name":"finalizeTaskFailed","outputs":[],"stateMutability":"nonpayable","type":"function"},{"inputs":[{"internalType":"uint256","name":"taskId","type":"uint256"},{"internalType":"bytes32","name":"agreedFingerprint","type":"bytes32"},{"internalType":"address[]","name":"slashedMiners","type":"address[]"}],"name":"finalizeTaskVerified","outputs":[],"stateMutability":"nonpayable","type":"function"},{"inputs":[{"internalType":"uint256","name":"taskId","type":"uint256"}],"name":"getSubmissions","outputs":[{"components":[{"internalType":"address","name":"miner","type":"address"},{"internalType":"bytes32","name":"resultFingerprint","type":"bytes32"}],"internalType":"struct MockTaskRegistry.MinerSubmission[]","name":"","type":"tuple[]"}],"stateMutability":"view","type":"function"},{"inputs":[{"internalType":"uint256","name":"","type":"uint256"}],"name":"getTaskReward","outputs":[{"internalType":"uint256","name":"","type":"uint256"}],"stateMutability":"pure","type":"function"},{"inputs":[{"internalType":"uint256","name":"","type":"uint256"}],"name":"isReadyForValidation","outputs":[{"internalType":"bool","name":"","type":"bool"}],"stateMutability":"view","type":"function"},{"inputs":[{"internalType":"uint256","name":"taskId","type":"uint256"},{"internalType":"bool","name":"ready","type":"bool"}],"name":"setReadyForValidation","outputs":[],"stateMutability":"nonpayable","type":"function"},{"inputs":[{"internalType":"uint256","name":"taskId","type":"uint256"},{"components":[{"internalType":"address","name":"miner","type":"address"},{"internalType":"bytes32","name":"resultFingerprint","type":"bytes32"}],"internalType":"struct MockTaskRegistry.MinerSubmission[]","name":"subs","type":"tuple[]"}],"name":"setSubmissions","outputs":[],"stateMutability":"nonpayable","type":"function"},{"inputs":[{"internalType":"uint256","name":"","type":"uint256"},{"internalType":"uint256","name":"","type":"uint256"}],"name":"submissions","outputs":[{"internalType":"address","name":"miner","type":"address"},{"internalType":"bytes32","name":"resultFingerprint","type":"bytes32"}],"stateMutability":"view","type":"function"}],"evm":{"bytecode":{"linkReferences":{},"object":"608060405234801561000f575f80fd5b5061063d8061001d5f395ff3fe608060405234801561000f575f80fd5b5060043610610090575f3560e01c80634e1e4629116100635780634e1e46291461012a57806369c1fc251461013d578063899ef9ff1461016f578063b98e306d1461019c578063fe6e9fa8146101b0575f80fd5b80630bce88b61461009457806316c53ced146100cb57806321fca298146100eb578063288b1d6414610115575b5f80fd5b6100b66100a2366004610344565b5f6020819052908152604090205460ff1681565b60405190151581526020015b60405180910390f35b6100de6100d9366004610344565b6101be565b6040516100c2919061035b565b6101076100f9366004610344565b50683635c9adc5dea0000090565b6040519081526020016100c2565b6101286101233660046103b2565b610242565b005b610128610138366004610472565b505050565b61015061014b3660046104ba565b6102b8565b604080516001600160a01b0390931683526020830191909152016100c2565b61012861017d3660046104da565b5f91825260208290526040909120805460ff1916911515919091179055565b6101286101aa36600461050c565b50505050565b61012861013836600461055b565b606060015f8381526020019081526020015f20805480602002602001604051908101604052809291908181526020015f905b82821015610237575f848152602090819020604080518082019091526002850290910180546001600160a01b031682526001908101548284015290835290920191016101f0565b505050509050919050565b5f838152600160205260408120610258916102fa565b5f5b818110156101aa575f848152600160205260409020838383818110610281576102816105bd565b83546001810185555f94855260209094206040909102929092019260020290910190506102ae82826105d1565b505060010161025a565b6001602052815f5260405f2081815481106102d1575f80fd5b5f918252602090912060029091020180546001909101546001600160a01b039091169250905082565b5080545f8255600202905f5260205f2090810190610318919061031b565b50565b5b808211156103405780546001600160a01b03191681555f600182015560020161031c565b5090565b5f60208284031215610354575f80fd5b5035919050565b602080825282518282018190525f919060409081850190868401855b828110156103a557815180516001600160a01b03168552860151868501529284019290850190600101610377565b5091979650505050505050565b5f805f604084860312156103c4575f80fd5b83359250602084013567ffffffffffffffff808211156103e2575f80fd5b818601915086601f8301126103f5575f80fd5b813581811115610403575f80fd5b8760208260061b8501011115610417575f80fd5b6020830194508093505050509250925092565b5f8083601f84011261043a575f80fd5b50813567ffffffffffffffff811115610451575f80fd5b6020830191508360208260051b850101111561046b575f80fd5b9250929050565b5f805f60408486031215610484575f80fd5b83359250602084013567ffffffffffffffff8111156104a1575f80fd5b6104ad8682870161042a565b9497909650939450505050565b5f80604083850312156104cb575f80fd5b50508035926020909101359150565b5f80604083850312156104eb575f80fd5b8235915060208301358015158114610501575f80fd5b809150509250929050565b5f805f806060858703121561051f575f80fd5b8435935060208501359250604085013567ffffffffffffffff811115610543575f80fd5b61054f8782880161042a565b95989497509550505050565b5f805f6040848603121561056d575f80fd5b83359250602084013567ffffffffffffffff8082111561058b575f80fd5b818601915086601f83011261059e575f80fd5b8135818111156105ac575f80fd5b876020828501011115610417575f80fd5b634e487b7160e01b5f52603260045260245ffd5b81356001600160a01b0381168082146105e8575f80fd5b82546001600160a01b031916178255506020919091013560019091015556fea26469706673582212202331ad9cd92244a643e7be5a12dd13a9bcf6bab45222dcd8548e95e85d8ccccc64736f6c63430008180033","opcodes":"PUSH1 0x80 PUSH1 0x40 MSTORE CALLVALUE DUP1 ISZERO PUSH2 0xF JUMPI PUSH0 DUP1 REVERT JUMPDEST POP PUSH2 0x63D DUP1 PUSH2 0x1D PUSH0 CODECOPY PUSH0 RETURN INVALID PUSH1 0x80 PUSH1 0x40 MSTORE CALLVALUE DUP1 ISZERO PUSH2 0xF JUMPI PUSH0 DUP1 REVERT JUMPDEST POP PUSH1 0x4 CALLDATASIZE LT PUSH2 0x90 JUMPI PUSH0 CALLDATALOAD PUSH1 0xE0 SHR DUP1 PUSH4 0x4E1E4629 GT PUSH2 0x63 JUMPI DUP1 PUSH4 0x4E1E4629 EQ PUSH2 0x12A JUMPI DUP1 PUSH4 0x69C1FC25 EQ PUSH2 0x13D JUMPI DUP1 PUSH4 0x899EF9FF EQ PUSH2 0x16F JUMPI DUP1 PUSH4 0xB98E306D EQ PUSH2 0x19C JUMPI DUP1 PUSH4 0xFE6E9FA8 EQ PUSH2 0x1B0 JUMPI PUSH0 DUP1 REVERT JUMPDEST DUP1 PUSH4 0xBCE88B6 EQ PUSH2 0x94 JUMPI DUP1 PUSH4 0x16C53CED EQ PUSH2 0xCB JUMPI DUP1 PUSH4 0x21FCA298 EQ PUSH2 0xEB JUMPI DUP1 PUSH4 0x288B1D64 EQ PUSH2 0x115 JUMPI JUMPDEST PUSH0 DUP1 REVERT JUMPDEST PUSH2 0xB6 PUSH2 0xA2 CALLDATASIZE PUSH1 0x4 PUSH2 0x344 JUMP JUMPDEST PUSH0 PUSH1 0x20 DUP2 SWAP1 MSTORE SWAP1 DUP2 MSTORE PUSH1 0x40 SWAP1 KECCAK256 SLOAD PUSH1 0xFF AND DUP2 JUMP JUMPDEST PUSH1 0x40 MLOAD SWAP1 ISZERO ISZERO DUP2 MSTORE PUSH1 0x20 ADD JUMPDEST PUSH1 0x40 MLOAD DUP1 SWAP2 SUB SWAP1 RETURN JUMPDEST PUSH2 0xDE PUSH2 0xD9 CALLDATASIZE PUSH1 0x4 PUSH2 0x344 JUMP JUMPDEST PUSH2 0x1BE JUMP JUMPDEST PUSH1 0x40 MLOAD PUSH2 0xC2 SWAP2 SWAP1 PUSH2 0x35B JUMP JUMPDEST PUSH2 0x107 PUSH2 0xF9 CALLDATASIZE PUSH1 0x4 PUSH2 0x344 JUMP JUMPDEST POP PUSH9 0x3635C9ADC5DEA00000 SWAP1 JUMP JUMPDEST PUSH1 0x40 MLOAD SWAP1 DUP2 MSTORE PUSH1 0x20 ADD PUSH2 0xC2 JUMP JUMPDEST PUSH2 0x128 PUSH2 0x123 CALLDATASIZE PUSH1 0x4 PUSH2 0x3B2 JUMP JUMPDEST PUSH2 0x242 JUMP JUMPDEST STOP JUMPDEST PUSH2 0x128 PUSH2 0x138 CALLDATASIZE PUSH1 0x4 PUSH2 0x472 JUMP JUMPDEST POP POP POP JUMP JUMPDEST PUSH2 0x150 PUSH2 0x14B CALLDATASIZE PUSH1 0x4 PUSH2 0x4BA JUMP JUMPDEST PUSH2 0x2B8 JUMP JUMPDEST PUSH1 0x40 DUP1 MLOAD PUSH1 0x1 PUSH1 0x1 PUSH1 0xA0 SHL SUB SWAP1 SWAP4 AND DUP4 MSTORE PUSH1 0x20 DUP4 ADD SWAP2 SWAP1 SWAP2 MSTORE ADD PUSH2 0xC2 JUMP JUMPDEST PUSH2 0x128 PUSH2 0x17D CALLDATASIZE PUSH1 0x4 PUSH2 0x4DA JUMP JUMPDEST PUSH0 SWAP2 DUP3 MSTORE PUSH1 0x20 DUP3 SWAP1 MSTORE PUSH1 0x40 SWAP1 SWAP2 KECCAK256 DUP1 SLOAD PUSH1 0xFF NOT AND SWAP2 ISZERO ISZERO SWAP2 SWAP1 SWAP2 OR SWAP1 SSTORE JUMP JUMPDEST PUSH2 0x128 PUSH2 0x1AA CALLDATASIZE PUSH1 0x4 PUSH2 0x50C JUMP JUMPDEST POP POP POP POP JUMP JUMPDEST PUSH2 0x128 PUSH2 0x138 CALLDATASIZE PUSH1 0x4 PUSH2 0x55B JUMP JUMPDEST PUSH1 0x60 PUSH1 0x1 PUSH0 DUP4 DUP2 MSTORE PUSH1 0x20 ADD SWAP1 DUP2 MSTORE PUSH1 0x20 ADD PUSH0 KECCAK256 DUP1 SLOAD DUP1 PUSH1 0x20 MUL PUSH1 0x20 ADD PUSH1 0x40 MLOAD SWAP1 DUP2 ADD PUSH1 0x40 MSTORE DUP1 SWAP3 SWAP2 SWAP1 DUP2 DUP2 MSTORE PUSH1 0x20 ADD PUSH0 SWAP1 JUMPDEST DUP3 DUP3 LT ISZERO PUSH2 0x237 JUMPI PUSH0 DUP5 DUP2 MSTORE PUSH1 0x20 SWAP1 DUP2 SWAP1 KECCAK256 PUSH1 0x40 DUP1 MLOAD DUP1 DUP3 ADD SWAP1 SWAP2 MSTORE PUSH1 0x2 DUP6 MUL SWAP1 SWAP2 ADD DUP1 SLOAD PUSH1 0x1 PUSH1 0x1 PUSH1 0xA0 SHL SUB AND DUP3 MSTORE PUSH1 0x1 SWAP1 DUP2 ADD SLOAD DUP3 DUP5 ADD MSTORE SWAP1 DUP4 MSTORE SWAP1 SWAP3 ADD SWAP2 ADD PUSH2 0x1F0 JUMP JUMPDEST POP POP POP POP SWAP1 POP SWAP2 SWAP1 POP JUMP JUMPDEST PUSH0 DUP4 DUP2 MSTORE PUSH1 0x1 PUSH1 0x20 MSTORE PUSH1 0x40 DUP2 KECCAK256 PUSH2 0x258 SWAP2 PUSH2 0x2FA JUMP JUMPDEST PUSH0 JUMPDEST DUP2 DUP2 LT ISZERO PUSH2 0x1AA JUMPI PUSH0 DUP5 DUP2 MSTORE PUSH1 0x1 PUSH1 0x20 MSTORE PUSH1 0x40 SWAP1 KECCAK256 DUP4 DUP4 DUP4 DUP2 DUP2 LT PUSH2 0x281 JUMPI PUSH2 0x281 PUSH2 0x5BD JUMP JUMPDEST DUP4 SLOAD PUSH1 0x1 DUP2 ADD DUP6 SSTORE PUSH0 SWAP5 DUP6 MSTORE PUSH1 0x20 SWAP1 SWAP5 KECCAK256 PUSH1 0x40 SWAP1 SWAP2 MUL SWAP3 SWAP1 SWAP3 ADD SWAP3 PUSH1 0x2 MUL SWAP1 SWAP2 ADD SWAP1 POP PUSH2 0x2AE DUP3 DUP3 PUSH2 0x5D1 JUMP JUMPDEST POP POP PUSH1 0x1 ADD PUSH2 0x25A JUMP JUMPDEST PUSH1 0x1 PUSH1 0x20 MSTORE DUP2 PUSH0 MSTORE PUSH1 0x40 PUSH0 KECCAK256 DUP2 DUP2 SLOAD DUP2 LT PUSH2 0x2D1 JUMPI PUSH0 DUP1 REVERT JUMPDEST PUSH0 SWAP2 DUP3 MSTORE PUSH1 0x20 SWAP1 SWAP2 KECCAK256 PUSH1 0x2 SWAP1 SWAP2 MUL ADD DUP1 SLOAD PUSH1 0x1 SWAP1 SWAP2 ADD SLOAD PUSH1 0x1 PUSH1 0x1 PUSH1 0xA0 SHL SUB SWAP1 SWAP2 AND SWAP3 POP SWAP1 POP DUP3 JUMP JUMPDEST POP DUP1 SLOAD PUSH0 DUP3 SSTORE PUSH1 0x2 MUL SWAP1 PUSH0 MSTORE PUSH1 0x20 PUSH0 KECCAK256 SWAP1 DUP2 ADD SWAP1 PUSH2 0x318 SWAP2 SWAP1 PUSH2 0x31B JUMP JUMPDEST POP JUMP JUMPDEST JUMPDEST DUP1 DUP3 GT ISZERO PUSH2 0x340 JUMPI DUP1 SLOAD PUSH1 0x1 PUSH1 0x1 PUSH1 0xA0 SHL SUB NOT AND DUP2 SSTORE PUSH0 PUSH1 0x1 DUP3 ADD SSTORE PUSH1 0x2 ADD PUSH2 0x31C JUMP JUMPDEST POP SWAP1 JUMP JUMPDEST PUSH0 PUSH1 0x20 DUP3 DUP5 SUB SLT ISZERO PUSH2 0x354 JUMPI PUSH0 DUP1 REVERT JUMPDEST POP CALLDATALOAD SWAP2 SWAP1 POP JUMP JUMPDEST PUSH1 0x20 DUP1 DUP3 MSTORE DUP3 MLOAD DUP3 DUP3 ADD DUP2 SWAP1 MSTORE PUSH0 SWAP2 SWAP1 PUSH1 0x40 SWAP1 DUP2 DUP6 ADD SWAP1 DUP7 DUP5 ADD DUP6 JUMPDEST DUP3 DUP2 LT ISZERO PUSH2 0x3A5 JUMPI DUP2 MLOAD DUP1 MLOAD PUSH1 0x1 PUSH1 0x1 PUSH1 0xA0 SHL SUB AND DUP6 MSTORE DUP7 ADD MLOAD DUP7 DUP6 ADD MSTORE SWAP3 DUP5 ADD SWAP3 SWAP1 DUP6 ADD SWAP1 PUSH1 0x1 ADD PUSH2 0x377 JUMP JUMPDEST POP SWAP2 SWAP8 SWAP7 POP POP POP POP POP POP POP JUMP JUMPDEST PUSH0 DUP1 PUSH0 PUSH1 0x40 DUP5 DUP7 SUB SLT ISZERO PUSH2 0x3C4 JUMPI PUSH0 DUP1 REVERT JUMPDEST DUP4 CALLDATALOAD SWAP3 POP PUSH1 0x20 DUP5 ADD CALLDATALOAD PUSH8 0xFFFFFFFFFFFFFFFF DUP1 DUP3 GT ISZERO PUSH2 0x3E2 JUMPI PUSH0 DUP1 REVERT JUMPDEST DUP2 DUP7 ADD SWAP2 POP DUP7 PUSH1 0x1F DUP4 ADD SLT PUSH2 0x3F5 JUMPI PUSH0 DUP1 REVERT JUMPDEST DUP2 CALLDATALOAD DUP2 DUP2 GT ISZERO PUSH2 0x403 JUMPI PUSH0 DUP1 REVERT JUMPDEST DUP8 PUSH1 0x20 DUP3 PUSH1 0x6 SHL DUP6 ADD ADD GT ISZERO PUSH2 0x417 JUMPI PUSH0 DUP1 REVERT JUMPDEST PUSH1 0x20 DUP4 ADD SWAP5 POP DUP1 SWAP4 POP POP POP POP SWAP3 POP SWAP3 POP SWAP3 JUMP JUMPDEST PUSH0 DUP1 DUP4 PUSH1 0x1F DUP5 ADD SLT PUSH2 0x43A JUMPI PUSH0 DUP1 REVERT JUMPDEST POP DUP2 CALLDATALOAD PUSH8 0xFFFFFFFFFFFFFFFF DUP2 GT ISZERO PUSH2 0x451 JUMPI PUSH0 DUP1 REVERT JUMPDEST PUSH1 0x20 DUP4 ADD SWAP2 POP DUP4 PUSH1 0x20 DUP3 PUSH1 0x5 SHL DUP6 ADD ADD GT ISZERO PUSH2 0x46B JUMPI PUSH0 DUP1 REVERT JUMPDEST SWAP3 POP SWAP3 SWAP1 POP JUMP JUMPDEST PUSH0 DUP1 PUSH0 PUSH1 0x40 DUP5 DUP7 SUB SLT ISZERO PUSH2 0x484 JUMPI PUSH0 DUP1 REVERT JUMPDEST DUP4 CALLDATALOAD SWAP3 POP PUSH1 0x20 DUP5 ADD CALLDATALOAD PUSH8 0xFFFFFFFFFFFFFFFF DUP2 GT ISZERO PUSH2 0x4A1 JUMPI PUSH0 DUP1 REVERT JUMPDEST PUSH2 0x4AD DUP7 DUP3 DUP8 ADD PUSH2 0x42A JUMP JUMPDEST SWAP5 SWAP8 SWAP1 SWAP7 POP SWAP4 SWAP5 POP POP POP POP JUMP JUMPDEST PUSH0 DUP1 PUSH1 0x40 DUP4 DUP6 SUB SLT ISZERO PUSH2 0x4CB JUMPI PUSH0 DUP1 REVERT JUMPDEST POP POP DUP1 CALLDATALOAD SWAP3 PUSH1 0x20 SWAP1 SWAP2 ADD CALLDATALOAD SWAP2 POP JUMP JUMPDEST PUSH0 DUP1 PUSH1 0x40 DUP4 DUP6 SUB SLT ISZERO PUSH2 0x4EB JUMPI PUSH0 DUP1 REVERT JUMPDEST DUP3 CALLDATALOAD SWAP2 POP PUSH1 0x20 DUP4 ADD CALLDATALOAD DUP1 ISZERO ISZERO DUP2 EQ PUSH2 0x501 JUMPI PUSH0 DUP1 REVERT JUMPDEST DUP1 SWAP2 POP POP SWAP3 POP SWAP3 SWAP1 POP JUMP JUMPDEST PUSH0 DUP1 PUSH0 DUP1 PUSH1 0x60 DUP6 DUP8 SUB SLT ISZERO PUSH2 0x51F JUMPI PUSH0 DUP1 REVERT JUMPDEST DUP5 CALLDATALOAD SWAP4 POP PUSH1 0x20 DUP6 ADD CALLDATALOAD SWAP3 POP PUSH1 0x40 DUP6 ADD CALLDATALOAD PUSH8 0xFFFFFFFFFFFFFFFF DUP2 GT ISZERO PUSH2 0x543 JUMPI PUSH0 DUP1 REVERT JUMPDEST PUSH2 0x54F DUP8 DUP3 DUP9 ADD PUSH2 0x42A JUMP JUMPDEST SWAP6 SWAP9 SWAP5 SWAP8 POP SWAP6 POP POP POP POP JUMP JUMPDEST PUSH0 DUP1 PUSH0 PUSH1 0x40 DUP5 DUP7 SUB SLT ISZERO PUSH2 0x56D JUMPI PUSH0 DUP1 REVERT JUMPDEST DUP4 CALLDATALOAD SWAP3 POP PUSH1 0x20 DUP5 ADD CALLDATALOAD PUSH8 0xFFFFFFFFFFFFFFFF DUP1 DUP3 GT ISZERO PUSH2 0x58B JUMPI PUSH0 DUP1 REVERT JUMPDEST DUP2 DUP7 ADD SWAP2 POP DUP7 PUSH1 0x1F DUP4 ADD SLT PUSH2 0x59E JUMPI PUSH0 DUP1 REVERT JUMPDEST DUP2 CALLDATALOAD DUP2 DUP2 GT ISZERO PUSH2 0x5AC JUMPI PUSH0 DUP1 REVERT JUMPDEST DUP8 PUSH1 0x20 DUP3 DUP6 ADD ADD GT ISZERO PUSH2 0x417 JUMPI PUSH0 DUP1 REVERT JUMPDEST PUSH4 0x4E487B71 PUSH1 0xE0 SHL PUSH0 MSTORE PUSH1 0x32 PUSH1 0x4 MSTORE PUSH1 0x24 PUSH0 REVERT JUMPDEST DUP2 CALLDATALOAD PUSH1 0x1 PUSH1 0x1 PUSH1 0xA0 SHL SUB DUP2 AND DUP1 DUP3 EQ PUSH2 0x5E8 JUMPI PUSH0 DUP1 REVERT JUMPDEST DUP3 SLOAD PUSH1 0x1 PUSH1 0x1 PUSH1 0xA0 SHL SUB NOT AND OR DUP3 SSTORE POP PUSH1 0x20 SWAP2 SWAP1 SWAP2 ADD CALLDATALOAD PUSH1 0x1 SWAP1 SWAP2 ADD SSTORE JUMP INVALID LOG2 PUSH5 0x6970667358 0x22 SLT KECCAK256 0x23 BALANCE 0xAD SWAP13 0xD9 0x22 PREVRANDAO 0xA6 NUMBER 0xE7 0xBE GAS SLT 0xDD SGT 0xA9 0xBC 0xF6 0xBA 0xB4 MSTORE 0x22 0xDC 0xD8 SLOAD DUP15 SWAP6 0xE8 TSTORE DUP13 0xCC 0xCC PUSH5 0x736F6C6343 STOP ADDMOD XOR STOP CALLER "},"methodIdentifiers":{"assignMiners(uint256,address[])":"4e1e4629","finalizeTaskFailed(uint256,string)":"fe6e9fa8","finalizeTaskVerified(uint256,bytes32,address[])":"b98e306d","getSubmissions(uint256)":"16c53ced","getTaskReward(uint256)":"21fca298","isReadyForValidation(uint256)":"0bce88b6","setReadyForValidation(uint256,bool)":"899ef9ff","setSubmissions(uint256,(address,bytes32)[])":"288b1d64","submissions(uint256,uint256)":"69c1fc25"}}}}}