{
  "_format": "hh-sol-artifact-1",
  "contractName": "TimeLock",
  "sourceName": "contracts/TimeLock.sol",
  "abi": [
    {
      "inputs": [
        {
          "internalType": "address",
          "name": "_gaiaToken",
          "type": "address"
        },
        {
          "internalType": "address",
          "name": "_genesisCoordinator",
          "type": "address"
        }
      ],
      "stateMutability": "nonpayable",
      "type": "constructor"
    },
    {
      "inputs": [
        {
          "internalType": "bytes32",
          "name": "actionId",
          "type": "bytes32"
        }
      ],
      "name": "ActionAlreadyExecuted",
      "type": "error"
    },
    {
      "inputs": [
        {
          "internalType": "bytes32",
          "name": "actionId",
          "type": "bytes32"
        }
      ],
      "name": "ActionNotFound",
      "type": "error"
    },
    {
      "inputs": [
        {
          "internalType": "bytes32",
          "name": "actionId",
          "type": "bytes32"
        },
        {
          "internalType": "uint256",
          "name": "executeAfter",
          "type": "uint256"
        }
      ],
      "name": "ActionNotReady",
      "type": "error"
    },
    {
      "inputs": [],
      "name": "GenesisAuthorityExpiredError",
      "type": "error"
    },
    {
      "inputs": [
        {
          "internalType": "address",
          "name": "beneficiary",
          "type": "address"
        }
      ],
      "name": "NoTeamAllocation",
      "type": "error"
    },
    {
      "inputs": [],
      "name": "NotGenesisCoordinator",
      "type": "error"
    },
    {
      "inputs": [],
      "name": "ReentrancyGuardReentrantCall",
      "type": "error"
    },
    {
      "inputs": [
        {
          "internalType": "uint256",
          "name": "cliffEnds",
          "type": "uint256"
        }
      ],
      "name": "TeamCliffNotReached",
      "type": "error"
    },
    {
      "anonymous": false,
      "inputs": [
        {
          "indexed": true,
          "internalType": "bytes32",
          "name": "actionId",
          "type": "bytes32"
        }
      ],
      "name": "ActionCancelled",
      "type": "event"
    },
    {
      "anonymous": false,
      "inputs": [
        {
          "indexed": true,
          "internalType": "bytes32",
          "name": "actionId",
          "type": "bytes32"
        },
        {
          "indexed": false,
          "internalType": "bool",
          "name": "success",
          "type": "bool"
        }
      ],
      "name": "ActionExecuted",
      "type": "event"
    },
    {
      "anonymous": false,
      "inputs": [
        {
          "indexed": true,
          "internalType": "bytes32",
          "name": "actionId",
          "type": "bytes32"
        },
        {
          "indexed": false,
          "internalType": "address",
          "name": "target",
          "type": "address"
        },
        {
          "indexed": false,
          "internalType": "string",
          "name": "description",
          "type": "string"
        },
        {
          "indexed": false,
          "internalType": "uint256",
          "name": "executeAfter",
          "type": "uint256"
        }
      ],
      "name": "ActionQueued",
      "type": "event"
    },
    {
      "anonymous": false,
      "inputs": [
        {
          "indexed": false,
          "internalType": "uint256",
          "name": "timestamp",
          "type": "uint256"
        }
      ],
      "name": "GenesisAuthorityExpired",
      "type": "event"
    },
    {
      "anonymous": false,
      "inputs": [
        {
          "indexed": false,
          "internalType": "uint256",
          "name": "timestamp",
          "type": "uint256"
        }
      ],
      "name": "GenesisAuthorityRevoked",
      "type": "event"
    },
    {
      "anonymous": false,
      "inputs": [
        {
          "indexed": true,
          "internalType": "address",
          "name": "beneficiary",
          "type": "address"
        },
        {
          "indexed": false,
          "internalType": "uint256",
          "name": "amount",
          "type": "uint256"
        },
        {
          "indexed": false,
          "internalType": "string",
          "name": "role",
          "type": "string"
        }
      ],
      "name": "TeamAllocationCreated",
      "type": "event"
    },
    {
      "anonymous": false,
      "inputs": [
        {
          "indexed": true,
          "internalType": "address",
          "name": "beneficiary",
          "type": "address"
        },
        {
          "indexed": false,
          "internalType": "uint256",
          "name": "amount",
          "type": "uint256"
        }
      ],
      "name": "TeamTokensClaimed",
      "type": "event"
    },
    {
      "inputs": [],
      "name": "GENESIS_PERIOD",
      "outputs": [
        {
          "internalType": "uint256",
          "name": "",
          "type": "uint256"
        }
      ],
      "stateMutability": "view",
      "type": "function"
    },
    {
      "inputs": [],
      "name": "MINIMUM_DELAY",
      "outputs": [
        {
          "internalType": "uint256",
          "name": "",
          "type": "uint256"
        }
      ],
      "stateMutability": "view",
      "type": "function"
    },
    {
      "inputs": [],
      "name": "TEAM_CLIFF",
      "outputs": [
        {
          "internalType": "uint256",
          "name": "",
          "type": "uint256"
        }
      ],
      "stateMutability": "view",
      "type": "function"
    },
    {
      "inputs": [],
      "name": "TEAM_VESTING_PERIOD",
      "outputs": [
        {
          "internalType": "uint256",
          "name": "",
          "type": "uint256"
        }
      ],
      "stateMutability": "view",
      "type": "function"
    },
    {
      "inputs": [
        {
          "internalType": "uint256",
          "name": "",
          "type": "uint256"
        }
      ],
      "name": "actionQueue",
      "outputs": [
        {
          "internalType": "bytes32",
          "name": "",
          "type": "bytes32"
        }
      ],
      "stateMutability": "view",
      "type": "function"
    },
    {
      "inputs": [],
      "name": "authorityRevoked",
      "outputs": [
        {
          "internalType": "bool",
          "name": "",
          "type": "bool"
        }
      ],
      "stateMutability": "view",
      "type": "function"
    },
    {
      "inputs": [
        {
          "internalType": "bytes32",
          "name": "actionId",
          "type": "bytes32"
        }
      ],
      "name": "cancelAction",
      "outputs": [],
      "stateMutability": "nonpayable",
      "type": "function"
    },
    {
      "inputs": [],
      "name": "claimTeamTokens",
      "outputs": [],
      "stateMutability": "nonpayable",
      "type": "function"
    },
    {
      "inputs": [
        {
          "internalType": "address",
          "name": "beneficiary",
          "type": "address"
        }
      ],
      "name": "claimableTeamTokens",
      "outputs": [
        {
          "internalType": "uint256",
          "name": "",
          "type": "uint256"
        }
      ],
      "stateMutability": "view",
      "type": "function"
    },
    {
      "inputs": [
        {
          "internalType": "address",
          "name": "beneficiary",
          "type": "address"
        },
        {
          "internalType": "uint256",
          "name": "amount",
          "type": "uint256"
        },
        {
          "internalType": "string",
          "name": "role",
          "type": "string"
        }
      ],
      "name": "createTeamAllocation",
      "outputs": [],
      "stateMutability": "nonpayable",
      "type": "function"
    },
    {
      "inputs": [
        {
          "internalType": "bytes32",
          "name": "actionId",
          "type": "bytes32"
        }
      ],
      "name": "executeAction",
      "outputs": [],
      "stateMutability": "nonpayable",
      "type": "function"
    },
    {
      "inputs": [],
      "name": "gaiaToken",
      "outputs": [
        {
          "internalType": "contract IERC20",
          "name": "",
          "type": "address"
        }
      ],
      "stateMutability": "view",
      "type": "function"
    },
    {
      "inputs": [],
      "name": "genesisCoordinator",
      "outputs": [
        {
          "internalType": "address",
          "name": "",
          "type": "address"
        }
      ],
      "stateMutability": "view",
      "type": "function"
    },
    {
      "inputs": [],
      "name": "genesisExpiry",
      "outputs": [
        {
          "internalType": "uint256",
          "name": "",
          "type": "uint256"
        }
      ],
      "stateMutability": "view",
      "type": "function"
    },
    {
      "inputs": [],
      "name": "genesisIsActive",
      "outputs": [
        {
          "internalType": "bool",
          "name": "",
          "type": "bool"
        }
      ],
      "stateMutability": "view",
      "type": "function"
    },
    {
      "inputs": [],
      "name": "genesisTimestamp",
      "outputs": [
        {
          "internalType": "uint256",
          "name": "",
          "type": "uint256"
        }
      ],
      "stateMutability": "view",
      "type": "function"
    },
    {
      "inputs": [
        {
          "internalType": "address",
          "name": "",
          "type": "address"
        }
      ],
      "name": "hasTeamAllocation",
      "outputs": [
        {
          "internalType": "bool",
          "name": "",
          "type": "bool"
        }
      ],
      "stateMutability": "view",
      "type": "function"
    },
    {
      "inputs": [],
      "name": "pendingActionsCount",
      "outputs": [
        {
          "internalType": "uint256",
          "name": "",
          "type": "uint256"
        }
      ],
      "stateMutability": "view",
      "type": "function"
    },
    {
      "inputs": [
        {
          "internalType": "address",
          "name": "target",
          "type": "address"
        },
        {
          "internalType": "bytes",
          "name": "callData_",
          "type": "bytes"
        },
        {
          "internalType": "string",
          "name": "description",
          "type": "string"
        }
      ],
      "name": "queueAction",
      "outputs": [
        {
          "internalType": "bytes32",
          "name": "actionId",
          "type": "bytes32"
        }
      ],
      "stateMutability": "nonpayable",
      "type": "function"
    },
    {
      "inputs": [
        {
          "internalType": "bytes32",
          "name": "",
          "type": "bytes32"
        }
      ],
      "name": "queuedActions",
      "outputs": [
        {
          "internalType": "bytes32",
          "name": "actionId",
          "type": "bytes32"
        },
        {
          "internalType": "address",
          "name": "target",
          "type": "address"
        },
        {
          "internalType": "bytes",
          "name": "callData",
          "type": "bytes"
        },
        {
          "internalType": "uint256",
          "name": "queuedAt",
          "type": "uint256"
        },
        {
          "internalType": "uint256",
          "name": "executeAfter",
          "type": "uint256"
        },
        {
          "internalType": "bool",
          "name": "executed",
          "type": "bool"
        },
        {
          "internalType": "string",
          "name": "description",
          "type": "string"
        }
      ],
      "stateMutability": "view",
      "type": "function"
    },
    {
      "inputs": [],
      "name": "revokeGenesisAuthority",
      "outputs": [],
      "stateMutability": "nonpayable",
      "type": "function"
    },
    {
      "inputs": [
        {
          "internalType": "address",
          "name": "",
          "type": "address"
        }
      ],
      "name": "teamAllocationIndex",
      "outputs": [
        {
          "internalType": "uint256",
          "name": "",
          "type": "uint256"
        }
      ],
      "stateMutability": "view",
      "type": "function"
    },
    {
      "inputs": [
        {
          "internalType": "uint256",
          "name": "",
          "type": "uint256"
        }
      ],
      "name": "teamAllocations",
      "outputs": [
        {
          "internalType": "address",
          "name": "beneficiary",
          "type": "address"
        },
        {
          "internalType": "uint256",
          "name": "totalAmount",
          "type": "uint256"
        },
        {
          "internalType": "uint256",
          "name": "claimedAmount",
          "type": "uint256"
        },
        {
          "internalType": "string",
          "name": "role",
          "type": "string"
        }
      ],
      "stateMutability": "view",
      "type": "function"
    },
    {
      "inputs": [],
      "name": "timeUntilExpiry",
      "outputs": [
        {
          "internalType": "uint256",
          "name": "",
          "type": "uint256"
        }
      ],
      "stateMutability": "view",
      "type": "function"
    }
  ],
  "bytecode": "0x61010060405234801562000011575f80fd5b5060405162001ad038038062001ad083398101604081905262000034916200014f565b60017f9b779b17422d0df92223018b32b4d1fa46e071723d6817e2486d003becc55f00556001600160a01b038216620000a55760405162461bcd60e51b815260206004820152600e60248201526d2a261d103d32b937903a37b5b2b760911b60448201526064015b60405180910390fd5b6001600160a01b038116620000fd5760405162461bcd60e51b815260206004820152601460248201527f544c3a207a65726f20636f6f7264696e61746f7200000000000000000000000060448201526064016200009c565b6001600160a01b03808316608052811660a0524260c081905262000127906302c7ea009062000185565b60e05250620001ab9050565b80516001600160a01b03811681146200014a575f80fd5b919050565b5f806040838503121562000161575f80fd5b6200016c8362000133565b91506200017c6020840162000133565b90509250929050565b80820180821115620001a557634e487b7160e01b5f52601160045260245ffd5b92915050565b60805160a05160c05160e05161189d620002335f395f818161015c01528181610907015281816109390152818161101a01526111bd01525f81816102aa01528181610603015261122301525f81816103060152818161038b01528181610806015281816109d301528181610cb20152610e6601525f81816101c70152610718015261189d5ff3fe608060405234801561000f575f80fd5b5060043610610153575f3560e01c80637b90ba45116100bf578063e125ab9c11610079578063e125ab9c146102ee578063e278abe514610301578063e559c72414610328578063e7a15c8514610333578063e8f6e66e1461033b578063f3df92bf1461035a575f80fd5b80637b90ba451461026d5780639136fe3614610290578063b1b43ae51461029b578063b997260714610290578063cacf66ab146102a5578063cbc4a9c3146102cc575f80fd5b80632f50248b116101105780632f50248b1461021c5780633b48f1eb1461022457806342b185331461022c57806346411f591461023457806361bc92ed14610247578063781cc3d31461025a575f80fd5b806308ea325f146101575780630f723e48146101915780631598d859146101a657806324009b78146101c25780632af5356a146102015780632e34b89714610209575b5f80fd5b61017e7f000000000000000000000000000000000000000000000000000000000000000081565b6040519081526020015b60405180910390f35b6101a461019f366004611329565b610380565b005b5f546101b29060ff1681565b6040519015158152602001610188565b6101e97f000000000000000000000000000000000000000000000000000000000000000081565b6040516001600160a01b039091168152602001610188565b6101a46105bf565b61017e61021736600461137f565b6107dc565b6101a46107fb565b61017e6108f9565b61017e610962565b61017e610242366004611396565b6109c7565b61017e610255366004611411565b610c12565b6101a461026836600461137f565b610ca7565b61028061027b36600461137f565b610d8d565b6040516101889493929190611474565b61017e6302c7ea0081565b61017e6202a30081565b61017e7f000000000000000000000000000000000000000000000000000000000000000081565b6101b26102da366004611411565b60036020525f908152604090205460ff1681565b6101a46102fc36600461137f565b610e5b565b6101e97f000000000000000000000000000000000000000000000000000000000000000081565b61017e63058fd40081565b6101b2611009565b61017e610349366004611411565b60026020525f908152604090205481565b61036d61036836600461137f565b61103f565b60405161018897969594939291906114aa565b336001600160a01b037f000000000000000000000000000000000000000000000000000000000000000016146103c957604051630561727f60e41b815260040160405180910390fd5b6103d1611198565b6001600160a01b0384165f9081526003602052604090205460ff161561043e5760405162461bcd60e51b815260206004820152601a60248201527f544c3a20616c72656164792068617320616c6c6f636174696f6e00000000000060448201526064015b60405180910390fd5b6001600160a01b03841661048b5760405162461bcd60e51b8152602060048201526014602482015273544c3a207a65726f2062656e656669636961727960601b6044820152606401610435565b600180546001600160a01b0386165f8181526002602090815260408083209490945560038152838220805460ff1916861790558351608081018552928352828101889052828401919091528251601f86018290048202810182019093528483529091606083019186908690819084018382808284375f920182905250939094525050835460018082018655948252602091829020845160049092020180546001600160a01b0319166001600160a01b0390921691909117815590830151938101939093555060408101516002830155606081015190919060038201906105719082611599565b505050836001600160a01b03167fc527f597773d91b8c286041d7ac06bf8bc77227a9de5af3c4e80c0df1804a0ee8484846040516105b193929190611681565b60405180910390a250505050565b6105c76111fc565b335f9081526003602052604090205460ff166105f857604051638057a76160e01b8152336004820152602401610435565b5f6106276302c7ea007f00000000000000000000000000000000000000000000000000000000000000006116b7565b90508042101561064d576040516308a3232360e01b815260048101829052602401610435565b335f90815260026020526040812054600180549091908110610671576106716116d0565b905f5260205f20906004020190505f61068982611217565b90505f82600201548261069c91906116e4565b90505f81116106e45760405162461bcd60e51b8152602060048201526014602482015273544c3a206e6f7468696e6720746f20636c61696d60601b6044820152606401610435565b80836002015f8282546106f791906116b7565b909155505060405163a9059cbb60e01b8152336004820152602481018290527f00000000000000000000000000000000000000000000000000000000000000006001600160a01b03169063a9059cbb906044016020604051808303815f875af1158015610766573d5f803e3d5ffd5b505050506040513d601f19601f8201168201806040525081019061078a91906116f7565b5060405181815233907f32a7537ee28ab9e44edfe4f55db5f08bf3a2bc8c09f2b5e0eaf20715d2609eab9060200160405180910390a2505050506107da60015f8051602061184883398151915255565b565b600581815481106107eb575f80fd5b5f91825260209091200154905081565b336001600160a01b037f000000000000000000000000000000000000000000000000000000000000000016146108695760405162461bcd60e51b81526020600482015260136024820152722a261d103737ba1031b7b7b93234b730ba37b960691b6044820152606401610435565b5f5460ff16156108b15760405162461bcd60e51b815260206004820152601360248201527215130e88185b1c9958591e481c995d9bdad959606a1b6044820152606401610435565b5f805460ff191660011790556040517fdb8c711d14ecdacff719c2bb4960f892ec4000508319efbb3deccba0152b6044906108ef9042815260200190565b60405180910390a1565b5f805460ff168061092957507f000000000000000000000000000000000000000000000000000000000000000042115b1561093357505f90565b61095d427f00000000000000000000000000000000000000000000000000000000000000006116e4565b905090565b5f80805b6005548110156109c15760045f60058381548110610986576109866116d0565b5f918252602080832090910154835282019290925260400190206005015460ff166109b957816109b581611716565b9250505b600101610966565b50919050565b5f336001600160a01b037f00000000000000000000000000000000000000000000000000000000000000001614610a1157604051630561727f60e41b815260040160405180910390fd5b610a19611198565b5f610a276202a300426116b7565b90508686864233604051602001610a4295949392919061172e565b6040516020818303038152906040528051906020012091506040518060e00160405280838152602001886001600160a01b0316815260200187878080601f0160208091040260200160405190810160405280939291908181526020018383808284375f920182905250938552505042602080850191909152604080850187905260608501939093528251601f89018290048202810182019093528783526080909301928891508790819084018382808284375f9201829052509390945250508481526004602090815260409182902084518155908401516001820180546001600160a01b0319166001600160a01b03909216919091179055908301519091506002820190610b509082611599565b50606082015160038201556080820151600482015560a082015160058201805460ff191691151591909117905560c08201516006820190610b919082611599565b5050600580546001810182555f919091527f036b6384b5eca791c62761152d0c79bb0604c104a5fb6f4eb0703f3154bb3db0018390555060405182907f307934454fd220d236dd8bf6cce9e024d5f88551cfe5fc91eb223051d3a7cc4190610c00908a9088908890879061176a565b60405180910390a25095945050505050565b6001600160a01b0381165f9081526003602052604081205460ff16610c3857505f919050565b6001600160a01b0382165f90815260026020526040812054600180549091908110610c6557610c656116d0565b905f5260205f20906004020190505f610c7d82611217565b905081600201548111610c90575f610c9f565b6002820154610c9f90826116e4565b949350505050565b336001600160a01b037f00000000000000000000000000000000000000000000000000000000000000001614610cf057604051630561727f60e41b815260040160405180910390fd5b610cf8611198565b5f8181526004602052604090208054610d275760405163a947a72f60e01b815260048101839052602401610435565b600581015460ff1615610d505760405163123ab94560e21b815260048101839052602401610435565b60058101805460ff1916600117905560405182907f123ababb6f85aa48b13de8f5bd2acb5393e4980d969791661dc9873310070395905f90a25050565b60018181548110610d9c575f80fd5b5f91825260209091206004909102018054600182015460028301546003840180546001600160a01b03909416955091939092909190610dda9061151b565b80601f0160208091040260200160405190810160405280929190818152602001828054610e069061151b565b8015610e515780601f10610e2857610100808354040283529160200191610e51565b820191905f5260205f20905b815481529060010190602001808311610e3457829003601f168201915b5050505050905084565b336001600160a01b037f00000000000000000000000000000000000000000000000000000000000000001614610ea457604051630561727f60e41b815260040160405180910390fd5b610eac611198565b610eb46111fc565b5f8181526004602052604090208054610ee35760405163a947a72f60e01b815260048101839052602401610435565b600581015460ff1615610f0c5760405163123ab94560e21b815260048101839052602401610435565b8060040154421015610f3e5760048082015460405163913faacd60e01b81529182018490526024820152604401610435565b60058101805460ff191660019081179091558101546040515f916001600160a01b031690610f7090600285019061179f565b5f604051808303815f865af19150503d805f8114610fa9576040519150601f19603f3d011682016040523d82523d5f602084013e610fae565b606091505b50509050827fb12281ea66c76b1609101fcbf13999132371c3c868616fe42b5bef606792940782604051610fe6911515815260200190565b60405180910390a2505061100660015f8051602061184883398151915255565b50565b5f805460ff1615801561095d5750507f000000000000000000000000000000000000000000000000000000000000000042111590565b60046020525f908152604090208054600182015460028301805492936001600160a01b03909216926110709061151b565b80601f016020809104026020016040519081016040528092919081815260200182805461109c9061151b565b80156110e75780601f106110be576101008083540402835291602001916110e7565b820191905f5260205f20905b8154815290600101906020018083116110ca57829003601f168201915b5050506003840154600485015460058601546006870180549697939692955060ff9091169350906111179061151b565b80601f01602080910402602001604051908101604052809291908181526020018280546111439061151b565b801561118e5780601f106111655761010080835404028352916020019161118e565b820191905f5260205f20905b81548152906001019060200180831161117157829003601f168201915b5050505050905087565b5f5460ff16156111bb57604051631893e37560e01b815260040160405180910390fd5b7f00000000000000000000000000000000000000000000000000000000000000004211156107da57604051631893e37560e01b815260040160405180910390fd5b61120461129a565b60025f8051602061184883398151915255565b5f806112476302c7ea007f00000000000000000000000000000000000000000000000000000000000000006116b7565b90508042101561125957505f92915050565b5f61126482426116e4565b905063058fd400811061127b575050506001015490565b63058fd4008185600101546112909190611811565b610c9f9190611828565b5f80516020611848833981519152546002036107da57604051633ee5aeb560e01b815260040160405180910390fd5b80356001600160a01b03811681146112df575f80fd5b919050565b5f8083601f8401126112f4575f80fd5b50813567ffffffffffffffff81111561130b575f80fd5b602083019150836020828501011115611322575f80fd5b9250929050565b5f805f806060858703121561133c575f80fd5b611345856112c9565b935060208501359250604085013567ffffffffffffffff811115611367575f80fd5b611373878288016112e4565b95989497509550505050565b5f6020828403121561138f575f80fd5b5035919050565b5f805f805f606086880312156113aa575f80fd5b6113b3866112c9565b9450602086013567ffffffffffffffff808211156113cf575f80fd5b6113db89838a016112e4565b909650945060408801359150808211156113f3575f80fd5b50611400888289016112e4565b969995985093965092949392505050565b5f60208284031215611421575f80fd5b61142a826112c9565b9392505050565b5f81518084525f5b8181101561145557602081850181015186830182015201611439565b505f602082860101526020601f19601f83011685010191505092915050565b60018060a01b0385168152836020820152826040820152608060608201525f6114a06080830184611431565b9695505050505050565b8781526001600160a01b038716602082015260e0604082018190525f906114d390830188611431565b86606084015285608084015284151560a084015282810360c08401526114f98185611431565b9a9950505050505050505050565b634e487b7160e01b5f52604160045260245ffd5b600181811c9082168061152f57607f821691505b6020821081036109c157634e487b7160e01b5f52602260045260245ffd5b601f82111561159457805f5260205f20601f840160051c810160208510156115725750805b601f840160051c820191505b81811015611591575f815560010161157e565b50505b505050565b815167ffffffffffffffff8111156115b3576115b3611507565b6115c7816115c1845461151b565b8461154d565b602080601f8311600181146115fa575f84156115e35750858301515b5f19600386901b1c1916600185901b178555611651565b5f85815260208120601f198616915b8281101561162857888601518255948401946001909101908401611609565b508582101561164557878501515f19600388901b60f8161c191681555b505060018460011b0185555b505050505050565b81835281816020850137505f828201602090810191909152601f909101601f19169091010190565b838152604060208201525f61169a604083018486611659565b95945050505050565b634e487b7160e01b5f52601160045260245ffd5b808201808211156116ca576116ca6116a3565b92915050565b634e487b7160e01b5f52603260045260245ffd5b818103818111156116ca576116ca6116a3565b5f60208284031215611707575f80fd5b8151801515811461142a575f80fd5b5f60018201611727576117276116a3565b5060010190565b5f60018060a01b03808816835260806020840152611750608084018789611659565b604084019590955292909216606090910152509392505050565b6001600160a01b03851681526060602082018190525f9061178e9083018587611659565b905082604083015295945050505050565b5f8083546117ac8161151b565b600182811680156117c457600181146117d957611805565b60ff1984168752821515830287019450611805565b875f526020805f205f5b858110156117fc5781548a8201529084019082016117e3565b50505082870194505b50929695505050505050565b80820281158282048414176116ca576116ca6116a3565b5f8261184257634e487b7160e01b5f52601260045260245ffd5b50049056fe9b779b17422d0df92223018b32b4d1fa46e071723d6817e2486d003becc55f00a26469706673582212202510afd206baacc8b0648c63671bfd1c1f78dc0194f7071776f2d409d467c9f164736f6c63430008180033",
  "linkReferences": {},
  "deployedLinkReferences": {}
}