{
  "_format": "hh-sol-artifact-1",
  "contractName": "ConvictionVoting",
  "sourceName": "contracts/ConvictionVoting.sol",
  "abi": [
    {
      "inputs": [
        {
          "internalType": "address",
          "name": "_gaiaToken",
          "type": "address"
        }
      ],
      "stateMutability": "nonpayable",
      "type": "constructor"
    },
    {
      "inputs": [
        {
          "internalType": "uint256",
          "name": "currentProposal",
          "type": "uint256"
        }
      ],
      "name": "AlreadyVotingOnDifferentProposal",
      "type": "error"
    },
    {
      "inputs": [
        {
          "internalType": "uint256",
          "name": "proposalId",
          "type": "uint256"
        },
        {
          "internalType": "uint256",
          "name": "blocksRemaining",
          "type": "uint256"
        }
      ],
      "name": "ConvictionNotMature",
      "type": "error"
    },
    {
      "inputs": [
        {
          "internalType": "uint256",
          "name": "proposalId",
          "type": "uint256"
        }
      ],
      "name": "ExecutionFailed",
      "type": "error"
    },
    {
      "inputs": [],
      "name": "NotEnoughTokensLocked",
      "type": "error"
    },
    {
      "inputs": [
        {
          "internalType": "uint256",
          "name": "proposalId",
          "type": "uint256"
        }
      ],
      "name": "ProposalNotActive",
      "type": "error"
    },
    {
      "inputs": [
        {
          "internalType": "uint256",
          "name": "proposalId",
          "type": "uint256"
        }
      ],
      "name": "ProposalNotPassed",
      "type": "error"
    },
    {
      "inputs": [],
      "name": "ReentrancyGuardReentrantCall",
      "type": "error"
    },
    {
      "anonymous": false,
      "inputs": [
        {
          "indexed": true,
          "internalType": "uint256",
          "name": "proposalId",
          "type": "uint256"
        },
        {
          "indexed": true,
          "internalType": "address",
          "name": "voter",
          "type": "address"
        },
        {
          "indexed": false,
          "internalType": "uint256",
          "name": "newConviction",
          "type": "uint256"
        },
        {
          "indexed": false,
          "internalType": "uint256",
          "name": "totalProposalConviction",
          "type": "uint256"
        }
      ],
      "name": "ConvictionUpdated",
      "type": "event"
    },
    {
      "anonymous": false,
      "inputs": [
        {
          "indexed": true,
          "internalType": "uint256",
          "name": "proposalId",
          "type": "uint256"
        },
        {
          "indexed": true,
          "internalType": "address",
          "name": "proposer",
          "type": "address"
        },
        {
          "indexed": false,
          "internalType": "enum ConvictionVoting.ProposalType",
          "name": "proposalType",
          "type": "uint8"
        },
        {
          "indexed": false,
          "internalType": "string",
          "name": "title",
          "type": "string"
        },
        {
          "indexed": false,
          "internalType": "uint256",
          "name": "requiredConviction",
          "type": "uint256"
        }
      ],
      "name": "ProposalCreated",
      "type": "event"
    },
    {
      "anonymous": false,
      "inputs": [
        {
          "indexed": true,
          "internalType": "uint256",
          "name": "proposalId",
          "type": "uint256"
        }
      ],
      "name": "ProposalExecuted",
      "type": "event"
    },
    {
      "anonymous": false,
      "inputs": [
        {
          "indexed": true,
          "internalType": "uint256",
          "name": "proposalId",
          "type": "uint256"
        },
        {
          "indexed": false,
          "internalType": "uint256",
          "name": "conviction",
          "type": "uint256"
        }
      ],
      "name": "ProposalPassed",
      "type": "event"
    },
    {
      "anonymous": false,
      "inputs": [
        {
          "indexed": true,
          "internalType": "uint256",
          "name": "proposalId",
          "type": "uint256"
        }
      ],
      "name": "ProposalRejected",
      "type": "event"
    },
    {
      "anonymous": false,
      "inputs": [
        {
          "indexed": true,
          "internalType": "address",
          "name": "voter",
          "type": "address"
        },
        {
          "indexed": false,
          "internalType": "uint256",
          "name": "amount",
          "type": "uint256"
        }
      ],
      "name": "TokensLocked",
      "type": "event"
    },
    {
      "anonymous": false,
      "inputs": [
        {
          "indexed": true,
          "internalType": "address",
          "name": "voter",
          "type": "address"
        },
        {
          "indexed": false,
          "internalType": "uint256",
          "name": "amount",
          "type": "uint256"
        }
      ],
      "name": "TokensUnlocked",
      "type": "event"
    },
    {
      "inputs": [],
      "name": "BPS_DENOMINATOR",
      "outputs": [
        {
          "internalType": "uint256",
          "name": "",
          "type": "uint256"
        }
      ],
      "stateMutability": "view",
      "type": "function"
    },
    {
      "inputs": [],
      "name": "DECAY_DENOMINATOR",
      "outputs": [
        {
          "internalType": "uint256",
          "name": "",
          "type": "uint256"
        }
      ],
      "stateMutability": "view",
      "type": "function"
    },
    {
      "inputs": [],
      "name": "DECAY_NUMERATOR",
      "outputs": [
        {
          "internalType": "uint256",
          "name": "",
          "type": "uint256"
        }
      ],
      "stateMutability": "view",
      "type": "function"
    },
    {
      "inputs": [],
      "name": "EMERGENCY_QUORUM_BPS",
      "outputs": [
        {
          "internalType": "uint256",
          "name": "",
          "type": "uint256"
        }
      ],
      "stateMutability": "view",
      "type": "function"
    },
    {
      "inputs": [],
      "name": "MAX_CONVICTION_PER_TOKEN",
      "outputs": [
        {
          "internalType": "uint256",
          "name": "",
          "type": "uint256"
        }
      ],
      "stateMutability": "view",
      "type": "function"
    },
    {
      "inputs": [],
      "name": "MIN_CONVICTION_BLOCKS",
      "outputs": [
        {
          "internalType": "uint256",
          "name": "",
          "type": "uint256"
        }
      ],
      "stateMutability": "view",
      "type": "function"
    },
    {
      "inputs": [],
      "name": "ORACLE_QUORUM_BPS",
      "outputs": [
        {
          "internalType": "uint256",
          "name": "",
          "type": "uint256"
        }
      ],
      "stateMutability": "view",
      "type": "function"
    },
    {
      "inputs": [],
      "name": "STANDARD_QUORUM_BPS",
      "outputs": [
        {
          "internalType": "uint256",
          "name": "",
          "type": "uint256"
        }
      ],
      "stateMutability": "view",
      "type": "function"
    },
    {
      "inputs": [
        {
          "internalType": "uint256",
          "name": "proposalId",
          "type": "uint256"
        }
      ],
      "name": "allocateConviction",
      "outputs": [],
      "stateMutability": "nonpayable",
      "type": "function"
    },
    {
      "inputs": [
        {
          "internalType": "enum ConvictionVoting.ProposalType",
          "name": "proposalType_",
          "type": "uint8"
        },
        {
          "internalType": "string",
          "name": "title",
          "type": "string"
        },
        {
          "internalType": "string",
          "name": "description",
          "type": "string"
        },
        {
          "internalType": "address",
          "name": "targetContract",
          "type": "address"
        },
        {
          "internalType": "bytes",
          "name": "callData_",
          "type": "bytes"
        }
      ],
      "name": "createProposal",
      "outputs": [
        {
          "internalType": "uint256",
          "name": "proposalId",
          "type": "uint256"
        }
      ],
      "stateMutability": "nonpayable",
      "type": "function"
    },
    {
      "inputs": [
        {
          "internalType": "uint256",
          "name": "proposalId",
          "type": "uint256"
        }
      ],
      "name": "executeProposal",
      "outputs": [],
      "stateMutability": "nonpayable",
      "type": "function"
    },
    {
      "inputs": [],
      "name": "gaiaToken",
      "outputs": [
        {
          "internalType": "contract IERC20",
          "name": "",
          "type": "address"
        }
      ],
      "stateMutability": "view",
      "type": "function"
    },
    {
      "inputs": [
        {
          "internalType": "uint256",
          "name": "proposalId",
          "type": "uint256"
        }
      ],
      "name": "getProposal",
      "outputs": [
        {
          "components": [
            {
              "internalType": "uint256",
              "name": "proposalId",
              "type": "uint256"
            },
            {
              "internalType": "address",
              "name": "proposer",
              "type": "address"
            },
            {
              "internalType": "enum ConvictionVoting.ProposalType",
              "name": "proposalType",
              "type": "uint8"
            },
            {
              "internalType": "enum ConvictionVoting.ProposalStatus",
              "name": "status",
              "type": "uint8"
            },
            {
              "internalType": "string",
              "name": "title",
              "type": "string"
            },
            {
              "internalType": "string",
              "name": "description",
              "type": "string"
            },
            {
              "internalType": "bytes",
              "name": "callData",
              "type": "bytes"
            },
            {
              "internalType": "address",
              "name": "targetContract",
              "type": "address"
            },
            {
              "internalType": "uint256",
              "name": "totalConviction",
              "type": "uint256"
            },
            {
              "internalType": "uint256",
              "name": "createdAt",
              "type": "uint256"
            },
            {
              "internalType": "uint256",
              "name": "passedAt",
              "type": "uint256"
            },
            {
              "internalType": "uint256",
              "name": "lastUpdated",
              "type": "uint256"
            },
            {
              "internalType": "uint256",
              "name": "requiredConviction",
              "type": "uint256"
            },
            {
              "internalType": "bool",
              "name": "executed",
              "type": "bool"
            }
          ],
          "internalType": "struct ConvictionVoting.Proposal",
          "name": "",
          "type": "tuple"
        }
      ],
      "stateMutability": "view",
      "type": "function"
    },
    {
      "inputs": [
        {
          "internalType": "uint256",
          "name": "proposalId",
          "type": "uint256"
        }
      ],
      "name": "getProposalProgress",
      "outputs": [
        {
          "internalType": "uint256",
          "name": "current",
          "type": "uint256"
        },
        {
          "internalType": "uint256",
          "name": "required",
          "type": "uint256"
        },
        {
          "internalType": "uint256",
          "name": "percentBps",
          "type": "uint256"
        }
      ],
      "stateMutability": "view",
      "type": "function"
    },
    {
      "inputs": [
        {
          "internalType": "address",
          "name": "voter",
          "type": "address"
        }
      ],
      "name": "getVoterConviction",
      "outputs": [
        {
          "internalType": "uint256",
          "name": "",
          "type": "uint256"
        }
      ],
      "stateMutability": "view",
      "type": "function"
    },
    {
      "inputs": [
        {
          "internalType": "uint256",
          "name": "amount",
          "type": "uint256"
        }
      ],
      "name": "lockTokens",
      "outputs": [],
      "stateMutability": "nonpayable",
      "type": "function"
    },
    {
      "inputs": [],
      "name": "proposalCounter",
      "outputs": [
        {
          "internalType": "uint256",
          "name": "",
          "type": "uint256"
        }
      ],
      "stateMutability": "view",
      "type": "function"
    },
    {
      "inputs": [
        {
          "internalType": "uint256",
          "name": "",
          "type": "uint256"
        },
        {
          "internalType": "uint256",
          "name": "",
          "type": "uint256"
        }
      ],
      "name": "proposalVoters",
      "outputs": [
        {
          "internalType": "address",
          "name": "",
          "type": "address"
        }
      ],
      "stateMutability": "view",
      "type": "function"
    },
    {
      "inputs": [
        {
          "internalType": "uint256",
          "name": "",
          "type": "uint256"
        }
      ],
      "name": "proposals",
      "outputs": [
        {
          "internalType": "uint256",
          "name": "proposalId",
          "type": "uint256"
        },
        {
          "internalType": "address",
          "name": "proposer",
          "type": "address"
        },
        {
          "internalType": "enum ConvictionVoting.ProposalType",
          "name": "proposalType",
          "type": "uint8"
        },
        {
          "internalType": "enum ConvictionVoting.ProposalStatus",
          "name": "status",
          "type": "uint8"
        },
        {
          "internalType": "string",
          "name": "title",
          "type": "string"
        },
        {
          "internalType": "string",
          "name": "description",
          "type": "string"
        },
        {
          "internalType": "bytes",
          "name": "callData",
          "type": "bytes"
        },
        {
          "internalType": "address",
          "name": "targetContract",
          "type": "address"
        },
        {
          "internalType": "uint256",
          "name": "totalConviction",
          "type": "uint256"
        },
        {
          "internalType": "uint256",
          "name": "createdAt",
          "type": "uint256"
        },
        {
          "internalType": "uint256",
          "name": "passedAt",
          "type": "uint256"
        },
        {
          "internalType": "uint256",
          "name": "lastUpdated",
          "type": "uint256"
        },
        {
          "internalType": "uint256",
          "name": "requiredConviction",
          "type": "uint256"
        },
        {
          "internalType": "bool",
          "name": "executed",
          "type": "bool"
        }
      ],
      "stateMutability": "view",
      "type": "function"
    },
    {
      "inputs": [],
      "name": "totalGlobalConviction",
      "outputs": [
        {
          "internalType": "uint256",
          "name": "",
          "type": "uint256"
        }
      ],
      "stateMutability": "view",
      "type": "function"
    },
    {
      "inputs": [],
      "name": "totalLockedTokens",
      "outputs": [
        {
          "internalType": "uint256",
          "name": "",
          "type": "uint256"
        }
      ],
      "stateMutability": "view",
      "type": "function"
    },
    {
      "inputs": [
        {
          "internalType": "uint256",
          "name": "amount",
          "type": "uint256"
        }
      ],
      "name": "unlockTokens",
      "outputs": [],
      "stateMutability": "nonpayable",
      "type": "function"
    },
    {
      "inputs": [
        {
          "internalType": "address",
          "name": "",
          "type": "address"
        }
      ],
      "name": "voterStates",
      "outputs": [
        {
          "internalType": "uint256",
          "name": "lockedTokens",
          "type": "uint256"
        },
        {
          "internalType": "uint256",
          "name": "conviction",
          "type": "uint256"
        },
        {
          "internalType": "uint256",
          "name": "lastBlock",
          "type": "uint256"
        },
        {
          "internalType": "uint256",
          "name": "votedProposal",
          "type": "uint256"
        }
      ],
      "stateMutability": "view",
      "type": "function"
    },
    {
      "inputs": [
        {
          "internalType": "uint256",
          "name": "proposalId",
          "type": "uint256"
        }
      ],
      "name": "withdrawConviction",
      "outputs": [],
      "stateMutability": "nonpayable",
      "type": "function"
    }
  ],
  "bytecode": "0x60a060405234801561000f575f80fd5b5060405162001ede38038062001ede833981016040819052610030916100b4565b60017f9b779b17422d0df92223018b32b4d1fa46e071723d6817e2486d003becc55f00556001600160a01b0381166100a35760405162461bcd60e51b815260206004820152601260248201527121ab1d103d32b9379033b0b4b0aa37b5b2b760711b604482015260640160405180910390fd5b6001600160a01b03166080526100e1565b5f602082840312156100c4575f80fd5b81516001600160a01b03811681146100da575f80fd5b9392505050565b608051611dd6620001085f395f818161021301528181610c340152610f470152611dd65ff3fe608060405234801561000f575f80fd5b5060043610610153575f3560e01c80637a5a5786116100bf578063ab89437c11610079578063ab89437c1461031a578063ad14a23c1461032d578063c7f758a814610340578063e1a4521814610269578063f5c476f914610360578063fd24f83414610369575f80fd5b80637a5a5786146102aa5780637c405325146102bd57806381b2619e146102d0578063914897f4146102da578063995c37d6146103085780639bfc350014610311575f80fd5b80633b904c51116101105780633b904c51146102565780633f25575f146102695780634150e034146102725780635bb3e1d51461027b5780636e27d8891461028e57806370349cba146102a1575f80fd5b8063013cf08b146101575780630b5e450f1461018d5780630c0512e9146101e35780630d61b519146101f957806324009b781461020e578063298901671461024d575b5f80fd5b61016a610165366004611700565b610372565b6040516101849e9d9c9b9a99989796959493929190611792565b60405180910390f35b6101c361019b366004611873565b600260208190525f918252604090912080546001820154928201546003909201549092919084565b604080519485526020850193909352918301526060820152608001610184565b6101eb5f5481565b604051908152602001610184565b61020c610207366004611700565b61058b565b005b6102357f000000000000000000000000000000000000000000000000000000000000000081565b6040516001600160a01b039091168152602001610184565b6101eb619d8081565b61020c610264366004611700565b610726565b6101eb61271081565b6101eb60055481565b6101eb6102893660046118d8565b6107e0565b61020c61029c366004611700565b610bc9565b6101eb61232881565b6101eb6102b8366004611873565b610d81565b61020c6102cb366004611700565b610dd5565b6101eb620f424081565b6102ed6102e8366004611700565b610fec565b60408051938452602084019290925290820152606001610184565b6101eb610ce481565b6101eb611d4c81565b610235610328366004611993565b611032565b61020c61033b366004611700565b611066565b61035361034e366004611700565b61126e565b60405161018491906119b3565b6101eb60045481565b6101eb61270f81565b600160208190525f91825260409091208054918101546002820180546001600160a01b0383169360ff600160a01b8504811694600160a81b9004169290916103b990611aca565b80601f01602080910402602001604051908101604052809291908181526020018280546103e590611aca565b80156104305780601f1061040757610100808354040283529160200191610430565b820191905f5260205f20905b81548152906001019060200180831161041357829003601f168201915b50505050509080600301805461044590611aca565b80601f016020809104026020016040519081016040528092919081815260200182805461047190611aca565b80156104bc5780601f10610493576101008083540402835291602001916104bc565b820191905f5260205f20905b81548152906001019060200180831161049f57829003601f168201915b5050505050908060040180546104d190611aca565b80601f01602080910402602001604051908101604052809291908181526020018280546104fd90611aca565b80156105485780601f1061051f57610100808354040283529160200191610548565b820191905f5260205f20905b81548152906001019060200180831161052b57829003601f168201915b5050505060058301546006840154600785015460088601546009870154600a880154600b9098015496976001600160a01b03909516969395509193909260ff168e565b61059361158e565b5f818152600160208190526040909120906001820154600160a81b900460ff1660048111156105c4576105c4611717565b146105ea57604051632890d12160e21b8152600481018390526024015b60405180910390fd5b5f8160080154436105fb9190611b16565b9050619d80811015610636578261061482619d80611b16565b604051634244064f60e01b8152600481019290925260248201526044016105e1565b6001828101805460ff60a81b1916600360a81b179055600b8301805460ff1916909117905560058201546040515f916001600160a01b03169061067d906004860190611b29565b5f604051808303815f865af19150503d805f81146106b6576040519150601f19603f3d011682016040523d82523d5f602084013e6106bb565b606091505b50509050806106e057604051632497eb8760e11b8152600481018590526024016105e1565b60405184907f712ae1383f79ac853f8d882153778e0260ef8f03b504e2866e0593e04d2b291f905f90a250505061072360015f80516020611d8183398151915255565b50565b335f908152600260205260409020600381015482146107875760405162461bcd60e51b815260206004820152601f60248201527f43563a206e6f7420766f74696e67206f6e20746869732070726f706f73616c0060448201526064016105e1565b6001808201545f8481526020929092526040909120600601548181116107ad575f6107b7565b6107b78282611b16565b5f9485526001602081905260408620600601919091558301849055505043600282015560030155565b335f9081526002602052604081205461083b5760405162461bcd60e51b815260206004820152601a60248201527f43563a206d757374206c6f636b20746f6b656e7320666972737400000000000060448201526064016105e1565b8661087a5760405162461bcd60e51b815260206004820152600f60248201526e43563a20656d707479207469746c6560881b60448201526064016105e1565b5f80815461088790611b9b565b918290555090505f60028a60038111156108a3576108a3611717565b036108b157506123286108d8565b60038a60038111156108c5576108c5611717565b036108d35750611d4c6108d8565b50610ce45b5f620f42406004546108ea9190611bb3565b90505f6127106108fa8484611bb3565b6109049190611bca565b604080516101c08101825286815233602082015291925081018d600381111561092f5761092f611717565b81526020015f81526020018c8c8080601f0160208091040260200160405190810160405280939291908181526020018383808284375f92019190915250505090825250604080516020601f8d018190048102820181019092528b815291810191908c908c90819084018382808284375f92019190915250505090825250604080516020601f8a01819004810282018101909252888152918101919089908990819084018382808284375f9201829052509385525050506001600160a01b03808b16602080850191909152604080850184905243606086018190526080860185905260a086015260c0850187905260e090940183905288835260018082529284902085518155908501519281018054939092166001600160a01b031984168117835593850151909390926001600160a81b03191617600160a01b836003811115610a7a57610a7a611717565b0217905550606082015160018201805460ff60a81b1916600160a81b836004811115610aa857610aa8611717565b021790555060808201516002820190610ac19082611c49565b5060a08201516003820190610ad69082611c49565b5060c08201516004820190610aeb9082611c49565b5060e0820151816005015f6101000a8154816001600160a01b0302191690836001600160a01b03160217905550610100820151816006015561012082015181600701556101408201518160080155610160820151816009015561018082015181600a01556101a082015181600b015f6101000a81548160ff021916908315150217905550905050336001600160a01b0316847f2160cbf9d326719dd2cc1be7c9b9c511051b9228f9b3edc8fe58aed7d44fdac38e8e8e86604051610bb29493929190611d09565b60405180910390a350505098975050505050505050565b610bd161158e565b5f8111610c125760405162461bcd60e51b815260206004820152600f60248201526e10d58e881e995c9bc8185b5bdd5b9d608a1b60448201526064016105e1565b6040516323b872dd60e01b8152336004820152306024820152604481018290527f00000000000000000000000000000000000000000000000000000000000000006001600160a01b0316906323b872dd906064016020604051808303815f875af1158015610c82573d5f803e3d5ffd5b505050506040513d601f19601f82011682018060405250810190610ca69190611d4e565b50335f9081526002602081905260409091209081015415610cfe5760408051608081018252825481526001830154602082015260028301549181019190915260038201546060820152610cf8906115a9565b60018201555b81815f015f828254610d109190611d6d565b9091555050436002820155600480548391905f90610d2f908490611d6d565b909155505060405182815233907fac87f20a77d28ee8bbb58ec87ea8fa968b3393efae1a368fd50b767c2847391c906020015b60405180910390a25061072360015f80516020611d8183398151915255565b6001600160a01b0381165f90815260026020818152604080842081516080810183528154815260018201549381019390935292830154908201526003909101546060820152610dcf906115a9565b92915050565b610ddd61158e565b335f9081526002602052604090208054821115610e3c5760405162461bcd60e51b815260206004820152601760248201527f43563a20696e73756666696369656e74206c6f636b656400000000000000000060448201526064016105e1565b600381015415610e8e5760405162461bcd60e51b815260206004820152601e60248201527f43563a2063616e6e6f7420756e6c6f636b207768696c6520766f74696e67000060448201526064016105e1565b60408051608081018252825481526001830154602082015260028301549181019190915260038201546060820152610ec5906115a9565b60018201558054610ed68382611b16565b8260010154610ee59190611bb3565b610eef9190611bca565b60018201558054829082905f90610f07908490611b16565b9091555050436002820155600480548391905f90610f26908490611b16565b909155505060405163a9059cbb60e01b8152336004820152602481018390527f00000000000000000000000000000000000000000000000000000000000000006001600160a01b03169063a9059cbb906044016020604051808303815f875af1158015610f95573d5f803e3d5ffd5b505050506040513d601f19601f82011682018060405250810190610fb99190611d4e565b5060405182815233907fe7b379c6c1fa169e9079c25e9143b127637eef8ec8c9d5c06ddb4ab3e119588890602001610d62565b5f8181526001602052604081206006810154600a8201549092909182611012575f611029565b8261101f61271086611bb3565b6110299190611bca565b93959294505050565b6003602052815f5260405f20818154811061104b575f80fd5b5f918252602090912001546001600160a01b03169150829050565b5f8111801561107657505f548111155b6110c25760405162461bcd60e51b815260206004820152601b60248201527f43563a2070726f706f73616c20646f6573206e6f74206578697374000000000060448201526064016105e1565b5f818152600160205260408120906001820154600160a81b900460ff1660048111156110f0576110f0611717565b14611111576040516344980d8f60e01b8152600481018390526024016105e1565b335f908152600260205260408120805490910361114157604051630381177960e01b815260040160405180910390fd5b600381015415801590611158575082816003015414155b1561117e5780600301546040516348e1703f60e01b81526004016105e191815260200190565b604080516080810182528254815260018301546020820152600283015491810191909152600382015460608201525f906111b7906115a9565b600183018190554360028401556003830185905560068401805491925082915f906111e3908490611d6d565b90915550504360098401555f84815260036020908152604080832080546001810182559084529282902090920180546001600160a01b0319163390811790915560068601548351858152928301529186917f01c1428ce38ed044320c623421a5e5d4d149e81c8dd4e7d8b1919c270bf7bba8910160405180910390a36112688461162d565b50505050565b6112e2604080516101c0810182525f80825260208201819052909182019081526020015f81526020016060815260200160608152602001606081526020015f6001600160a01b031681526020015f81526020015f81526020015f81526020015f81526020015f81526020015f151581525090565b5f8281526001602081815260409283902083516101c08101855281548152928101546001600160a01b038116928401929092529192830190600160a01b900460ff16600381111561133557611335611717565b600381111561134657611346611717565b81526020016001820160159054906101000a900460ff16600481111561136e5761136e611717565b600481111561137f5761137f611717565b815260200160028201805461139390611aca565b80601f01602080910402602001604051908101604052809291908181526020018280546113bf90611aca565b801561140a5780601f106113e15761010080835404028352916020019161140a565b820191905f5260205f20905b8154815290600101906020018083116113ed57829003601f168201915b5050505050815260200160038201805461142390611aca565b80601f016020809104026020016040519081016040528092919081815260200182805461144f90611aca565b801561149a5780601f106114715761010080835404028352916020019161149a565b820191905f5260205f20905b81548152906001019060200180831161147d57829003601f168201915b505050505081526020016004820180546114b390611aca565b80601f01602080910402602001604051908101604052809291908181526020018280546114df90611aca565b801561152a5780601f106115015761010080835404028352916020019161152a565b820191905f5260205f20905b81548152906001019060200180831161150d57829003601f168201915b505050918352505060058201546001600160a01b03166020820152600682015460408201526007820154606082015260088201546080820152600982015460a0820152600a82015460c0820152600b9091015460ff16151560e09091015292915050565b6115966116cf565b60025f80516020611d8183398151915255565b80515f9081036115ba57505f919050565b81604001515f036115cc57505f919050565b5f8260400151436115dd9190611b16565b90505f620f4240845f01516115f29190611bb3565b90505f82855f01516116049190611bb3565b85602001516116139190611d6d565b90508181116116225780611624565b815b95945050505050565b5f818152600160205260409020600a81015460068201541080159061167057505f6001820154600160a81b900460ff16600481111561166e5761166e611717565b145b156116cb5760018101805460ff60a81b1916600160a81b1790554360088201556006810154604080519182525183917f646e6c03c7af143a9a24603e3ed75695bb683446c464bfd940be5832660f7bd0919081900360200190a25b5050565b5f80516020611d81833981519152546002036116fe57604051633ee5aeb560e01b815260040160405180910390fd5b565b5f60208284031215611710575f80fd5b5035919050565b634e487b7160e01b5f52602160045260245ffd5b6004811061173b5761173b611717565b9052565b6005811061173b5761173b611717565b5f81518084525f5b8181101561177357602081850181015186830182015201611757565b505f602082860101526020601f19601f83011685010191505092915050565b8e81526001600160a01b038e1660208201526117b1604082018e61172b565b6117be606082018d61173f565b6101c060808201525f6117d56101c083018d61174f565b82810360a08401526117e7818d61174f565b905082810360c08401526117fb818c61174f565b91505061181360e083018a6001600160a01b03169052565b87610100830152866101208301528561014083015284610160830152836101808301526118456101a083018415159052565b9f9e505050505050505050505050505050565b80356001600160a01b038116811461186e575f80fd5b919050565b5f60208284031215611883575f80fd5b61188c82611858565b9392505050565b5f8083601f8401126118a3575f80fd5b50813567ffffffffffffffff8111156118ba575f80fd5b6020830191508360208285010111156118d1575f80fd5b9250929050565b5f805f805f805f8060a0898b0312156118ef575f80fd5b8835600481106118fd575f80fd5b9750602089013567ffffffffffffffff80821115611919575f80fd5b6119258c838d01611893565b909950975060408b013591508082111561193d575f80fd5b6119498c838d01611893565b909750955085915061195d60608c01611858565b945060808b0135915080821115611972575f80fd5b5061197f8b828c01611893565b999c989b5096995094979396929594505050565b5f80604083850312156119a4575f80fd5b50508035926020909101359150565b60208152815160208201525f60208301516119d960408401826001600160a01b03169052565b5060408301516119ec606084018261172b565b5060608301516119ff608084018261173f565b5060808301516101c08060a0850152611a1c6101e085018361174f565b915060a0850151601f19808685030160c0870152611a3a848361174f565b935060c08701519150808685030160e087015250611a58838261174f565b92505060e0850151610100611a77818701836001600160a01b03169052565b860151610120868101919091528601516101408087019190915286015161016080870191909152860151610180808701919091528601516101a08087019190915290950151151593019290925250919050565b600181811c90821680611ade57607f821691505b602082108103611afc57634e487b7160e01b5f52602260045260245ffd5b50919050565b634e487b7160e01b5f52601160045260245ffd5b81810381811115610dcf57610dcf611b02565b5f808354611b3681611aca565b60018281168015611b4e5760018114611b6357611b8f565b60ff1984168752821515830287019450611b8f565b875f526020805f205f5b85811015611b865781548a820152908401908201611b6d565b50505082870194505b50929695505050505050565b5f60018201611bac57611bac611b02565b5060010190565b8082028115828204841417610dcf57610dcf611b02565b5f82611be457634e487b7160e01b5f52601260045260245ffd5b500490565b634e487b7160e01b5f52604160045260245ffd5b601f821115611c4457805f5260205f20601f840160051c81016020851015611c225750805b601f840160051c820191505b81811015611c41575f8155600101611c2e565b50505b505050565b815167ffffffffffffffff811115611c6357611c63611be9565b611c7781611c718454611aca565b84611bfd565b602080601f831160018114611caa575f8415611c935750858301515b5f19600386901b1c1916600185901b178555611d01565b5f85815260208120601f198616915b82811015611cd857888601518255948401946001909101908401611cb9565b5085821015611cf557878501515f19600388901b60f8161c191681555b505060018460011b0185555b505050505050565b611d13818661172b565b60606020820152826060820152828460808301375f608084830101525f6080601f19601f860116830101905082604083015295945050505050565b5f60208284031215611d5e575f80fd5b8151801515811461188c575f80fd5b80820180821115610dcf57610dcf611b0256fe9b779b17422d0df92223018b32b4d1fa46e071723d6817e2486d003becc55f00a2646970667358221220d0109aeabb13dba90c324a8d6d6d1250b942a4ec45507a3bafa8906090d1276f64736f6c63430008180033",
  "linkReferences": {},
  "deployedLinkReferences": {}
}