{
  "_format": "hh-sol-artifact-1",
  "contractName": "FrozenOracle",
  "sourceName": "contracts/FrozenOracle.sol",
  "abi": [
    {
      "inputs": [
        {
          "internalType": "address",
          "name": "_convictionVoting",
          "type": "address"
        }
      ],
      "stateMutability": "nonpayable",
      "type": "constructor"
    },
    {
      "inputs": [
        {
          "internalType": "bytes32",
          "name": "jobTypeId",
          "type": "bytes32"
        }
      ],
      "name": "JobTypeNotApproved",
      "type": "error"
    },
    {
      "inputs": [],
      "name": "NotConvictionVoting",
      "type": "error"
    },
    {
      "inputs": [],
      "name": "OracleAlreadyInitialized",
      "type": "error"
    },
    {
      "inputs": [],
      "name": "UpdateWindowNotOpen",
      "type": "error"
    },
    {
      "inputs": [],
      "name": "ZeroHash",
      "type": "error"
    },
    {
      "anonymous": false,
      "inputs": [
        {
          "indexed": true,
          "internalType": "bytes32",
          "name": "jobTypeId",
          "type": "bytes32"
        },
        {
          "indexed": false,
          "internalType": "string",
          "name": "description",
          "type": "string"
        }
      ],
      "name": "JobTypeApproved",
      "type": "event"
    },
    {
      "anonymous": false,
      "inputs": [
        {
          "indexed": true,
          "internalType": "bytes32",
          "name": "modelHash",
          "type": "bytes32"
        },
        {
          "indexed": false,
          "internalType": "string",
          "name": "modelCID",
          "type": "string"
        },
        {
          "indexed": false,
          "internalType": "uint256",
          "name": "genesisTimestamp",
          "type": "uint256"
        }
      ],
      "name": "OracleInitialized",
      "type": "event"
    },
    {
      "anonymous": false,
      "inputs": [
        {
          "indexed": true,
          "internalType": "bytes32",
          "name": "proposedHash",
          "type": "bytes32"
        },
        {
          "indexed": false,
          "internalType": "string",
          "name": "proposedCID",
          "type": "string"
        },
        {
          "indexed": false,
          "internalType": "uint256",
          "name": "voteWindowOpen",
          "type": "uint256"
        }
      ],
      "name": "OracleUpdateProposed",
      "type": "event"
    },
    {
      "anonymous": false,
      "inputs": [
        {
          "indexed": true,
          "internalType": "bytes32",
          "name": "oldHash",
          "type": "bytes32"
        },
        {
          "indexed": true,
          "internalType": "bytes32",
          "name": "newHash",
          "type": "bytes32"
        },
        {
          "indexed": false,
          "internalType": "string",
          "name": "newCID",
          "type": "string"
        }
      ],
      "name": "OracleUpdated",
      "type": "event"
    },
    {
      "inputs": [],
      "name": "ORACLE_SPEC_VERSION",
      "outputs": [
        {
          "internalType": "string",
          "name": "",
          "type": "string"
        }
      ],
      "stateMutability": "view",
      "type": "function"
    },
    {
      "inputs": [],
      "name": "ORACLE_UPDATE_PERIOD",
      "outputs": [
        {
          "internalType": "uint256",
          "name": "",
          "type": "uint256"
        }
      ],
      "stateMutability": "view",
      "type": "function"
    },
    {
      "inputs": [],
      "name": "ORACLE_UPDATE_QUORUM_BPS",
      "outputs": [
        {
          "internalType": "uint256",
          "name": "",
          "type": "uint256"
        }
      ],
      "stateMutability": "view",
      "type": "function"
    },
    {
      "inputs": [],
      "name": "approvedJobTypeCount",
      "outputs": [
        {
          "internalType": "uint256",
          "name": "",
          "type": "uint256"
        }
      ],
      "stateMutability": "view",
      "type": "function"
    },
    {
      "inputs": [
        {
          "internalType": "uint256",
          "name": "",
          "type": "uint256"
        }
      ],
      "name": "approvedJobTypes",
      "outputs": [
        {
          "internalType": "bytes32",
          "name": "",
          "type": "bytes32"
        }
      ],
      "stateMutability": "view",
      "type": "function"
    },
    {
      "inputs": [],
      "name": "convictionVoting",
      "outputs": [
        {
          "internalType": "address",
          "name": "",
          "type": "address"
        }
      ],
      "stateMutability": "view",
      "type": "function"
    },
    {
      "inputs": [
        {
          "internalType": "bytes32",
          "name": "newModelHash",
          "type": "bytes32"
        },
        {
          "internalType": "string",
          "name": "newModelCID",
          "type": "string"
        }
      ],
      "name": "executeOracleUpdate",
      "outputs": [],
      "stateMutability": "nonpayable",
      "type": "function"
    },
    {
      "inputs": [],
      "name": "genesisTimestamp",
      "outputs": [
        {
          "internalType": "uint256",
          "name": "",
          "type": "uint256"
        }
      ],
      "stateMutability": "view",
      "type": "function"
    },
    {
      "inputs": [
        {
          "internalType": "bytes32",
          "name": "_modelHash",
          "type": "bytes32"
        },
        {
          "internalType": "string",
          "name": "_modelCID",
          "type": "string"
        }
      ],
      "name": "initializeOracle",
      "outputs": [],
      "stateMutability": "nonpayable",
      "type": "function"
    },
    {
      "inputs": [
        {
          "internalType": "bytes32",
          "name": "",
          "type": "bytes32"
        }
      ],
      "name": "isApprovedJobType",
      "outputs": [
        {
          "internalType": "bool",
          "name": "",
          "type": "bool"
        }
      ],
      "stateMutability": "view",
      "type": "function"
    },
    {
      "inputs": [
        {
          "internalType": "bytes32",
          "name": "_jobTypeId",
          "type": "bytes32"
        }
      ],
      "name": "isInScope",
      "outputs": [
        {
          "internalType": "bool",
          "name": "",
          "type": "bool"
        }
      ],
      "stateMutability": "view",
      "type": "function"
    },
    {
      "inputs": [
        {
          "internalType": "bytes32",
          "name": "",
          "type": "bytes32"
        }
      ],
      "name": "jobTypeDescription",
      "outputs": [
        {
          "internalType": "string",
          "name": "",
          "type": "string"
        }
      ],
      "stateMutability": "view",
      "type": "function"
    },
    {
      "inputs": [
        {
          "internalType": "string",
          "name": "jobTypeName",
          "type": "string"
        }
      ],
      "name": "jobTypeId",
      "outputs": [
        {
          "internalType": "bytes32",
          "name": "",
          "type": "bytes32"
        }
      ],
      "stateMutability": "pure",
      "type": "function"
    },
    {
      "inputs": [],
      "name": "nextUpdateWindow",
      "outputs": [
        {
          "internalType": "uint256",
          "name": "",
          "type": "uint256"
        }
      ],
      "stateMutability": "view",
      "type": "function"
    },
    {
      "inputs": [],
      "name": "oracleModelCID",
      "outputs": [
        {
          "internalType": "string",
          "name": "",
          "type": "string"
        }
      ],
      "stateMutability": "view",
      "type": "function"
    },
    {
      "inputs": [],
      "name": "oracleModelHash",
      "outputs": [
        {
          "internalType": "bytes32",
          "name": "",
          "type": "bytes32"
        }
      ],
      "stateMutability": "view",
      "type": "function"
    },
    {
      "inputs": [
        {
          "internalType": "bytes32",
          "name": "_jobTypeId",
          "type": "bytes32"
        }
      ],
      "name": "requireApproved",
      "outputs": [],
      "stateMutability": "view",
      "type": "function"
    },
    {
      "inputs": [],
      "name": "updateVoteActive",
      "outputs": [
        {
          "internalType": "bool",
          "name": "",
          "type": "bool"
        }
      ],
      "stateMutability": "view",
      "type": "function"
    },
    {
      "inputs": [],
      "name": "yearsUntilNextUpdateWindow",
      "outputs": [
        {
          "internalType": "uint256",
          "name": "",
          "type": "uint256"
        }
      ],
      "stateMutability": "view",
      "type": "function"
    }
  ],
  "bytecode": "0x60c060405234801561000f575f80fd5b5060405161103138038061103183398101604081905261002e916100b3565b6001600160a01b0381166100885760405162461bcd60e51b815260206004820152601a60248201527f46726f7a656e4f7261636c653a207a65726f2061646472657373000000000000604482015260640160405180910390fd5b6001600160a01b03811660a0524260808190526100aa906312cc0300906100e0565b60025550610105565b5f602082840312156100c3575f80fd5b81516001600160a01b03811681146100d9575f80fd5b9392505050565b808201808211156100ff57634e487b7160e01b5f52601160045260245ffd5b92915050565b60805160a051610f0461012d5f395f818161022701526102f201525f6102830152610f045ff3fe608060405234801561000f575f80fd5b506004361061011c575f3560e01c80638315fddd116100a9578063d7de66a41161006e578063d7de66a4146102a5578063df4264b6146102b0578063eac79a50146102c3578063f024bc83146102d6578063f64dae59146102df575f80fd5b80638315fddd14610222578063a3a37bde14610261578063a46e281d14610269578063c179339414610271578063cacf66ab1461027e575f80fd5b80633e894c4c116100ef5780633e894c4c146101af5780633fbcf685146101b857806340fa667a146101d85780636cfaf4ec146101e05780636db04b30146101f3575f80fd5b806308a66fc814610120578063166032e0146101575780631a4d78911461016c578063357a85b11461018d575b5f80fd5b61014261012e3660046108a5565b60056020525f908152604090205460ff1681565b60405190151581526020015b60405180910390f35b61016a610165366004610901565b6102e7565b005b61017f61017a3660046108a5565b6103db565b60405190815260200161014e565b61014261019b3660046108a5565b5f9081526005602052604090205460ff1690565b61017f61232881565b6101cb6101c63660046108a5565b6103fa565b60405161014e9190610949565b61017f5f5481565b61017f6101ee366004610995565b610491565b6101cb6040518060400160405280601081526020016f0676169612d6f7261636c652d76312e360841b81525081565b6102497f000000000000000000000000000000000000000000000000000000000000000081565b6040516001600160a01b03909116815260200161014e565b60045461017f565b6101cb6104b3565b6003546101429060ff1681565b61017f7f000000000000000000000000000000000000000000000000000000000000000081565b61017f6312cc030081565b61016a6102be3660046108a5565b6104c0565b61016a6102d1366004610901565b6104f8565b61017f60025481565b61017f6107db565b336001600160a01b037f0000000000000000000000000000000000000000000000000000000000000000161461033057604051634f5fa70760e01b815260040160405180910390fd5b600254421015610353576040516335ecedcb60e01b815260040160405180910390fd5b826103715760405163f1ae58d560e01b815260040160405180910390fd5b5f8054908490556001610385838583610a6c565b506103946312cc030042610b3a565b60028190555083817f26b5655515d768b02c899629e0f7dd1ef2abc4d5d519975d7e34925a5a095dd685856040516103cd929190610b75565b60405180910390a350505050565b600481815481106103ea575f80fd5b5f91825260209091200154905081565b60066020525f908152604090208054610412906109e8565b80601f016020809104026020016040519081016040528092919081815260200182805461043e906109e8565b80156104895780601f1061046057610100808354040283529160200191610489565b820191905f5260205f20905b81548152906001019060200180831161046c57829003601f168201915b505050505081565b5f82826040516104a2929190610b90565b604051809103902090505b92915050565b60018054610412906109e8565b5f8181526005602052604090205460ff166104f557604051630253a58360e11b81526004810182905260240160405180910390fd5b50565b5f54156105185760405163463f746b60e11b815260040160405180910390fd5b826105365760405163f1ae58d560e01b815260040160405180910390fd5b5f8390556001610547828483610a6c565b5061058a7f1a60c3616bb29dcc6d01d82f0b4d70e059fdf1c0bf2ff51d7f77afdcf98677e4604051806060016040528060378152602001610dd76037913961080c565b6105cc7fe53788dd219971a9e507a3bed8783e5fa47f74c805dd49cca0f675e2268ce5ca604051806080016040528060428152602001610d5a6042913961080c565b61060e7fd5d42e7ab48289846e8be20de657d674898482bd351c33a4a64b9c8e5d12377c604051806060016040528060378152602001610e0e6037913961080c565b6106507f9228ef21b3f38809b3961f84ba3d99d753632e3643459ee9a8d78486e39e160e604051806080016040528060478152602001610e886047913961080c565b6106927f602e55d440240269ce733bb5e32ed70ea4bd9b85f8cfd62165d1b4f4a76b8ff76040518060600160405280603b8152602001610d9c603b913961080c565b6106d47f31fad8e6a5933d3c1828339bb009fb51f6cb877955a708659997cf7fa36bf82a604051806080016040528060438152602001610e456043913961080c565b6107167f8a8e00287e186a71d39f5a42b56938154fd74f1d72031aff0902f44b7e75638f604051806060016040528060388152602001610ceb6038913961080c565b6107587f21af96e1c48407927bc1062ddb58bdeea7e68a0fff7f6cd72f3505147f0e720e604051806060016040528060378152602001610d236037913961080c565b61079a7f56efb405a501daea9cb87b5b5f7cedc74b8a7cb5494f903159010b8cd968f65f604051806060016040528060368152602001610cb56036913961080c565b827fff3c67ae4a6dcea499c6bb50d23bf71f66e40b80493c97e84d393e53ae4efb1d8383426040516107ce93929190610b9f565b60405180910390a2505050565b5f60025442106107ea57505f90565b6301e13380426002546107fd9190610bc2565b6108079190610bd5565b905090565b6004805460018181019092557f8a35acfbc15ff81a39ae7d344fd709f28e8600b4aa8c65c6b64bfe7fe36bd19b018390555f838152600560209081526040808320805460ff191690941790935560069052206108688282610bf4565b50817f081cb462eae519c7cab2e3f682ef3f7c731fda91694ab5036e83d859a3bb6773826040516108999190610949565b60405180910390a25050565b5f602082840312156108b5575f80fd5b5035919050565b5f8083601f8401126108cc575f80fd5b50813567ffffffffffffffff8111156108e3575f80fd5b6020830191508360208285010111156108fa575f80fd5b9250929050565b5f805f60408486031215610913575f80fd5b83359250602084013567ffffffffffffffff811115610930575f80fd5b61093c868287016108bc565b9497909650939450505050565b5f602080835283518060208501525f5b8181101561097557858101830151858201604001528201610959565b505f604082860101526040601f19601f8301168501019250505092915050565b5f80602083850312156109a6575f80fd5b823567ffffffffffffffff8111156109bc575f80fd5b6109c8858286016108bc565b90969095509350505050565b634e487b7160e01b5f52604160045260245ffd5b600181811c908216806109fc57607f821691505b602082108103610a1a57634e487b7160e01b5f52602260045260245ffd5b50919050565b601f821115610a6757805f5260205f20601f840160051c81016020851015610a455750805b601f840160051c820191505b81811015610a64575f8155600101610a51565b50505b505050565b67ffffffffffffffff831115610a8457610a846109d4565b610a9883610a9283546109e8565b83610a20565b5f601f841160018114610ac9575f8515610ab25750838201355b5f19600387901b1c1916600186901b178355610a64565b5f83815260208120601f198716915b82811015610af85786850135825560209485019460019092019101610ad8565b5086821015610b14575f1960f88860031b161c19848701351681555b505060018560011b0183555050505050565b634e487b7160e01b5f52601160045260245ffd5b808201808211156104ad576104ad610b26565b81835281816020850137505f828201602090810191909152601f909101601f19169091010190565b602081525f610b88602083018486610b4d565b949350505050565b818382375f9101908152919050565b604081525f610bb2604083018587610b4d565b9050826020830152949350505050565b818103818111156104ad576104ad610b26565b5f82610bef57634e487b7160e01b5f52601260045260245ffd5b500490565b815167ffffffffffffffff811115610c0e57610c0e6109d4565b610c2281610c1c84546109e8565b84610a20565b602080601f831160018114610c55575f8415610c3e5750858301515b5f19600386901b1c1916600185901b178555610cac565b5f85815260208120601f198616915b82811015610c8357888601518255948401946001909101908401610c64565b5085821015610ca057878501515f19600388901b60f8161c191681555b505060018460011b0185555b50505050505056fe50726f746f636f6c2074657374202f2067656e657369732064656d6f202d2d206e6f7420666f722070726f64756374696f6e2075736557696c646669726520736d6f6b652c206275726e20736361722c206f7220616972207175616c69747920636c617373696669636174696f6e4d6963726f706c61737469637320646574656374696f6e2066726f6d207370656374726f73636f7079206f7220696d61676520646174614465666f726573746174696f6e202f206c616e642d636f766572206368616e676520646574656374696f6e2066726f6d20736174656c6c69746520696d6167657279436172626f6e2073657175657374726174696f6e20657374696d6174696f6e2066726f6d204c69444152202f2072656d6f74652073656e73696e6753706563696573206964656e74696669636174696f6e2066726f6d2063616d6572612074726170206f72206669656c6420696d6167657353656120737572666163652074656d7065726174757265202f2061636964696669636174696f6e207472656e6420696e666572656e636542696f61636f75737469632073706563696573206964656e74696669636174696f6e202862697264732c206d6172696e65206d616d6d616c732c20696e73656374732942696f64697665727369747920696e64657820636f6d7075746174696f6e2066726f6d206f6363757272656e636520646174612028474249462c20694e61747572616c69737429a26469706673582212208568445db2b1be032b802ce389d77de998b64c2dfd48bc8c3d67f519f7a0293264736f6c63430008180033",
  "linkReferences": {},
  "deployedLinkReferences": {}
}