{
  "_format": "hh-sol-artifact-1",
  "contractName": "RewardDistributor",
  "sourceName": "contracts/RewardDistributor.sol",
  "abi": [
    {
      "inputs": [
        {
          "internalType": "address",
          "name": "_gaiaToken",
          "type": "address"
        },
        {
          "internalType": "address",
          "name": "_treasury",
          "type": "address"
        }
      ],
      "stateMutability": "nonpayable",
      "type": "constructor"
    },
    {
      "inputs": [],
      "name": "NotOwner",
      "type": "error"
    },
    {
      "inputs": [],
      "name": "NotValidationPool",
      "type": "error"
    },
    {
      "inputs": [],
      "name": "NothingToClaim",
      "type": "error"
    },
    {
      "inputs": [],
      "name": "ReentrancyGuardReentrantCall",
      "type": "error"
    },
    {
      "inputs": [],
      "name": "TransferFailed",
      "type": "error"
    },
    {
      "anonymous": false,
      "inputs": [
        {
          "indexed": true,
          "internalType": "uint256",
          "name": "taskId",
          "type": "uint256"
        },
        {
          "indexed": false,
          "internalType": "address[]",
          "name": "miners",
          "type": "address[]"
        },
        {
          "indexed": false,
          "internalType": "uint256",
          "name": "bonusPerMiner",
          "type": "uint256"
        }
      ],
      "name": "PublicGoodBonusPaid",
      "type": "event"
    },
    {
      "anonymous": false,
      "inputs": [
        {
          "indexed": true,
          "internalType": "address",
          "name": "miner",
          "type": "address"
        },
        {
          "indexed": false,
          "internalType": "uint256",
          "name": "amount",
          "type": "uint256"
        },
        {
          "indexed": false,
          "internalType": "uint256",
          "name": "remainingUnvested",
          "type": "uint256"
        }
      ],
      "name": "RewardClaimed",
      "type": "event"
    },
    {
      "anonymous": false,
      "inputs": [
        {
          "indexed": true,
          "internalType": "address",
          "name": "miner",
          "type": "address"
        },
        {
          "indexed": true,
          "internalType": "uint256",
          "name": "taskId",
          "type": "uint256"
        },
        {
          "indexed": false,
          "internalType": "uint256",
          "name": "amount",
          "type": "uint256"
        },
        {
          "indexed": false,
          "internalType": "uint256",
          "name": "vestingEnd",
          "type": "uint256"
        }
      ],
      "name": "RewardVestingCreated",
      "type": "event"
    },
    {
      "anonymous": false,
      "inputs": [
        {
          "indexed": true,
          "internalType": "uint256",
          "name": "taskId",
          "type": "uint256"
        },
        {
          "indexed": false,
          "internalType": "uint256",
          "name": "amount",
          "type": "uint256"
        }
      ],
      "name": "TreasuryFunded",
      "type": "event"
    },
    {
      "anonymous": false,
      "inputs": [
        {
          "indexed": true,
          "internalType": "address",
          "name": "validationPool",
          "type": "address"
        }
      ],
      "name": "ValidationPoolSet",
      "type": "event"
    },
    {
      "anonymous": false,
      "inputs": [
        {
          "indexed": true,
          "internalType": "address",
          "name": "validator",
          "type": "address"
        },
        {
          "indexed": true,
          "internalType": "uint256",
          "name": "taskId",
          "type": "uint256"
        },
        {
          "indexed": false,
          "internalType": "uint256",
          "name": "amount",
          "type": "uint256"
        }
      ],
      "name": "ValidatorRewarded",
      "type": "event"
    },
    {
      "inputs": [],
      "name": "BPS_DENOMINATOR",
      "outputs": [
        {
          "internalType": "uint256",
          "name": "",
          "type": "uint256"
        }
      ],
      "stateMutability": "view",
      "type": "function"
    },
    {
      "inputs": [],
      "name": "MINER_SHARE_BPS",
      "outputs": [
        {
          "internalType": "uint256",
          "name": "",
          "type": "uint256"
        }
      ],
      "stateMutability": "view",
      "type": "function"
    },
    {
      "inputs": [],
      "name": "PUBLIC_GOOD_BONUS_BPS",
      "outputs": [
        {
          "internalType": "uint256",
          "name": "",
          "type": "uint256"
        }
      ],
      "stateMutability": "view",
      "type": "function"
    },
    {
      "inputs": [],
      "name": "TREASURY_SHARE_BPS",
      "outputs": [
        {
          "internalType": "uint256",
          "name": "",
          "type": "uint256"
        }
      ],
      "stateMutability": "view",
      "type": "function"
    },
    {
      "inputs": [],
      "name": "VALIDATOR_SHARE_BPS",
      "outputs": [
        {
          "internalType": "uint256",
          "name": "",
          "type": "uint256"
        }
      ],
      "stateMutability": "view",
      "type": "function"
    },
    {
      "inputs": [],
      "name": "VESTING_PERIOD",
      "outputs": [
        {
          "internalType": "uint256",
          "name": "",
          "type": "uint256"
        }
      ],
      "stateMutability": "view",
      "type": "function"
    },
    {
      "inputs": [],
      "name": "claimVestedRewards",
      "outputs": [
        {
          "internalType": "uint256",
          "name": "claimed",
          "type": "uint256"
        }
      ],
      "stateMutability": "nonpayable",
      "type": "function"
    },
    {
      "inputs": [
        {
          "internalType": "address",
          "name": "miner",
          "type": "address"
        }
      ],
      "name": "claimableBalance",
      "outputs": [
        {
          "internalType": "uint256",
          "name": "total",
          "type": "uint256"
        }
      ],
      "stateMutability": "view",
      "type": "function"
    },
    {
      "inputs": [
        {
          "internalType": "uint256",
          "name": "taskId",
          "type": "uint256"
        },
        {
          "internalType": "address[]",
          "name": "miners",
          "type": "address[]"
        }
      ],
      "name": "distributePublicGoodBonus",
      "outputs": [],
      "stateMutability": "nonpayable",
      "type": "function"
    },
    {
      "inputs": [
        {
          "internalType": "uint256",
          "name": "taskId",
          "type": "uint256"
        },
        {
          "internalType": "uint256",
          "name": "totalReward",
          "type": "uint256"
        },
        {
          "internalType": "address[]",
          "name": "winners",
          "type": "address[]"
        }
      ],
      "name": "distributeRewards",
      "outputs": [],
      "stateMutability": "nonpayable",
      "type": "function"
    },
    {
      "inputs": [],
      "name": "gaiaToken",
      "outputs": [
        {
          "internalType": "contract IERC20",
          "name": "",
          "type": "address"
        }
      ],
      "stateMutability": "view",
      "type": "function"
    },
    {
      "inputs": [
        {
          "internalType": "address",
          "name": "miner",
          "type": "address"
        }
      ],
      "name": "getVestingSchedules",
      "outputs": [
        {
          "components": [
            {
              "internalType": "uint256",
              "name": "totalAmount",
              "type": "uint256"
            },
            {
              "internalType": "uint256",
              "name": "startTime",
              "type": "uint256"
            },
            {
              "internalType": "uint256",
              "name": "claimedAmount",
              "type": "uint256"
            },
            {
              "internalType": "uint256",
              "name": "taskId",
              "type": "uint256"
            }
          ],
          "internalType": "struct RewardDistributor.VestingSchedule[]",
          "name": "",
          "type": "tuple[]"
        }
      ],
      "stateMutability": "view",
      "type": "function"
    },
    {
      "inputs": [],
      "name": "owner",
      "outputs": [
        {
          "internalType": "address",
          "name": "",
          "type": "address"
        }
      ],
      "stateMutability": "view",
      "type": "function"
    },
    {
      "inputs": [
        {
          "internalType": "address",
          "name": "_validationPool",
          "type": "address"
        }
      ],
      "name": "setValidationPool",
      "outputs": [],
      "stateMutability": "nonpayable",
      "type": "function"
    },
    {
      "inputs": [],
      "name": "totalPublicGoodBonusPaid",
      "outputs": [
        {
          "internalType": "uint256",
          "name": "",
          "type": "uint256"
        }
      ],
      "stateMutability": "view",
      "type": "function"
    },
    {
      "inputs": [],
      "name": "totalRewardsClaimed",
      "outputs": [
        {
          "internalType": "uint256",
          "name": "",
          "type": "uint256"
        }
      ],
      "stateMutability": "view",
      "type": "function"
    },
    {
      "inputs": [],
      "name": "totalRewardsDistributed",
      "outputs": [
        {
          "internalType": "uint256",
          "name": "",
          "type": "uint256"
        }
      ],
      "stateMutability": "view",
      "type": "function"
    },
    {
      "inputs": [
        {
          "internalType": "address",
          "name": "",
          "type": "address"
        }
      ],
      "name": "totalUnvested",
      "outputs": [
        {
          "internalType": "uint256",
          "name": "",
          "type": "uint256"
        }
      ],
      "stateMutability": "view",
      "type": "function"
    },
    {
      "inputs": [],
      "name": "treasury",
      "outputs": [
        {
          "internalType": "address",
          "name": "",
          "type": "address"
        }
      ],
      "stateMutability": "view",
      "type": "function"
    },
    {
      "inputs": [],
      "name": "validationPool",
      "outputs": [
        {
          "internalType": "address",
          "name": "",
          "type": "address"
        }
      ],
      "stateMutability": "view",
      "type": "function"
    },
    {
      "inputs": [
        {
          "internalType": "address",
          "name": "miner",
          "type": "address"
        }
      ],
      "name": "vestedBalance",
      "outputs": [
        {
          "internalType": "uint256",
          "name": "total",
          "type": "uint256"
        }
      ],
      "stateMutability": "view",
      "type": "function"
    },
    {
      "inputs": [
        {
          "internalType": "address",
          "name": "miner",
          "type": "address"
        }
      ],
      "name": "vestingScheduleCount",
      "outputs": [
        {
          "internalType": "uint256",
          "name": "",
          "type": "uint256"
        }
      ],
      "stateMutability": "view",
      "type": "function"
    },
    {
      "inputs": [
        {
          "internalType": "address",
          "name": "",
          "type": "address"
        },
        {
          "internalType": "uint256",
          "name": "",
          "type": "uint256"
        }
      ],
      "name": "vestingSchedules",
      "outputs": [
        {
          "internalType": "uint256",
          "name": "totalAmount",
          "type": "uint256"
        },
        {
          "internalType": "uint256",
          "name": "startTime",
          "type": "uint256"
        },
        {
          "internalType": "uint256",
          "name": "claimedAmount",
          "type": "uint256"
        },
        {
          "internalType": "uint256",
          "name": "taskId",
          "type": "uint256"
        }
      ],
      "stateMutability": "view",
      "type": "function"
    }
  ],
  "bytecode": "0x60c06040526001805460ff60a01b1916905534801561001c575f80fd5b5060405161122c38038061122c83398101604081905261003b91610140565b60017f9b779b17422d0df92223018b32b4d1fa46e071723d6817e2486d003becc55f00556001600160a01b0382166100af5760405162461bcd60e51b815260206004820152601260248201527129221d103d32b9379033b0b4b0aa37b5b2b760711b60448201526064015b60405180910390fd5b6001600160a01b0381166100f95760405162461bcd60e51b815260206004820152601160248201527052443a207a65726f20747265617375727960781b60448201526064016100a6565b6001600160a01b03918216608052600180546001600160a01b031916919092161790553360a052610171565b80516001600160a01b038116811461013b575f80fd5b919050565b5f8060408385031215610151575f80fd5b61015a83610125565b915061016860208401610125565b90509250929050565b60805160a0516110856101a75f395f81816102880152610a1201525f818161019f015281816109120152610ce301526110855ff3fe608060405234801561000f575f80fd5b5060043610610148575f3560e01c806365d9fbc1116100bf578063a9bb5c4c11610079578063a9bb5c4c146102e1578063adb5086114610309578063e1a4521814610311578063e7acc4421461031a578063ee17254614610323578063f34f06211461032c575f80fd5b806365d9fbc1146102705780638da5cb5b146102835780639114557e146102aa5780639b7242e0146102bd578063a2385422146102cf578063a34b0f76146102d8575f80fd5b80632a53b2f7116101105780632a53b2f7146101d9578063389728b6146101ee57806345626bd6146101f75780635a933e8e1461022a57806360f3309b1461024a57806361d027b31461025d575f80fd5b80630197d9721461014c578063135a2b65146101695780631bf1fe4e146101725780631f7950441461019157806324009b781461019a575b5f80fd5b6101566276a70081565b6040519081526020015b60405180910390f35b61015660065481565b610156610180366004610daf565b60036020525f908152604090205481565b6101566103e881565b6101c17f000000000000000000000000000000000000000000000000000000000000000081565b6040516001600160a01b039091168152602001610160565b6101ec6101e7366004610e17565b61033f565b005b6101566105dc81565b61020a610205366004610e5f565b610495565b604080519485526020850193909352918301526060820152608001610160565b61023d610238366004610daf565b6104d7565b6040516101609190610e87565b610156610258366004610daf565b610570565b6001546101c1906001600160a01b031681565b6101ec61027e366004610eea565b610607565b6101c17f000000000000000000000000000000000000000000000000000000000000000081565b6101566102b8366004610daf565b61079e565b5f546101c1906001600160a01b031681565b6101566109c481565b61015660055481565b6101566102ef366004610daf565b6001600160a01b03165f9081526002602052604090205490565b6101566107fc565b61015661271081565b61015661177081565b61015660045481565b6101ec61033a366004610daf565b610a07565b610347610b5b565b5f546001600160a01b03163314610371576040516317d744ed60e11b815260040160405180910390fd5b806103b35760405162461bcd60e51b815260206004820152600d60248201526c52443a206e6f206d696e65727360981b60448201526064015b60405180910390fd5b5f6127106103cc6103e868056bc75e2d63100000610f4d565b6103d69190610f64565b90505f5b8281101561041b576104138484838181106103f7576103f7610f83565b905060200201602081019061040c9190610daf565b8387610b76565b6001016103da565b506104268282610f4d565b60065f8282546104369190610f97565b92505081905550837f46c79242ea05e790b20ccadb1dc06a4f7079589f62e1f833f460d9900cc49ccf84848460405161047193929190610faa565b60405180910390a25061049060015f8051602061103083398151915255565b505050565b6002602052815f5260405f2081815481106104ae575f80fd5b5f9182526020909120600490910201805460018201546002830154600390930154919450925084565b6001600160a01b0381165f908152600260209081526040808320805482518185028101850190935280835260609492939192909184015b82821015610565578382905f5260205f2090600402016040518060800160405290815f820154815260200160018201548152602001600282015481526020016003820154815250508152602001906001019061050e565b505050509050919050565b6001600160a01b0381165f90815260026020526040812042825b82548110156105ff575f6105bb8483815481106105a9576105a9610f83565b905f5260205f20906004020184610c58565b90508382815481106105cf576105cf610f83565b905f5260205f20906004020160020154816105ea9190610ffd565b6105f49086610f97565b94505060010161058a565b505050919050565b61060f610b5b565b5f546001600160a01b03163314610639576040516317d744ed60e11b815260040160405180910390fd5b806106775760405162461bcd60e51b815260206004820152600e60248201526d52443a206e6f2077696e6e65727360901b60448201526064016103aa565b5f61271061068761177086610f4d565b6106919190610f64565b90505f6127106106a36109c487610f4d565b6106ad9190610f64565b90505f816106bb8488610ffd565b6106c59190610ffd565b90505f6106d28585610f64565b90505f5b858110156107175761070f8787838181106106f3576106f3610f83565b90506020020160208101906107089190610daf565b838b610b76565b6001016106d6565b5061072a6107258385610f97565b610cb4565b8660045f82825461073b9190610f97565b909155508890507ff705142bf09f04297640495ddf7c59b7fd6f51894c5aea9602d631cf05f0efc261076d8486610f97565b60405190815260200160405180910390a25050505061079860015f8051602061103083398151915255565b50505050565b6001600160a01b0381165f90815260026020526040812042825b82548110156105ff576107e88382815481106107d6576107d6610f83565b905f5260205f20906004020183610c58565b6107f29085610f97565b93506001016107b8565b5f610805610b5b565b335f9081526002602052604081209042905b8254811015610898575f83828154811061083357610833610f83565b905f5260205f20906004020190505f61084c8285610c58565b90505f82600201548261085f9190610ffd565b9050801561088d5780836002015f82825461087a9190610f97565b9091555061088a90508188610f97565b96505b505050600101610817565b50825f036108b9576040516312d37ee560e31b815260040160405180910390fd5b335f90815260036020526040812080548592906108d7908490610ffd565b925050819055508260055f8282546108ef9190610f97565b909155505060405163a9059cbb60e01b8152336004820152602481018490525f907f00000000000000000000000000000000000000000000000000000000000000006001600160a01b03169063a9059cbb906044016020604051808303815f875af1158015610960573d5f803e3d5ffd5b505050506040513d601f19601f820116820180604052508101906109849190611010565b9050806109a4576040516312171d8360e31b815260040160405180910390fd5b335f81815260036020908152604091829020548251888152918201527ff01da32686223933d8a18a391060918c7f11a3648639edd87ae013e2e2731743910160405180910390a2505050610a0460015f8051602061103083398151915255565b90565b336001600160a01b037f00000000000000000000000000000000000000000000000000000000000000001614610a50576040516330cd747160e01b815260040160405180910390fd5b600154600160a01b900460ff1615610aaa5760405162461bcd60e51b815260206004820152601e60248201527f52443a2076616c69646174696f6e506f6f6c20616c726561647920736574000060448201526064016103aa565b6001600160a01b038116610b005760405162461bcd60e51b815260206004820152601760248201527f52443a207a65726f2076616c69646174696f6e506f6f6c00000000000000000060448201526064016103aa565b5f80546001600160a01b0383166001600160a01b0319909116811782556001805460ff60a01b1916600160a01b17905560405190917f83df4c77382771bf9458993835d7256df0351a5ee76fc6d27c8cf1a8effa0c6d91a250565b610b63610d54565b60025f8051602061103083398151915255565b6001600160a01b0383165f818152600260208181526040808420815160808101835288815242818501908152818401878152606083018a8152845460018181018755958a52878a209451600490910290940193845591519383019390935591519481019490945551600393840155938352529081208054849290610bfb908490610f97565b909155508190506001600160a01b0384167f317e7c5a7600ed331738f5d472c513a443d79d9365e971a58284f37d6adcb7c484610c3b6276a70042610f97565b6040805192835260208301919091520160405180910390a3505050565b5f6276a7008360010154610c6c9190610f97565b8210610c7a57508154610cae565b5f836001015483610c8b9190610ffd565b90506276a70081855f0154610ca09190610f4d565b610caa9190610f64565b9150505b92915050565b8015610d515760015460405163a9059cbb60e01b81526001600160a01b039182166004820152602481018390527f00000000000000000000000000000000000000000000000000000000000000009091169063a9059cbb906044016020604051808303815f875af1158015610d2b573d5f803e3d5ffd5b505050506040513d601f19601f82011682018060405250810190610d4f9190611010565b505b50565b610d6d5f60025f80516020611030833981519152610d8d565b15610d8b57604051633ee5aeb560e01b815260040160405180910390fd5b565b5414919050565b80356001600160a01b0381168114610daa575f80fd5b919050565b5f60208284031215610dbf575f80fd5b610dc882610d94565b9392505050565b5f8083601f840112610ddf575f80fd5b50813567ffffffffffffffff811115610df6575f80fd5b6020830191508360208260051b8501011115610e10575f80fd5b9250929050565b5f805f60408486031215610e29575f80fd5b83359250602084013567ffffffffffffffff811115610e46575f80fd5b610e5286828701610dcf565b9497909650939450505050565b5f8060408385031215610e70575f80fd5b610e7983610d94565b946020939093013593505050565b602080825282518282018190525f919060409081850190868401855b82811015610edd57815180518552868101518786015285810151868601526060908101519085015260809093019290850190600101610ea3565b5091979650505050505050565b5f805f8060608587031215610efd575f80fd5b8435935060208501359250604085013567ffffffffffffffff811115610f21575f80fd5b610f2d87828801610dcf565b95989497509550505050565b634e487b7160e01b5f52601160045260245ffd5b8082028115828204841417610cae57610cae610f39565b5f82610f7e57634e487b7160e01b5f52601260045260245ffd5b500490565b634e487b7160e01b5f52603260045260245ffd5b80820180821115610cae57610cae610f39565b604080825281018390525f8460608301825b86811015610fea576001600160a01b03610fd584610d94565b16825260209283019290910190600101610fbc565b5060209390930193909352509392505050565b81810381811115610cae57610cae610f39565b5f60208284031215611020575f80fd5b81518015158114610dc8575f80fdfe9b779b17422d0df92223018b32b4d1fa46e071723d6817e2486d003becc55f00a264697066735822122020f19bad56d3248b9dc4dcd7627b113a6db8142a6cd1b6a921d4634841386b2f64736f6c63430008180033",
  "linkReferences": {},
  "deployedLinkReferences": {}
}