{
  "_format": "hh-sol-artifact-1",
  "contractName": "GAIAToken",
  "sourceName": "contracts/GAIAToken.sol",
  "abi": [
    {
      "inputs": [
        {
          "internalType": "address",
          "name": "genesisReceiver",
          "type": "address"
        }
      ],
      "stateMutability": "nonpayable",
      "type": "constructor"
    },
    {
      "inputs": [],
      "name": "ECDSAInvalidSignature",
      "type": "error"
    },
    {
      "inputs": [
        {
          "internalType": "uint256",
          "name": "length",
          "type": "uint256"
        }
      ],
      "name": "ECDSAInvalidSignatureLength",
      "type": "error"
    },
    {
      "inputs": [
        {
          "internalType": "bytes32",
          "name": "s",
          "type": "bytes32"
        }
      ],
      "name": "ECDSAInvalidSignatureS",
      "type": "error"
    },
    {
      "inputs": [
        {
          "internalType": "address",
          "name": "spender",
          "type": "address"
        },
        {
          "internalType": "uint256",
          "name": "allowance",
          "type": "uint256"
        },
        {
          "internalType": "uint256",
          "name": "needed",
          "type": "uint256"
        }
      ],
      "name": "ERC20InsufficientAllowance",
      "type": "error"
    },
    {
      "inputs": [
        {
          "internalType": "address",
          "name": "sender",
          "type": "address"
        },
        {
          "internalType": "uint256",
          "name": "balance",
          "type": "uint256"
        },
        {
          "internalType": "uint256",
          "name": "needed",
          "type": "uint256"
        }
      ],
      "name": "ERC20InsufficientBalance",
      "type": "error"
    },
    {
      "inputs": [
        {
          "internalType": "address",
          "name": "approver",
          "type": "address"
        }
      ],
      "name": "ERC20InvalidApprover",
      "type": "error"
    },
    {
      "inputs": [
        {
          "internalType": "address",
          "name": "receiver",
          "type": "address"
        }
      ],
      "name": "ERC20InvalidReceiver",
      "type": "error"
    },
    {
      "inputs": [
        {
          "internalType": "address",
          "name": "sender",
          "type": "address"
        }
      ],
      "name": "ERC20InvalidSender",
      "type": "error"
    },
    {
      "inputs": [
        {
          "internalType": "address",
          "name": "spender",
          "type": "address"
        }
      ],
      "name": "ERC20InvalidSpender",
      "type": "error"
    },
    {
      "inputs": [
        {
          "internalType": "uint256",
          "name": "deadline",
          "type": "uint256"
        }
      ],
      "name": "ERC2612ExpiredSignature",
      "type": "error"
    },
    {
      "inputs": [
        {
          "internalType": "address",
          "name": "signer",
          "type": "address"
        },
        {
          "internalType": "address",
          "name": "owner",
          "type": "address"
        }
      ],
      "name": "ERC2612InvalidSigner",
      "type": "error"
    },
    {
      "inputs": [
        {
          "internalType": "address",
          "name": "account",
          "type": "address"
        },
        {
          "internalType": "uint256",
          "name": "currentNonce",
          "type": "uint256"
        }
      ],
      "name": "InvalidAccountNonce",
      "type": "error"
    },
    {
      "inputs": [],
      "name": "InvalidShortString",
      "type": "error"
    },
    {
      "inputs": [
        {
          "internalType": "string",
          "name": "str",
          "type": "string"
        }
      ],
      "name": "StringTooLong",
      "type": "error"
    },
    {
      "inputs": [
        {
          "internalType": "uint256",
          "name": "requested",
          "type": "uint256"
        },
        {
          "internalType": "uint256",
          "name": "cap",
          "type": "uint256"
        }
      ],
      "name": "SupplyCapExceeded",
      "type": "error"
    },
    {
      "anonymous": false,
      "inputs": [
        {
          "indexed": true,
          "internalType": "address",
          "name": "owner",
          "type": "address"
        },
        {
          "indexed": true,
          "internalType": "address",
          "name": "spender",
          "type": "address"
        },
        {
          "indexed": false,
          "internalType": "uint256",
          "name": "value",
          "type": "uint256"
        }
      ],
      "name": "Approval",
      "type": "event"
    },
    {
      "anonymous": false,
      "inputs": [],
      "name": "EIP712DomainChanged",
      "type": "event"
    },
    {
      "anonymous": false,
      "inputs": [
        {
          "indexed": true,
          "internalType": "address",
          "name": "burner",
          "type": "address"
        },
        {
          "indexed": false,
          "internalType": "uint256",
          "name": "amount",
          "type": "uint256"
        },
        {
          "indexed": false,
          "internalType": "string",
          "name": "reason",
          "type": "string"
        }
      ],
      "name": "TokensBurned",
      "type": "event"
    },
    {
      "anonymous": false,
      "inputs": [
        {
          "indexed": true,
          "internalType": "address",
          "name": "from",
          "type": "address"
        },
        {
          "indexed": true,
          "internalType": "address",
          "name": "to",
          "type": "address"
        },
        {
          "indexed": false,
          "internalType": "uint256",
          "name": "value",
          "type": "uint256"
        }
      ],
      "name": "Transfer",
      "type": "event"
    },
    {
      "inputs": [],
      "name": "BURN_RATE_BPS",
      "outputs": [
        {
          "internalType": "uint256",
          "name": "",
          "type": "uint256"
        }
      ],
      "stateMutability": "view",
      "type": "function"
    },
    {
      "inputs": [],
      "name": "DOMAIN_SEPARATOR",
      "outputs": [
        {
          "internalType": "bytes32",
          "name": "",
          "type": "bytes32"
        }
      ],
      "stateMutability": "view",
      "type": "function"
    },
    {
      "inputs": [],
      "name": "TOTAL_SUPPLY_CAP",
      "outputs": [
        {
          "internalType": "uint256",
          "name": "",
          "type": "uint256"
        }
      ],
      "stateMutability": "view",
      "type": "function"
    },
    {
      "inputs": [
        {
          "internalType": "address",
          "name": "owner",
          "type": "address"
        },
        {
          "internalType": "address",
          "name": "spender",
          "type": "address"
        }
      ],
      "name": "allowance",
      "outputs": [
        {
          "internalType": "uint256",
          "name": "",
          "type": "uint256"
        }
      ],
      "stateMutability": "view",
      "type": "function"
    },
    {
      "inputs": [
        {
          "internalType": "address",
          "name": "spender",
          "type": "address"
        },
        {
          "internalType": "uint256",
          "name": "value",
          "type": "uint256"
        }
      ],
      "name": "approve",
      "outputs": [
        {
          "internalType": "bool",
          "name": "",
          "type": "bool"
        }
      ],
      "stateMutability": "nonpayable",
      "type": "function"
    },
    {
      "inputs": [
        {
          "internalType": "address",
          "name": "account",
          "type": "address"
        }
      ],
      "name": "balanceOf",
      "outputs": [
        {
          "internalType": "uint256",
          "name": "",
          "type": "uint256"
        }
      ],
      "stateMutability": "view",
      "type": "function"
    },
    {
      "inputs": [
        {
          "internalType": "uint256",
          "name": "value",
          "type": "uint256"
        }
      ],
      "name": "burn",
      "outputs": [],
      "stateMutability": "nonpayable",
      "type": "function"
    },
    {
      "inputs": [
        {
          "internalType": "address",
          "name": "account",
          "type": "address"
        },
        {
          "internalType": "uint256",
          "name": "value",
          "type": "uint256"
        }
      ],
      "name": "burnFrom",
      "outputs": [],
      "stateMutability": "nonpayable",
      "type": "function"
    },
    {
      "inputs": [
        {
          "internalType": "address",
          "name": "account",
          "type": "address"
        },
        {
          "internalType": "uint256",
          "name": "amount",
          "type": "uint256"
        },
        {
          "internalType": "string",
          "name": "reason",
          "type": "string"
        }
      ],
      "name": "burnFromWithReason",
      "outputs": [],
      "stateMutability": "nonpayable",
      "type": "function"
    },
    {
      "inputs": [
        {
          "internalType": "uint256",
          "name": "amount",
          "type": "uint256"
        },
        {
          "internalType": "string",
          "name": "reason",
          "type": "string"
        }
      ],
      "name": "burnWithReason",
      "outputs": [],
      "stateMutability": "nonpayable",
      "type": "function"
    },
    {
      "inputs": [],
      "name": "burnedBps",
      "outputs": [
        {
          "internalType": "uint256",
          "name": "",
          "type": "uint256"
        }
      ],
      "stateMutability": "view",
      "type": "function"
    },
    {
      "inputs": [],
      "name": "circulatingSupply",
      "outputs": [
        {
          "internalType": "uint256",
          "name": "",
          "type": "uint256"
        }
      ],
      "stateMutability": "view",
      "type": "function"
    },
    {
      "inputs": [],
      "name": "decimals",
      "outputs": [
        {
          "internalType": "uint8",
          "name": "",
          "type": "uint8"
        }
      ],
      "stateMutability": "view",
      "type": "function"
    },
    {
      "inputs": [],
      "name": "eip712Domain",
      "outputs": [
        {
          "internalType": "bytes1",
          "name": "fields",
          "type": "bytes1"
        },
        {
          "internalType": "string",
          "name": "name",
          "type": "string"
        },
        {
          "internalType": "string",
          "name": "version",
          "type": "string"
        },
        {
          "internalType": "uint256",
          "name": "chainId",
          "type": "uint256"
        },
        {
          "internalType": "address",
          "name": "verifyingContract",
          "type": "address"
        },
        {
          "internalType": "bytes32",
          "name": "salt",
          "type": "bytes32"
        },
        {
          "internalType": "uint256[]",
          "name": "extensions",
          "type": "uint256[]"
        }
      ],
      "stateMutability": "view",
      "type": "function"
    },
    {
      "inputs": [],
      "name": "name",
      "outputs": [
        {
          "internalType": "string",
          "name": "",
          "type": "string"
        }
      ],
      "stateMutability": "view",
      "type": "function"
    },
    {
      "inputs": [
        {
          "internalType": "address",
          "name": "owner",
          "type": "address"
        }
      ],
      "name": "nonces",
      "outputs": [
        {
          "internalType": "uint256",
          "name": "",
          "type": "uint256"
        }
      ],
      "stateMutability": "view",
      "type": "function"
    },
    {
      "inputs": [
        {
          "internalType": "address",
          "name": "owner",
          "type": "address"
        },
        {
          "internalType": "address",
          "name": "spender",
          "type": "address"
        },
        {
          "internalType": "uint256",
          "name": "value",
          "type": "uint256"
        },
        {
          "internalType": "uint256",
          "name": "deadline",
          "type": "uint256"
        },
        {
          "internalType": "uint8",
          "name": "v",
          "type": "uint8"
        },
        {
          "internalType": "bytes32",
          "name": "r",
          "type": "bytes32"
        },
        {
          "internalType": "bytes32",
          "name": "s",
          "type": "bytes32"
        }
      ],
      "name": "permit",
      "outputs": [],
      "stateMutability": "nonpayable",
      "type": "function"
    },
    {
      "inputs": [],
      "name": "symbol",
      "outputs": [
        {
          "internalType": "string",
          "name": "",
          "type": "string"
        }
      ],
      "stateMutability": "view",
      "type": "function"
    },
    {
      "inputs": [],
      "name": "totalBurned",
      "outputs": [
        {
          "internalType": "uint256",
          "name": "",
          "type": "uint256"
        }
      ],
      "stateMutability": "view",
      "type": "function"
    },
    {
      "inputs": [],
      "name": "totalSupply",
      "outputs": [
        {
          "internalType": "uint256",
          "name": "",
          "type": "uint256"
        }
      ],
      "stateMutability": "view",
      "type": "function"
    },
    {
      "inputs": [
        {
          "internalType": "address",
          "name": "to",
          "type": "address"
        },
        {
          "internalType": "uint256",
          "name": "value",
          "type": "uint256"
        }
      ],
      "name": "transfer",
      "outputs": [
        {
          "internalType": "bool",
          "name": "",
          "type": "bool"
        }
      ],
      "stateMutability": "nonpayable",
      "type": "function"
    },
    {
      "inputs": [
        {
          "internalType": "address",
          "name": "from",
          "type": "address"
        },
        {
          "internalType": "address",
          "name": "to",
          "type": "address"
        },
        {
          "internalType": "uint256",
          "name": "value",
          "type": "uint256"
        }
      ],
      "name": "transferFrom",
      "outputs": [
        {
          "internalType": "bool",
          "name": "",
          "type": "bool"
        }
      ],
      "stateMutability": "nonpayable",
      "type": "function"
    }
  ],
  "bytecode": "0x61016060405234801562000011575f80fd5b50604051620018de380380620018de8339810160408190526200003491620003e6565b604051806040016040528060048152602001634741494160e01b81525080604051806040016040528060018152602001603160f81b815250604051806040016040528060048152602001634741494160e01b815250604051806040016040528060048152602001634741494160e01b8152508160039081620000b79190620004b2565b506004620000c68282620004b2565b50620000d891508390506005620001ef565b61012052620000e9816006620001ef565b61014052815160208084019190912060e052815190820120610100524660a0526200017660e05161010051604080517f8b73c3c69bb8fe3d512ecc4cf759cc79239f7b179b0ffacaa9a75d522b39400f60208201529081019290925260608201524660808201523060a08201525f9060c00160405160208183030381529060405280519060200120905090565b60805250503060c052506001600160a01b038116620001d15760405162461bcd60e51b8152602060048201526012602482015271474149413a207a65726f206164647265737360701b60448201526064015b60405180910390fd5b620001e8816a115eec47f6cf7e3500000062000227565b5062000610565b5f6020835110156200020e57620002068362000263565b905062000221565b816200021b8482620004b2565b5060ff90505b92915050565b6001600160a01b038216620002525760405163ec442f0560e01b81525f6004820152602401620001c8565b6200025f5f8383620002a5565b5050565b5f80829050601f8151111562000290578260405163305a27a960e01b8152600401620001c891906200057e565b80516200029d82620005cc565b179392505050565b620002b2838383620002b7565b505050565b6001600160a01b038316620002e5578060025f828254620002d99190620005f0565b90915550620003579050565b6001600160a01b0383165f9081526020819052604090205481811015620003395760405163391434e360e21b81526001600160a01b03851660048201526024810182905260448101839052606401620001c8565b6001600160a01b0384165f9081526020819052604090209082900390555b6001600160a01b038216620003755760028054829003905562000393565b6001600160a01b0382165f9081526020819052604090208054820190555b816001600160a01b0316836001600160a01b03167fddf252ad1be2c89b69c2b068fc378daa952ba7f163c4a11628f55a4df523b3ef83604051620003d991815260200190565b60405180910390a3505050565b5f60208284031215620003f7575f80fd5b81516001600160a01b03811681146200040e575f80fd5b9392505050565b634e487b7160e01b5f52604160045260245ffd5b600181811c908216806200043e57607f821691505b6020821081036200045d57634e487b7160e01b5f52602260045260245ffd5b50919050565b601f821115620002b257805f5260205f20601f840160051c810160208510156200048a5750805b601f840160051c820191505b81811015620004ab575f815560010162000496565b5050505050565b81516001600160401b03811115620004ce57620004ce62000415565b620004e681620004df845462000429565b8462000463565b602080601f8311600181146200051c575f8415620005045750858301515b5f19600386901b1c1916600185901b17855562000576565b5f85815260208120601f198616915b828110156200054c578886015182559484019460019091019084016200052b565b50858210156200056a57878501515f19600388901b60f8161c191681555b505060018460011b0185555b505050505050565b5f602080835283518060208501525f5b81811015620005ac578581018301518582016040015282016200058e565b505f604082860101526040601f19601f8301168501019250505092915050565b805160208083015191908110156200045d575f1960209190910360031b1b16919050565b808201808211156200022157634e487b7160e01b5f52601160045260245ffd5b60805160a05160c05160e05161010051610120516101405161127c620006625f395f61093a01525f61090d01525f6108b601525f61088e01525f6107e901525f61081301525f61083d015261127c5ff3fe608060405234801561000f575f80fd5b506004361061013d575f3560e01c806370a08231116100b457806395d89b411161007957806395d89b411461027a578063a9059cbb14610282578063d505accf14610295578063d6b8de93146102a8578063d89135cd146102bb578063dd62ed3e146102c4575f80fd5b806370a082311461020957806379cc6790146102315780637ecebe001461024457806384b0196e146102575780639358928b14610272575f80fd5b80632300f410116101055780632300f410146101b157806323b872dd146101ba578063313ce567146101cd5780633644e515146101dc57806342966c68146101e457806348931352146101f7575f80fd5b8063043db2b51461014157806306fdde031461015c578063091273a714610171578063095ea7b31461018657806318160ddd146101a9575b5f80fd5b6101496102fc565b6040519081526020015b60405180910390f35b610164610328565b6040516101539190610e8b565b61018461017f366004610ee9565b6103b8565b005b610199610194366004610f4c565b61041b565b6040519015158152602001610153565b600254610149565b6101496101f481565b6101996101c8366004610f74565b610434565b60405160128152602001610153565b610149610457565b6101846101f2366004610fad565b610460565b6101496a115eec47f6cf7e3500000081565b610149610217366004610fc4565b6001600160a01b03165f9081526020819052604090205490565b61018461023f366004610f4c565b61046d565b610149610252366004610fc4565b610486565b61025f6104a3565b6040516101539796959493929190610fdd565b6101496104e5565b6101646104ef565b610199610290366004610f4c565b6104fe565b6101846102a3366004611074565b61050b565b6101846102b63660046110e1565b610646565b61014960085481565b6101496102d2366004611137565b6001600160a01b039182165f90815260016020908152604080832093909416825291909152205490565b5f6a115eec47f6cf7e35000000600854612710610319919061117c565b6103239190611193565b905090565b606060038054610337906111b2565b80601f0160208091040260200160405190810160405280929190818152602001828054610363906111b2565b80156103ae5780601f10610385576101008083540402835291602001916103ae565b820191905f5260205f20905b81548152906001019060200180831161039157829003601f168201915b5050505050905090565b6103c233846106be565b8260085f8282546103d391906111ea565b909155505060405133907ffad31924d655455395c87544c8aa1ffdb5a7505a22a3c2e03f28003b6556a75f9061040e908690869086906111fd565b60405180910390a2505050565b5f336104288185856106f2565b60019150505b92915050565b5f33610441858285610704565b61044c858585610780565b506001949350505050565b5f6103236107dd565b61046a33826106be565b50565b610478823383610704565b61048282826106be565b5050565b6001600160a01b0381165f9081526007602052604081205461042e565b5f6060805f805f60606104b4610906565b6104bc610933565b604080515f80825260208201909252600f60f81b9b939a50919850469750309650945092509050565b5f61032360025490565b606060048054610337906111b2565b5f33610428818585610780565b834211156105345760405163313c898160e11b8152600481018590526024015b60405180910390fd5b5f7f6e71edae12b1b97f4d1f60370fef10105fa2faae0126114a169c64845d6126c988888861057f8c6001600160a01b03165f90815260076020526040902080546001810190915590565b6040805160208101969096526001600160a01b0394851690860152929091166060840152608083015260a082015260c0810186905260e0016040516020818303038152906040528051906020012090505f6105d982610960565b90505f6105e88287878761098c565b9050896001600160a01b0316816001600160a01b03161461062f576040516325c0072360e11b81526001600160a01b0380831660048301528b16602482015260440161052b565b61063a8a8a8a6106f2565b50505050505050505050565b610651843385610704565b61065b84846106be565b8260085f82825461066c91906111ea565b92505081905550836001600160a01b03167ffad31924d655455395c87544c8aa1ffdb5a7505a22a3c2e03f28003b6556a75f8484846040516106b0939291906111fd565b60405180910390a250505050565b6001600160a01b0382166106e757604051634b637e8f60e11b81525f600482015260240161052b565b610482825f836109b8565b6106ff83838360016109c3565b505050565b6001600160a01b038381165f908152600160209081526040808320938616835292905220545f1981101561077a578181101561076c57604051637dc7a0d960e11b81526001600160a01b0384166004820152602481018290526044810183905260640161052b565b61077a84848484035f6109c3565b50505050565b6001600160a01b0383166107a957604051634b637e8f60e11b81525f600482015260240161052b565b6001600160a01b0382166107d25760405163ec442f0560e01b81525f600482015260240161052b565b6106ff8383836109b8565b5f306001600160a01b037f00000000000000000000000000000000000000000000000000000000000000001614801561083557507f000000000000000000000000000000000000000000000000000000000000000046145b1561085f57507f000000000000000000000000000000000000000000000000000000000000000090565b610323604080517f8b73c3c69bb8fe3d512ecc4cf759cc79239f7b179b0ffacaa9a75d522b39400f60208201527f0000000000000000000000000000000000000000000000000000000000000000918101919091527f000000000000000000000000000000000000000000000000000000000000000060608201524660808201523060a08201525f9060c00160405160208183030381529060405280519060200120905090565b60606103237f00000000000000000000000000000000000000000000000000000000000000006005610a95565b60606103237f00000000000000000000000000000000000000000000000000000000000000006006610a95565b5f61042e61096c6107dd565b8360405161190160f01b8152600281019290925260228201526042902090565b5f805f8061099c88888888610b3e565b9250925092506109ac8282610c06565b50909695505050505050565b6106ff838383610cbe565b6001600160a01b0384166109ec5760405163e602df0560e01b81525f600482015260240161052b565b6001600160a01b038316610a1557604051634a1406b160e11b81525f600482015260240161052b565b6001600160a01b038085165f908152600160209081526040808320938716835292905220829055801561077a57826001600160a01b0316846001600160a01b03167f8c5be1e5ebec7d5bd14f71427d1e84f3dd0314c0f7b2291e5b200ac8c7c3b92584604051610a8791815260200190565b60405180910390a350505050565b606060ff8314610aaf57610aa883610de4565b905061042e565b818054610abb906111b2565b80601f0160208091040260200160405190810160405280929190818152602001828054610ae7906111b2565b8015610b325780601f10610b0957610100808354040283529160200191610b32565b820191905f5260205f20905b815481529060010190602001808311610b1557829003601f168201915b5050505050905061042e565b5f80807f7fffffffffffffffffffffffffffffff5d576e7357a4501ddfe92f46681b20a0841115610b7757505f91506003905082610bfc565b604080515f808252602082018084528a905260ff891692820192909252606081018790526080810186905260019060a0016020604051602081039080840390855afa158015610bc8573d5f803e3d5ffd5b5050604051601f1901519150506001600160a01b038116610bf357505f925060019150829050610bfc565b92505f91508190505b9450945094915050565b5f826003811115610c1957610c19611232565b03610c22575050565b6001826003811115610c3657610c36611232565b03610c545760405163f645eedf60e01b815260040160405180910390fd5b6002826003811115610c6857610c68611232565b03610c895760405163fce698f760e01b81526004810182905260240161052b565b6003826003811115610c9d57610c9d611232565b03610482576040516335e2f38360e21b81526004810182905260240161052b565b6001600160a01b038316610ce8578060025f828254610cdd91906111ea565b90915550610d589050565b6001600160a01b0383165f9081526020819052604090205481811015610d3a5760405163391434e360e21b81526001600160a01b0385166004820152602481018290526044810183905260640161052b565b6001600160a01b0384165f9081526020819052604090209082900390555b6001600160a01b038216610d7457600280548290039055610d92565b6001600160a01b0382165f9081526020819052604090208054820190555b816001600160a01b0316836001600160a01b03167fddf252ad1be2c89b69c2b068fc378daa952ba7f163c4a11628f55a4df523b3ef83604051610dd791815260200190565b60405180910390a3505050565b60605f610df083610e21565b6040805160208082528183019092529192505f91906020820181803683375050509182525060208101929092525090565b5f60ff8216601f81111561042e57604051632cd44ac360e21b815260040160405180910390fd5b5f81518084525f5b81811015610e6c57602081850181015186830182015201610e50565b505f602082860101526020601f19601f83011685010191505092915050565b602081525f610e9d6020830184610e48565b9392505050565b5f8083601f840112610eb4575f80fd5b50813567ffffffffffffffff811115610ecb575f80fd5b602083019150836020828501011115610ee2575f80fd5b9250929050565b5f805f60408486031215610efb575f80fd5b83359250602084013567ffffffffffffffff811115610f18575f80fd5b610f2486828701610ea4565b9497909650939450505050565b80356001600160a01b0381168114610f47575f80fd5b919050565b5f8060408385031215610f5d575f80fd5b610f6683610f31565b946020939093013593505050565b5f805f60608486031215610f86575f80fd5b610f8f84610f31565b9250610f9d60208501610f31565b9150604084013590509250925092565b5f60208284031215610fbd575f80fd5b5035919050565b5f60208284031215610fd4575f80fd5b610e9d82610f31565b60ff60f81b881681525f602060e06020840152610ffd60e084018a610e48565b838103604085015261100f818a610e48565b606085018990526001600160a01b038816608086015260a0850187905284810360c0860152855180825260208088019350909101905f5b8181101561106257835183529284019291840191600101611046565b50909c9b505050505050505050505050565b5f805f805f805f60e0888a03121561108a575f80fd5b61109388610f31565b96506110a160208901610f31565b95506040880135945060608801359350608088013560ff811681146110c4575f80fd5b9699959850939692959460a0840135945060c09093013592915050565b5f805f80606085870312156110f4575f80fd5b6110fd85610f31565b935060208501359250604085013567ffffffffffffffff81111561111f575f80fd5b61112b87828801610ea4565b95989497509550505050565b5f8060408385031215611148575f80fd5b61115183610f31565b915061115f60208401610f31565b90509250929050565b634e487b7160e01b5f52601160045260245ffd5b808202811582820484141761042e5761042e611168565b5f826111ad57634e487b7160e01b5f52601260045260245ffd5b500490565b600181811c908216806111c657607f821691505b6020821081036111e457634e487b7160e01b5f52602260045260245ffd5b50919050565b8082018082111561042e5761042e611168565b83815260406020820152816040820152818360608301375f818301606090810191909152601f909201601f1916010192915050565b634e487b7160e01b5f52602160045260245ffdfea2646970667358221220dd83f2c405a0293acc485e401a32e5b5c1b2e78fc4db7a6aeffd41dfb113a98264736f6c63430008180033",
  "linkReferences": {},
  "deployedLinkReferences": {}
}