{
  "_format": "hh-sol-artifact-1",
  "contractName": "MockValidationPool",
  "sourceName": "contracts/mocks/MockValidationPool.sol",
  "abi": [
    {
      "inputs": [
        {
          "internalType": "address",
          "name": "taskRegistry",
          "type": "address"
        },
        {
          "internalType": "uint256",
          "name": "taskId",
          "type": "uint256"
        },
        {
          "internalType": "address[]",
          "name": "miners",
          "type": "address[]"
        }
      ],
      "name": "assignMiners",
      "outputs": [],
      "stateMutability": "nonpayable",
      "type": "function"
    },
    {
      "inputs": [
        {
          "internalType": "address",
          "name": "taskRegistry",
          "type": "address"
        },
        {
          "internalType": "uint256",
          "name": "taskId",
          "type": "uint256"
        },
        {
          "internalType": "string",
          "name": "reason",
          "type": "string"
        }
      ],
      "name": "finalizeTaskFailed",
      "outputs": [],
      "stateMutability": "nonpayable",
      "type": "function"
    },
    {
      "inputs": [
        {
          "internalType": "address",
          "name": "taskRegistry",
          "type": "address"
        },
        {
          "internalType": "uint256",
          "name": "taskId",
          "type": "uint256"
        },
        {
          "internalType": "bytes32",
          "name": "agreedFingerprint",
          "type": "bytes32"
        },
        {
          "internalType": "address[]",
          "name": "slashedMiners",
          "type": "address[]"
        }
      ],
      "name": "finalizeTaskVerified",
      "outputs": [],
      "stateMutability": "nonpayable",
      "type": "function"
    }
  ],
  "bytecode": "0x608060405234801561000f575f80fd5b506105f98061001d5f395ff3fe608060405234801561000f575f80fd5b506004361061003f575f3560e01c80632bf8c37314610043578063835b389c14610058578063a2b685161461006b575b5f80fd5b610056610051366004610399565b61007e565b005b6100566100663660046103ef565b610164565b61005661007936600461046f565b610248565b5f846001600160a01b031684848460405160240161009e93929190610517565b60408051601f198184030181529181526020820180516001600160e01b0316634e1e462960e01b179052516100d39190610539565b5f604051808303815f865af19150503d805f811461010c576040519150601f19603f3d011682016040523d82523d5f602084013e610111565b606091505b505090508061015d5760405162461bcd60e51b8152602060048201526013602482015272185cdcda59db935a5b995c9cc819985a5b1959606a1b60448201526064015b60405180910390fd5b5050505050565b5f846001600160a01b031684848460405160240161018493929190610565565b60408051601f198184030181529181526020820180516001600160e01b0316631fcdd3f560e31b179052516101b99190610539565b5f604051808303815f865af19150503d805f81146101f2576040519150601f19603f3d011682016040523d82523d5f602084013e6101f7565b606091505b505090508061015d5760405162461bcd60e51b815260206004820152601960248201527f66696e616c697a655461736b4661696c6564206661696c6564000000000000006044820152606401610154565b5f856001600160a01b03168585858560405160240161026a949392919061059a565b60408051601f198184030181529181526020820180516001600160e01b031663b98e306d60e01b1790525161029f9190610539565b5f604051808303815f865af19150503d805f81146102d8576040519150601f19603f3d011682016040523d82523d5f602084013e6102dd565b606091505b505090508061032e5760405162461bcd60e51b815260206004820152601b60248201527f66696e616c697a655461736b5665726966696564206661696c656400000000006044820152606401610154565b505050505050565b80356001600160a01b038116811461034c575f80fd5b919050565b5f8083601f840112610361575f80fd5b50813567ffffffffffffffff811115610378575f80fd5b6020830191508360208260051b8501011115610392575f80fd5b9250929050565b5f805f80606085870312156103ac575f80fd5b6103b585610336565b935060208501359250604085013567ffffffffffffffff8111156103d7575f80fd5b6103e387828801610351565b95989497509550505050565b5f805f8060608587031215610402575f80fd5b61040b85610336565b935060208501359250604085013567ffffffffffffffff8082111561042e575f80fd5b818701915087601f830112610441575f80fd5b81358181111561044f575f80fd5b886020828501011115610460575f80fd5b95989497505060200194505050565b5f805f805f60808688031215610483575f80fd5b61048c86610336565b94506020860135935060408601359250606086013567ffffffffffffffff8111156104b5575f80fd5b6104c188828901610351565b969995985093965092949392505050565b8183525f60208085019450825f5b8581101561050c576001600160a01b036104f983610336565b16875295820195908201906001016104e0565b509495945050505050565b838152604060208201525f6105306040830184866104d2565b95945050505050565b5f82515f5b81811015610558576020818601810151858301520161053e565b505f920191825250919050565b83815260406020820152816040820152818360608301375f818301606090810191909152601f909201601f1916010192915050565b848152836020820152606060408201525f6105b96060830184866104d2565b969550505050505056fea26469706673582212207e0b912d19d9edd80e2f4e569c28d0fb7b7bd949fbfe40e5d147777c2d8e053464736f6c63430008180033",
  "linkReferences": {},
  "deployedLinkReferences": {}
}