{
  "_format": "hh-sol-artifact-1",
  "contractName": "ValidationPool",
  "sourceName": "contracts/ValidationPool.sol",
  "abi": [
    {
      "inputs": [
        {
          "internalType": "address",
          "name": "_gaiaToken",
          "type": "address"
        }
      ],
      "stateMutability": "nonpayable",
      "type": "constructor"
    },
    {
      "inputs": [
        {
          "internalType": "uint256",
          "name": "provided",
          "type": "uint256"
        },
        {
          "internalType": "uint256",
          "name": "required",
          "type": "uint256"
        }
      ],
      "name": "InsufficientStake",
      "type": "error"
    },
    {
      "inputs": [],
      "name": "InvalidFingerprint",
      "type": "error"
    },
    {
      "inputs": [],
      "name": "NotOwner",
      "type": "error"
    },
    {
      "inputs": [],
      "name": "NotRegisteredValidator",
      "type": "error"
    },
    {
      "inputs": [],
      "name": "ReentrancyGuardReentrantCall",
      "type": "error"
    },
    {
      "inputs": [
        {
          "internalType": "uint256",
          "name": "taskId",
          "type": "uint256"
        }
      ],
      "name": "TaskNotReadyForValidation",
      "type": "error"
    },
    {
      "inputs": [
        {
          "internalType": "uint256",
          "name": "taskId",
          "type": "uint256"
        }
      ],
      "name": "ValidationAlreadyComplete",
      "type": "error"
    },
    {
      "anonymous": false,
      "inputs": [
        {
          "indexed": true,
          "internalType": "address",
          "name": "taskRegistry",
          "type": "address"
        },
        {
          "indexed": true,
          "internalType": "address",
          "name": "rewardDistributor",
          "type": "address"
        }
      ],
      "name": "AddressesSet",
      "type": "event"
    },
    {
      "anonymous": false,
      "inputs": [
        {
          "indexed": true,
          "internalType": "uint256",
          "name": "taskId",
          "type": "uint256"
        },
        {
          "indexed": false,
          "internalType": "string",
          "name": "reason",
          "type": "string"
        },
        {
          "indexed": false,
          "internalType": "uint256",
          "name": "minersSlashed",
          "type": "uint256"
        }
      ],
      "name": "ConsensusFailure",
      "type": "event"
    },
    {
      "anonymous": false,
      "inputs": [
        {
          "indexed": true,
          "internalType": "uint256",
          "name": "taskId",
          "type": "uint256"
        },
        {
          "indexed": false,
          "internalType": "bool",
          "name": "passed",
          "type": "bool"
        },
        {
          "indexed": false,
          "internalType": "bytes32",
          "name": "testedFingerprint",
          "type": "bytes32"
        },
        {
          "indexed": true,
          "internalType": "address",
          "name": "verifier",
          "type": "address"
        }
      ],
      "name": "FreivaldsResultSubmitted",
      "type": "event"
    },
    {
      "anonymous": false,
      "inputs": [
        {
          "indexed": true,
          "internalType": "address",
          "name": "miner",
          "type": "address"
        },
        {
          "indexed": false,
          "internalType": "uint256",
          "name": "stake",
          "type": "uint256"
        }
      ],
      "name": "MinerRegistered",
      "type": "event"
    },
    {
      "anonymous": false,
      "inputs": [
        {
          "indexed": true,
          "internalType": "address",
          "name": "miner",
          "type": "address"
        },
        {
          "indexed": true,
          "internalType": "uint256",
          "name": "taskId",
          "type": "uint256"
        },
        {
          "indexed": false,
          "internalType": "uint256",
          "name": "amountSlashed",
          "type": "uint256"
        },
        {
          "indexed": false,
          "internalType": "string",
          "name": "reason",
          "type": "string"
        }
      ],
      "name": "MinerSlashed",
      "type": "event"
    },
    {
      "anonymous": false,
      "inputs": [
        {
          "indexed": true,
          "internalType": "uint256",
          "name": "taskId",
          "type": "uint256"
        },
        {
          "indexed": false,
          "internalType": "bytes32",
          "name": "agreedFingerprint",
          "type": "bytes32"
        },
        {
          "indexed": false,
          "internalType": "uint256",
          "name": "minerCount",
          "type": "uint256"
        },
        {
          "indexed": false,
          "internalType": "uint256",
          "name": "dissentersSlashed",
          "type": "uint256"
        }
      ],
      "name": "QuorumReached",
      "type": "event"
    },
    {
      "anonymous": false,
      "inputs": [
        {
          "indexed": true,
          "internalType": "address",
          "name": "validator",
          "type": "address"
        },
        {
          "indexed": false,
          "internalType": "uint256",
          "name": "stake",
          "type": "uint256"
        }
      ],
      "name": "ValidatorRegistered",
      "type": "event"
    },
    {
      "inputs": [],
      "name": "BPS_DENOMINATOR",
      "outputs": [
        {
          "internalType": "uint256",
          "name": "",
          "type": "uint256"
        }
      ],
      "stateMutability": "view",
      "type": "function"
    },
    {
      "inputs": [],
      "name": "COLLUDER_SLASH_BPS",
      "outputs": [
        {
          "internalType": "uint256",
          "name": "",
          "type": "uint256"
        }
      ],
      "stateMutability": "view",
      "type": "function"
    },
    {
      "inputs": [],
      "name": "DISSENTER_SLASH_BPS",
      "outputs": [
        {
          "internalType": "uint256",
          "name": "",
          "type": "uint256"
        }
      ],
      "stateMutability": "view",
      "type": "function"
    },
    {
      "inputs": [],
      "name": "FREIVALDS_ROUNDS",
      "outputs": [
        {
          "internalType": "uint256",
          "name": "",
          "type": "uint256"
        }
      ],
      "stateMutability": "view",
      "type": "function"
    },
    {
      "inputs": [],
      "name": "MIN_MINER_STAKE",
      "outputs": [
        {
          "internalType": "uint256",
          "name": "",
          "type": "uint256"
        }
      ],
      "stateMutability": "view",
      "type": "function"
    },
    {
      "inputs": [],
      "name": "MIN_VALIDATOR_STAKE",
      "outputs": [
        {
          "internalType": "uint256",
          "name": "",
          "type": "uint256"
        }
      ],
      "stateMutability": "view",
      "type": "function"
    },
    {
      "inputs": [],
      "name": "QUORUM_THRESHOLD",
      "outputs": [
        {
          "internalType": "uint256",
          "name": "",
          "type": "uint256"
        }
      ],
      "stateMutability": "view",
      "type": "function"
    },
    {
      "inputs": [],
      "name": "SLASH_BURN_SHARE_BPS",
      "outputs": [
        {
          "internalType": "uint256",
          "name": "",
          "type": "uint256"
        }
      ],
      "stateMutability": "view",
      "type": "function"
    },
    {
      "inputs": [
        {
          "internalType": "uint256",
          "name": "",
          "type": "uint256"
        }
      ],
      "name": "freivaldsResults",
      "outputs": [
        {
          "internalType": "uint256",
          "name": "taskId",
          "type": "uint256"
        },
        {
          "internalType": "bool",
          "name": "passed",
          "type": "bool"
        },
        {
          "internalType": "bytes32",
          "name": "testedFingerprint",
          "type": "bytes32"
        },
        {
          "internalType": "uint8",
          "name": "roundsExecuted",
          "type": "uint8"
        },
        {
          "internalType": "uint256",
          "name": "errorProbabilityBps",
          "type": "uint256"
        },
        {
          "internalType": "address",
          "name": "verifier",
          "type": "address"
        },
        {
          "internalType": "uint256",
          "name": "submittedAt",
          "type": "uint256"
        }
      ],
      "stateMutability": "view",
      "type": "function"
    },
    {
      "inputs": [],
      "name": "gaiaToken",
      "outputs": [
        {
          "internalType": "address",
          "name": "",
          "type": "address"
        }
      ],
      "stateMutability": "view",
      "type": "function"
    },
    {
      "inputs": [
        {
          "internalType": "uint256",
          "name": "taskId",
          "type": "uint256"
        }
      ],
      "name": "getFreivaldsResult",
      "outputs": [
        {
          "components": [
            {
              "internalType": "uint256",
              "name": "taskId",
              "type": "uint256"
            },
            {
              "internalType": "bool",
              "name": "passed",
              "type": "bool"
            },
            {
              "internalType": "bytes32",
              "name": "testedFingerprint",
              "type": "bytes32"
            },
            {
              "internalType": "uint8",
              "name": "roundsExecuted",
              "type": "uint8"
            },
            {
              "internalType": "uint256",
              "name": "errorProbabilityBps",
              "type": "uint256"
            },
            {
              "internalType": "address",
              "name": "verifier",
              "type": "address"
            },
            {
              "internalType": "uint256",
              "name": "submittedAt",
              "type": "uint256"
            }
          ],
          "internalType": "struct ValidationPool.FreivaldsResult",
          "name": "",
          "type": "tuple"
        }
      ],
      "stateMutability": "view",
      "type": "function"
    },
    {
      "inputs": [
        {
          "internalType": "address",
          "name": "miner",
          "type": "address"
        }
      ],
      "name": "getMinerStake",
      "outputs": [
        {
          "internalType": "uint256",
          "name": "",
          "type": "uint256"
        }
      ],
      "stateMutability": "view",
      "type": "function"
    },
    {
      "inputs": [
        {
          "internalType": "address",
          "name": "",
          "type": "address"
        }
      ],
      "name": "isValidator",
      "outputs": [
        {
          "internalType": "bool",
          "name": "",
          "type": "bool"
        }
      ],
      "stateMutability": "view",
      "type": "function"
    },
    {
      "inputs": [
        {
          "internalType": "address",
          "name": "",
          "type": "address"
        }
      ],
      "name": "minerStake",
      "outputs": [
        {
          "internalType": "uint256",
          "name": "",
          "type": "uint256"
        }
      ],
      "stateMutability": "view",
      "type": "function"
    },
    {
      "inputs": [],
      "name": "owner",
      "outputs": [
        {
          "internalType": "address",
          "name": "",
          "type": "address"
        }
      ],
      "stateMutability": "view",
      "type": "function"
    },
    {
      "inputs": [],
      "name": "registerMiner",
      "outputs": [],
      "stateMutability": "nonpayable",
      "type": "function"
    },
    {
      "inputs": [],
      "name": "registerValidator",
      "outputs": [],
      "stateMutability": "nonpayable",
      "type": "function"
    },
    {
      "inputs": [],
      "name": "rewardDistributor",
      "outputs": [
        {
          "internalType": "contract RewardDistributor",
          "name": "",
          "type": "address"
        }
      ],
      "stateMutability": "view",
      "type": "function"
    },
    {
      "inputs": [
        {
          "internalType": "address",
          "name": "_taskRegistry",
          "type": "address"
        },
        {
          "internalType": "address",
          "name": "_rewardDistributor",
          "type": "address"
        }
      ],
      "name": "setAddresses",
      "outputs": [],
      "stateMutability": "nonpayable",
      "type": "function"
    },
    {
      "inputs": [
        {
          "internalType": "uint256",
          "name": "taskId",
          "type": "uint256"
        },
        {
          "internalType": "bool",
          "name": "freivaldsPassedMajority",
          "type": "bool"
        },
        {
          "internalType": "bytes32",
          "name": "testedFingerprint",
          "type": "bytes32"
        },
        {
          "internalType": "uint8",
          "name": "roundsExecuted",
          "type": "uint8"
        }
      ],
      "name": "submitFreivaldsResult",
      "outputs": [],
      "stateMutability": "nonpayable",
      "type": "function"
    },
    {
      "inputs": [],
      "name": "taskRegistry",
      "outputs": [
        {
          "internalType": "contract TaskRegistry",
          "name": "",
          "type": "address"
        }
      ],
      "stateMutability": "view",
      "type": "function"
    },
    {
      "inputs": [
        {
          "internalType": "uint256",
          "name": "",
          "type": "uint256"
        }
      ],
      "name": "validationComplete",
      "outputs": [
        {
          "internalType": "bool",
          "name": "",
          "type": "bool"
        }
      ],
      "stateMutability": "view",
      "type": "function"
    },
    {
      "inputs": [],
      "name": "validatorCount",
      "outputs": [
        {
          "internalType": "uint256",
          "name": "",
          "type": "uint256"
        }
      ],
      "stateMutability": "view",
      "type": "function"
    },
    {
      "inputs": [
        {
          "internalType": "address",
          "name": "",
          "type": "address"
        }
      ],
      "name": "validatorStake",
      "outputs": [
        {
          "internalType": "uint256",
          "name": "",
          "type": "uint256"
        }
      ],
      "stateMutability": "view",
      "type": "function"
    },
    {
      "inputs": [
        {
          "internalType": "uint256",
          "name": "",
          "type": "uint256"
        }
      ],
      "name": "validators",
      "outputs": [
        {
          "internalType": "address",
          "name": "",
          "type": "address"
        }
      ],
      "stateMutability": "view",
      "type": "function"
    }
  ],
  "bytecode": "0x60c06040526001805460ff60a01b1916905534801561001c575f80fd5b50604051611c96380380611c9683398101604081905261003b916100c3565b60017f9b779b17422d0df92223018b32b4d1fa46e071723d6817e2486d003becc55f00556001600160a01b0381166100ae5760405162461bcd60e51b81526020600482015260126024820152712b281d103d32b9379033b0b4b0aa37b5b2b760711b604482015260640160405180910390fd5b6001600160a01b03166080523360a0526100f0565b5f602082840312156100d3575f80fd5b81516001600160a01b03811681146100e9575f80fd5b9392505050565b60805160a051611b626101345f395f8181610433015261053f01525f81816103160152818161070b015281816107dc0152818161095c0152610a2d0152611b625ff3fe608060405234801561000f575f80fd5b506004361061016d575f3560e01c80638da5cb5b116100d9578063bcc6587f11610093578063df2eaf511161006e578063df2eaf51146104cf578063e1a45218146104c6578063eb1b2e10146104d7578063facd743b146104ea575f80fd5b8063bcc6587f146104be578063ce18178d1461041d578063d5dd6be2146104c6575f80fd5b80638da5cb5b1461042e5780638eaa38501461045557806390107afe146104745780639c2a2259146104895780639e498f1614610499578063acc2166a146104ab575f80fd5b806324009b781161012a57806324009b78146103115780632c8c0dc11461035057806335aa2e44146103eb57806339b7fcc6146103fe578063573ba4f01461041d5780635e510b6014610426575f80fd5b806308e338da146101715780630f43a677146101a85780631047059d146101ba57806314169acb146102d157806316ba5f38146102e15780631b78f88b146102e9575b5f80fd5b61019361017f366004611735565b60066020525f908152604090205460ff1681565b60405190151581526020015b60405180910390f35b6004545b60405190815260200161019f565b6102726101c8366004611735565b6040805160e0810182525f80825260208201819052918101829052606081018290526080810182905260a0810182905260c0810191909152505f90815260056020818152604092839020835160e08101855281548152600182015460ff9081161515938201939093526002820154948101949094526003810154909116606084015260048101546080840152908101546001600160a01b031660a08301526006015460c082015290565b60405161019f9190815181526020808301511515908201526040808301519082015260608083015160ff16908201526080808301519082015260a0808301516001600160a01b03169082015260c0918201519181019190915260e00190565b6101ac68056bc75e2d6310000081565b6101ac600a81565b6101ac6102f7366004611763565b6001600160a01b03165f9081526007602052604090205490565b6103387f000000000000000000000000000000000000000000000000000000000000000081565b6040516001600160a01b03909116815260200161019f565b6103ab61035e366004611735565b600560208190525f91825260409091208054600182015460028301546003840154600485015495850154600690950154939560ff9384169592949190931692916001600160a01b03169087565b6040805197885295151560208801529486019390935260ff909116606085015260808401526001600160a01b031660a083015260c082015260e00161019f565b6103386103f9366004611735565b61050c565b6101ac61040c366004611763565b60036020525f908152604090205481565b6101ac61138881565b6101ac600281565b6103387f000000000000000000000000000000000000000000000000000000000000000081565b6101ac610463366004611763565b60076020525f908152604090205481565b610487610482366004611785565b610534565b005b6101ac683635c9adc5dea0000081565b5f54610338906001600160a01b031681565b600154610338906001600160a01b031681565b6104876106e6565b6101ac61271081565b610487610937565b6104876104e53660046117c9565b610af5565b6101936104f8366004611763565b60026020525f908152604090205460ff1681565b6004818154811061051b575f80fd5b5f918252602090912001546001600160a01b0316905081565b336001600160a01b037f0000000000000000000000000000000000000000000000000000000000000000161461057d576040516330cd747160e01b815260040160405180910390fd5b600154600160a01b900460ff16156105dc5760405162461bcd60e51b815260206004820152601960248201527f56503a2061646472657373657320616c7265616479207365740000000000000060448201526064015b60405180910390fd5b6001600160a01b03821661062a5760405162461bcd60e51b815260206004820152601560248201527456503a207a65726f207461736b526567697374727960581b60448201526064016105d3565b6001600160a01b0381166106805760405162461bcd60e51b815260206004820152601a60248201527f56503a207a65726f207265776172644469737472696275746f7200000000000060448201526064016105d3565b5f80546001600160a01b038085166001600160a01b031990921682178355600180546001600160a81b031916918516918217600160a01b17905560405190927fc85d03f020ecd6e7e68d949922d7bfbf9b0ac67d6e9d24792773b8df88a89dea91a35050565b6106ee610e57565b604051636eb1769f60e11b81523360048201523060248201525f907f00000000000000000000000000000000000000000000000000000000000000006001600160a01b03169063dd62ed3e90604401602060405180830381865afa158015610758573d5f803e3d5ffd5b505050506040513d601f19601f8201168201806040525081019061077c9190611815565b9050683635c9adc5dea000008110156107ba576040516322df051360e11b815260048101829052683635c9adc5dea0000060248201526044016105d3565b6040516323b872dd60e01b8152336004820152306024820152604481018290527f00000000000000000000000000000000000000000000000000000000000000006001600160a01b0316906323b872dd906064016020604051808303815f875af115801561082a573d5f803e3d5ffd5b505050506040513d601f19601f8201168201806040525081019061084e919061182c565b50335f908152600360205260408120805483929061086d90849061185b565b9091555050335f9081526002602052604090205460ff1661091e57335f81815260026020526040808220805460ff191660019081179091556004805491820181559092527f8a35acfbc15ff81a39ae7d344fd709f28e8600b4aa8c65c6b64bfe7fe36bd19b90910180546001600160a01b03191683179055517fb4a7f5c563a0e35593d156394ed681bdc9c39467d7d722749d23862c2e4b712c906109159084815260200190565b60405180910390a25b5061093560015f80516020611b0d83398151915255565b565b61093f610e57565b604051636eb1769f60e11b81523360048201523060248201525f907f00000000000000000000000000000000000000000000000000000000000000006001600160a01b03169063dd62ed3e90604401602060405180830381865afa1580156109a9573d5f803e3d5ffd5b505050506040513d601f19601f820116820180604052508101906109cd9190611815565b905068056bc75e2d63100000811015610a0b576040516322df051360e11b81526004810182905268056bc75e2d6310000060248201526044016105d3565b6040516323b872dd60e01b8152336004820152306024820152604481018290527f00000000000000000000000000000000000000000000000000000000000000006001600160a01b0316906323b872dd906064016020604051808303815f875af1158015610a7b573d5f803e3d5ffd5b505050506040513d601f19601f82011682018060405250810190610a9f919061182c565b50335f9081526007602052604081208054839290610abe90849061185b565b909155505060405181815233907f9f75af45683a8dc8c992aadb62ddd8b1f460ec386a36b794110630db3d138cce90602001610915565b610afd610e57565b600154600160a01b900460ff16610b605760405162461bcd60e51b815260206004820152602160248201527f56503a20616464726573736573206e6f742079657420696e697469616c697a656044820152601960fa1b60648201526084016105d3565b335f9081526002602052604090205460ff16610b8f57604051630ed220f560e31b815260040160405180910390fd5b5f8481526006602052604090205460ff1615610bc15760405163019d6f3b60e71b8152600481018590526024016105d3565b5f546040516305e7445b60e11b8152600481018690526001600160a01b0390911690630bce88b690602401602060405180830381865afa158015610c07573d5f803e3d5ffd5b505050506040513d601f19601f82011682018060405250810190610c2b919061182c565b610c4b57604051635541aa7360e11b8152600481018590526024016105d3565b81610c6957604051632a849a8560e01b815260040160405180910390fd5b600a8160ff161015610cbd5760405162461bcd60e51b815260206004820152601760248201527f56503a20696e73756666696369656e7420726f756e647300000000000000000060448201526064016105d3565b5f610cd0600160ff84161b61271061186e565b90506040518060e0016040528086815260200185151581526020018481526020018360ff168152602001828152602001336001600160a01b031681526020014281525060055f8781526020019081526020015f205f820151815f01556020820151816001015f6101000a81548160ff021916908315150217905550604082015181600201556060820151816003015f6101000a81548160ff021916908360ff1602179055506080820151816004015560a0820151816005015f6101000a8154816001600160a01b0302191690836001600160a01b0316021790555060c08201518160060155905050600160065f8781526020019081526020015f205f6101000a81548160ff021916908315150217905550336001600160a01b0316857e9752940b2b1958b4489b62657e8075817c2dc4e37a65a6cff30da01eec64878686604051610e279291909115158252602082015260400190565b60405180910390a3610e3a858585610e72565b50610e5160015f80516020611b0d83398151915255565b50505050565b610e5f611345565b60025f80516020611b0d83398151915255565b5f80546040516316c53ced60e01b8152600481018690526001600160a01b03909116906316c53ced906024015f60405180830381865afa158015610eb8573d5f803e3d5ffd5b505050506040513d5f823e601f3d908101601f19168201604052610edf91908101906118fb565b90505f610eeb82611374565b90505f610ef883836113e7565b90505f610f058484611434565b90506002821015611032575f5460408051631fcdd3f560e31b8152600481018a90526024810191909152601760448201527f6e6f5f71756f72756d5f616c6c5f646966666572656e7400000000000000000060648201526001600160a01b039091169063fe6e9fa8906084015f604051808303815f87803b158015610f88575f80fd5b505af1158015610f9a573d5f803e3d5ffd5b50505050610fca8488604051806040016040528060098152602001686e6f5f71756f72756d60b81b815250611564565b867f43eab616fbbacb6a49319c31f13024b92689f9ba17c0f639840e4efb0967d94a855160405161102191906040808252600990820152686e6f5f71756f72756d60b81b6060820152602081019190915260800190565b60405180910390a250505050505050565b8561116d575f54604051631fcdd3f560e31b81526001600160a01b039091169063fe6e9fa8906110ac908a906004019081526040602082018190526024908201527f6672656976616c64735f6661696c65645f7375737065637465645f636f6c6c7560608201526339b4b7b760e11b608082015260a00190565b5f604051808303815f87803b1580156110c3575f80fd5b505af11580156110d5573d5f803e3d5ffd5b5050505061110f84886040518060400160405280601381526020017218dbdb1b1d5cda5bdb97dcdd5cdc1958dd1959606a1b815250611564565b867f43eab616fbbacb6a49319c31f13024b92689f9ba17c0f639840e4efb0967d94a8551604051611021919060408082526010908201526f199c995a5d985b191cd7d9985a5b195960821b6060820152602081019190915260800190565b5f5460405163b98e306d60e01b81526001600160a01b039091169063b98e306d906111a0908a9089908690600401611a3b565b5f604051808303815f87803b1580156111b7575f80fd5b505af11580156111c9573d5f803e3d5ffd5b505050505f5b8151811015611228576112208282815181106111ed576111ed611a62565b602002602001015189611388604051806040016040528060098152602001683234b9b9b2b73a32b960b91b8152506115a1565b6001016111cf565b50805160408051878152602081018590529081019190915287907f4b7546fd0c360c8fb83cd010f096237b26b55e42ee240792b0a3f4f332d0b4679060600160405180910390a26001545f5460405163043f945360e31b8152600481018a90526001600160a01b03928316926365d9fbc1928b929116906321fca29890602401602060405180830381865afa1580156112c3573d5f803e3d5ffd5b505050506040513d601f19601f820116820180604052508101906112e79190611815565b6112f1888861164c565b6040518463ffffffff1660e01b815260040161130f93929190611a3b565b5f604051808303815f87803b158015611326575f80fd5b505af1158015611338573d5f803e3d5ffd5b5050505050505050505050565b5f80516020611b0d8339815191525460020361093557604051633ee5aeb560e01b815260040160405180910390fd5b5f80805b83518110156113e0575f6113a98586848151811061139857611398611a62565b6020026020010151606001516113e7565b9050828111156113d7578092508482815181106113c8576113c8611a62565b60200260200101516060015193505b50600101611378565b5050919050565b5f805b835181101561142d578284828151811061140657611406611a62565b60200260200101516060015103611425578161142181611a76565b9250505b6001016113ea565b5092915050565b60605f805b845181101561147c578385828151811061145557611455611a62565b60200260200101516060015114611474578161147081611a76565b9250505b600101611439565b505f8167ffffffffffffffff8111156114975761149761188d565b6040519080825280602002602001820160405280156114c0578160200160208202803683370190505b5090505f805b865181101561155757858782815181106114e2576114e2611a62565b6020026020010151606001511461154f5786818151811061150557611505611a62565b60200260200101515f015183838061151c90611a76565b94508151811061152e5761152e611a62565b60200260200101906001600160a01b031690816001600160a01b0316815250505b6001016114c6565b5090925050505b92915050565b5f5b8351811015610e515761159984828151811061158457611584611a62565b60200260200101515f015184612710856115a1565b600101611566565b6001600160a01b0384165f90815260076020526040812054908190036115c75750610e51565b5f6127106115d58584611a8e565b6115df919061186e565b90506115eb8183611aa5565b6001600160a01b0387165f81815260076020526040908190209290925590518691907f4f71cefd408baf836bcd287e0f8a361032b4d9f520c65e76ec77579fbb74b1099061163c9085908890611ab8565b60405180910390a3505050505050565b60605f61165984846113e7565b90505f8167ffffffffffffffff8111156116755761167561188d565b60405190808252806020026020018201604052801561169e578160200160208202803683370190505b5090505f805b865181101561155757858782815181106116c0576116c0611a62565b6020026020010151606001510361172d578681815181106116e3576116e3611a62565b60200260200101515f01518383806116fa90611a76565b94508151811061170c5761170c611a62565b60200260200101906001600160a01b031690816001600160a01b0316815250505b6001016116a4565b5f60208284031215611745575f80fd5b5035919050565b6001600160a01b0381168114611760575f80fd5b50565b5f60208284031215611773575f80fd5b813561177e8161174c565b9392505050565b5f8060408385031215611796575f80fd5b82356117a18161174c565b915060208301356117b18161174c565b809150509250929050565b8015158114611760575f80fd5b5f805f80608085870312156117dc575f80fd5b8435935060208501356117ee816117bc565b925060408501359150606085013560ff8116811461180a575f80fd5b939692955090935050565b5f60208284031215611825575f80fd5b5051919050565b5f6020828403121561183c575f80fd5b815161177e816117bc565b634e487b7160e01b5f52601160045260245ffd5b8082018082111561155e5761155e611847565b5f8261188857634e487b7160e01b5f52601260045260245ffd5b500490565b634e487b7160e01b5f52604160045260245ffd5b60405160c0810167ffffffffffffffff811182821017156118c4576118c461188d565b60405290565b604051601f8201601f1916810167ffffffffffffffff811182821017156118f3576118f361188d565b604052919050565b5f602080838503121561190c575f80fd5b825167ffffffffffffffff80821115611923575f80fd5b818501915085601f830112611936575f80fd5b8151818111156119485761194861188d565b611956848260051b016118ca565b818152848101925060c0918202840185019188831115611974575f80fd5b938501935b828510156119ec5780858a03121561198f575f80fd5b6119976118a1565b85516119a28161174c565b8152858701518782015260408087015190820152606080870151908201526080808701519082015260a0808701516119d9816117bc565b9082015284529384019392850192611979565b50979650505050505050565b5f815180845260208085019450602084015f5b83811015611a305781516001600160a01b031687529582019590820190600101611a0b565b509495945050505050565b838152826020820152606060408201525f611a5960608301846119f8565b95945050505050565b634e487b7160e01b5f52603260045260245ffd5b5f60018201611a8757611a87611847565b5060010190565b808202811582820484141761155e5761155e611847565b8181038181111561155e5761155e611847565b8281525f60206040602084015283518060408501525f5b81811015611aeb57858101830151858201606001528201611acf565b505f606082860101526060601f19601f83011685010192505050939250505056fe9b779b17422d0df92223018b32b4d1fa46e071723d6817e2486d003becc55f00a264697066735822122016da0267820d577c1095fda750893a923e043301f93c4e0e9c5923b9c9627f0164736f6c63430008180033",
  "linkReferences": {},
  "deployedLinkReferences": {}
}