{
  "_format": "hh-sol-artifact-1",
  "contractName": "MockConvictionVoting",
  "sourceName": "contracts/mocks/MockConvictionVoting.sol",
  "abi": [
    {
      "inputs": [
        {
          "internalType": "address",
          "name": "oracle",
          "type": "address"
        },
        {
          "internalType": "bytes32",
          "name": "newHash",
          "type": "bytes32"
        },
        {
          "internalType": "string",
          "name": "newCID",
          "type": "string"
        }
      ],
      "name": "executeOracleUpdate",
      "outputs": [],
      "stateMutability": "nonpayable",
      "type": "function"
    }
  ],
  "bytecode": "0x608060405234801561000f575f80fd5b506102138061001d5f395ff3fe608060405234801561000f575f80fd5b5060043610610029575f3560e01c8063927ff9881461002d575b5f80fd5b61004061003b3660046100ef565b610042565b005b5f80856001600160a01b03168585856040516024016100639392919061017c565b60408051601f198184030181529181526020820180516001600160e01b031662b3019760e51b1790525161009791906101b1565b5f604051808303815f865af19150503d805f81146100d0576040519150601f19603f3d011682016040523d82523d5f602084013e6100d5565b606091505b5091509150816100e757805160208201fd5b505050505050565b5f805f8060608587031215610102575f80fd5b84356001600160a01b0381168114610118575f80fd5b935060208501359250604085013567ffffffffffffffff8082111561013b575f80fd5b818701915087601f83011261014e575f80fd5b81358181111561015c575f80fd5b88602082850101111561016d575f80fd5b95989497505060200194505050565b83815260406020820152816040820152818360608301375f818301606090810191909152601f909201601f1916010192915050565b5f82515f5b818110156101d057602081860181015185830152016101b6565b505f92019182525091905056fea2646970667358221220e7d72a5f2f50c79b77f770892004617dabfa492c133da152a4b68f9a7bc0b22e64736f6c63430008180033",
  "linkReferences": {},
  "deployedLinkReferences": {}
}