{
  "_format": "hh-sol-artifact-1",
  "contractName": "MockTaskRegistry",
  "sourceName": "contracts/mocks/MockTaskRegistry.sol",
  "abi": [
    {
      "inputs": [
        {
          "internalType": "uint256",
          "name": "taskId",
          "type": "uint256"
        },
        {
          "internalType": "address[]",
          "name": "miners",
          "type": "address[]"
        }
      ],
      "name": "assignMiners",
      "outputs": [],
      "stateMutability": "nonpayable",
      "type": "function"
    },
    {
      "inputs": [
        {
          "internalType": "uint256",
          "name": "taskId",
          "type": "uint256"
        },
        {
          "internalType": "string",
          "name": "reason",
          "type": "string"
        }
      ],
      "name": "finalizeTaskFailed",
      "outputs": [],
      "stateMutability": "nonpayable",
      "type": "function"
    },
    {
      "inputs": [
        {
          "internalType": "uint256",
          "name": "taskId",
          "type": "uint256"
        },
        {
          "internalType": "bytes32",
          "name": "agreedFingerprint",
          "type": "bytes32"
        },
        {
          "internalType": "address[]",
          "name": "slashedMiners",
          "type": "address[]"
        }
      ],
      "name": "finalizeTaskVerified",
      "outputs": [],
      "stateMutability": "nonpayable",
      "type": "function"
    },
    {
      "inputs": [
        {
          "internalType": "uint256",
          "name": "taskId",
          "type": "uint256"
        }
      ],
      "name": "getSubmissions",
      "outputs": [
        {
          "components": [
            {
              "internalType": "address",
              "name": "miner",
              "type": "address"
            },
            {
              "internalType": "bytes32",
              "name": "resultHash",
              "type": "bytes32"
            },
            {
              "internalType": "bytes32",
              "name": "commitment",
              "type": "bytes32"
            },
            {
              "internalType": "bytes32",
              "name": "resultFingerprint",
              "type": "bytes32"
            },
            {
              "internalType": "uint256",
              "name": "submittedAt",
              "type": "uint256"
            },
            {
              "internalType": "bool",
              "name": "slashed",
              "type": "bool"
            }
          ],
          "internalType": "struct MockTaskRegistry.MinerSubmission[]",
          "name": "",
          "type": "tuple[]"
        }
      ],
      "stateMutability": "view",
      "type": "function"
    },
    {
      "inputs": [
        {
          "internalType": "uint256",
          "name": "",
          "type": "uint256"
        }
      ],
      "name": "getTaskReward",
      "outputs": [
        {
          "internalType": "uint256",
          "name": "",
          "type": "uint256"
        }
      ],
      "stateMutability": "pure",
      "type": "function"
    },
    {
      "inputs": [
        {
          "internalType": "uint256",
          "name": "",
          "type": "uint256"
        }
      ],
      "name": "isReadyForValidation",
      "outputs": [
        {
          "internalType": "bool",
          "name": "",
          "type": "bool"
        }
      ],
      "stateMutability": "view",
      "type": "function"
    },
    {
      "inputs": [
        {
          "internalType": "uint256",
          "name": "taskId",
          "type": "uint256"
        },
        {
          "internalType": "bool",
          "name": "ready",
          "type": "bool"
        }
      ],
      "name": "setReadyForValidation",
      "outputs": [],
      "stateMutability": "nonpayable",
      "type": "function"
    },
    {
      "inputs": [
        {
          "internalType": "uint256",
          "name": "taskId",
          "type": "uint256"
        },
        {
          "components": [
            {
              "internalType": "address",
              "name": "miner",
              "type": "address"
            },
            {
              "internalType": "bytes32",
              "name": "resultFingerprint",
              "type": "bytes32"
            }
          ],
          "internalType": "struct MockTaskRegistry.SubmissionInput[]",
          "name": "subs",
          "type": "tuple[]"
        }
      ],
      "name": "setSubmissions",
      "outputs": [],
      "stateMutability": "nonpayable",
      "type": "function"
    },
    {
      "inputs": [
        {
          "internalType": "uint256",
          "name": "",
          "type": "uint256"
        },
        {
          "internalType": "uint256",
          "name": "",
          "type": "uint256"
        }
      ],
      "name": "submissions",
      "outputs": [
        {
          "internalType": "address",
          "name": "miner",
          "type": "address"
        },
        {
          "internalType": "bytes32",
          "name": "resultHash",
          "type": "bytes32"
        },
        {
          "internalType": "bytes32",
          "name": "commitment",
          "type": "bytes32"
        },
        {
          "internalType": "bytes32",
          "name": "resultFingerprint",
          "type": "bytes32"
        },
        {
          "internalType": "uint256",
          "name": "submittedAt",
          "type": "uint256"
        },
        {
          "internalType": "bool",
          "name": "slashed",
          "type": "bool"
        }
      ],
      "stateMutability": "view",
      "type": "function"
    }
  ],
  "bytecode": "0x608060405234801561000f575f80fd5b506107948061001d5f395ff3fe608060405234801561000f575f80fd5b5060043610610090575f3560e01c80634e1e4629116100635780634e1e46291461012a57806369c1fc251461013d578063899ef9ff14610189578063b98e306d146101b6578063fe6e9fa8146101ca575f80fd5b80630bce88b61461009457806316c53ced146100cb57806321fca298146100eb578063288b1d6414610115575b5f80fd5b6100b66100a2366004610479565b5f6020819052908152604090205460ff1681565b60405190151581526020015b60405180910390f35b6100de6100d9366004610479565b6101d8565b6040516100c29190610490565b6101076100f9366004610479565b50683635c9adc5dea0000090565b6040519081526020016100c2565b610128610123366004610512565b61028a565b005b6101286101383660046105d2565b505050565b61015061014b36600461061a565b6103b1565b604080516001600160a01b03909716875260208701959095529385019290925260608401526080830152151560a082015260c0016100c2565b61012861019736600461063a565b5f91825260208290526040909120805460ff1916911515919091179055565b6101286101c436600461066c565b50505050565b6101286101383660046106bb565b606060015f8381526020019081526020015f20805480602002602001604051908101604052809291908181526020015f905b8282101561027f575f8481526020908190206040805160c0810182526006860290920180546001600160a01b031683526001808201548486015260028201549284019290925260038101546060840152600481015460808401526005015460ff16151560a0830152908352909201910161020a565b505050509050919050565b5f8381526001602052604081206102a09161040e565b5f5b818110156101c45760015f8581526020019081526020015f206040518060c001604052808585858181106102d8576102d861071d565b6102ee9260206040909202019081019150610731565b6001600160a01b031681525f60208201819052604082015260600185858581811061031b5761031b61071d565b604090810292909201602090810135845242848201525f93830184905285546001808201885596855293819020855160069095020180546001600160a01b0319166001600160a01b0390951694909417845584015183860155508201516002820155606082015160038201556080820151600482015560a0909101516005909101805460ff1916911515919091179055016102a2565b6001602052815f5260405f2081815481106103ca575f80fd5b5f9182526020909120600690910201805460018201546002830154600384015460048501546005909501546001600160a01b03909416965091945092909160ff1686565b5080545f8255600602905f5260205f209081019061042c919061042f565b50565b5b808211156104755780546001600160a01b03191681555f600182018190556002820181905560038201819055600482015560058101805460ff19169055600601610430565b5090565b5f60208284031215610489575f80fd5b5035919050565b602080825282518282018190525f919060409081850190868401855b8281101561050557815180516001600160a01b0316855286810151878601528581015186860152606080820151908601526080808201519086015260a09081015115159085015260c090930192908501906001016104ac565b5091979650505050505050565b5f805f60408486031215610524575f80fd5b83359250602084013567ffffffffffffffff80821115610542575f80fd5b818601915086601f830112610555575f80fd5b813581811115610563575f80fd5b8760208260061b8501011115610577575f80fd5b6020830194508093505050509250925092565b5f8083601f84011261059a575f80fd5b50813567ffffffffffffffff8111156105b1575f80fd5b6020830191508360208260051b85010111156105cb575f80fd5b9250929050565b5f805f604084860312156105e4575f80fd5b83359250602084013567ffffffffffffffff811115610601575f80fd5b61060d8682870161058a565b9497909650939450505050565b5f806040838503121561062b575f80fd5b50508035926020909101359150565b5f806040838503121561064b575f80fd5b8235915060208301358015158114610661575f80fd5b809150509250929050565b5f805f806060858703121561067f575f80fd5b8435935060208501359250604085013567ffffffffffffffff8111156106a3575f80fd5b6106af8782880161058a565b95989497509550505050565b5f805f604084860312156106cd575f80fd5b83359250602084013567ffffffffffffffff808211156106eb575f80fd5b818601915086601f8301126106fe575f80fd5b81358181111561070c575f80fd5b876020828501011115610577575f80fd5b634e487b7160e01b5f52603260045260245ffd5b5f60208284031215610741575f80fd5b81356001600160a01b0381168114610757575f80fd5b939250505056fea26469706673582212207674269346ac475fda7bd46976c7cea86cae186eda5842bf4ac9d427e1a5806964736f6c63430008180033",
  "linkReferences": {},
  "deployedLinkReferences": {}
}